:040000006EEF00F0AF
:100008005D82D9CF01F0DACF02F09DAA0EEF00F0A1
:1000180010EF00F068EF00F09EAA15EF00F017EF60
:1000280000F068EF00F0AECFD6F0ABA21EEF00F004
:1000380020EF00F022EF00F0AB98AB881F0E000114
:10004800D66529EF00F02BEF00F045EF00F07F0EAA
:10005800D66131EF00F033EF00F045EF00F03E0ECF
:10006800D619D8B43AEF00F03CEF00F045EF00F0B5
:10007800000ED725D96EDA6A020EDA22D6C0DFFF63
:10008800D72B3E0ED619D8B44CEF00F04EEF00F047
:100098005FEF00F00A0ED619D8B455EF00F057EF0D
:1000A80000F05FEF00F0D729D8A45DEF00F05FEF14
:1000B80000F068EF00F0000ED725D96EDA6A020E5C
:1000C800DA22DF6A010ED56F02C0DAFF01C0D9FF5C
:1000D8005D9211005DEF18F03F6A20EE40F0070EC8
:1000E800DE6AE806FDE21BC048F01CC049F01FBEEE
:1000F80089EF00F01F5007E1250E1E5CD8B087EF8E
:1001080000F089EF00F092EF00F01E041F10D8A451
:1001180090EF00F092EF00F099EF00F0000E000170
:10012800C36F160EC26FFAEF02F048504910D8B4E8
:10013800A0EF00F0A2EF00F0FAEF02F048C0D9FFFC
:1001480049C0DAFFDF50D8A4ACEF00F0AEEF00F002
:10015800B0EF00F0FAEF02F048C0D9FF49C0DAFF6B
:10016800DF504A6EC0EF00F0484A492A48C0D9FF1C
:1001780049C0DAFFDF504A6E200E4A18D8B4C7EFDC
:1001880000F0C9EF00F0B8EF00F04AC023F0F70E16
:100198002326040E2364D3EF00F0D5EF00F0B8EF68
:1001A80000F02D0E4A18D8A4DCEF00F0DEEF00F0C6
:1001B800E9EF00F03F80484A492A48C0D9FF49C0C2
:1001C800DAFFDF504A6EF4EF00F02B0E4A18D8A47D
:1001D800F0EF00F0F2EF00F0F4EF00F0DFEF00F0E6
:1001E800300E4A18D8A4FBEF00F0FDEF00F096EFB0
:1001F80001F0484A492A48C0D9FF49C0DAFFDF5010
:100208004A6E1E501F10D8B40CEF01F00EEF01F02B
:1002180018EF01F0100E1E181F10D8A416EF01F0E9
:1002280018EF01F088EF01F0780E4A18D8B41FEFE4
:1002380001F021EF01F02AEF01F0580E4A18D8A476
:1002480028EF01F02AEF01F088EF01F0000E1F6E91
:10025800100E1E6E484A492A48C0D9FF49C0DAFF25
:10026800DF504A6E4AC023F0200E23129F0E232629
:100278001A0E236042EF01F044EF01F068EF01F03D
:100288004AC023F09F0E2326190E23644EEF01F077
:1002980050EF01F055EF01F04AC033F0346A5CEFDB
:1002A80001F04AC023F05F0E23162350336E346AE0
:1002B80033C023F0C90E2326100E236066EF01F029
:1002C80068EF01F082EF01F04AC023F0200E2312FC
:1002D8009F0E2326190E236474EF01F076EF01F0C8
:1002E80096EF01F04AC023F0D00E2326090E2364AE
:1002F80080EF01F082EF01F096EF01F03F844806AD
:10030800D8A04906FAEF02F03F841E501F10D8A467
:1003180090EF01F092EF01F096EF01F0000E1F6EE2
:10032800080E1E6E1E501F10D8A49DEF01F09FEFFF
:1003380001F0A3EF01F0000E1F6E0A0E1E6E205092
:10034800D8B4A9EF01F0ABEF01F0D6EF01F03FB060
:10035800B0EF01F0B2EF01F0C4EF01F0FF0E376E1D
:10036800FF0E386EFF0E396EFF0E3A6EFF0E3B6EB3
:10037800FF0E3C6EFF0E3D6E7F0E3E6EDEEF01F00F
:10038800000E376E000E386E000E396E000E3A6E93
:10039800000E3B6E000E3C6E000E3D6E800E3E6EF3
:1003A800DEEF01F03768386839683A683B683C68BE
:1003B8003D683E6840C02BF041C02CF042C02DF093
:1003C80043C02EF044C02FF045C030F046C031F095
:1003D80047C032F04AC023F0200E23129F0E232676
:1003E8001A0E2360FAEF01F0FCEF01F019EF02F0AA
:1003F8004AC023F09F0E2326190E236406EF02F04D
:1004080008EF02F00DEF02F04AC035F0366A14EF3B
:1004180002F04AC023F05F0E23162350356E366A69
:100428003550C90F4A6E27EF02F04AC023F0D00EAC
:1004380023260A0E236023EF02F025EF02F0E0EFF7
:1004480002F0300E4A5E4A50236E246A1E50235C26
:100458002450800A256E1F50800A2558D8A037EFEF
:1004680002F039EF02F03BEF02F0E0EF02F03FB2AA
:1004780040EF02F042EF02F0D5EF02F01EC003F0A9
:100488001FC004F0000E04BEFF0E056E066E076E58
:10049800086E096E0A6E40C00BF041C00CF042C0F5
:1004A8000DF043C00EF044C00FF045C010F046C038
:1004B80011F047C012F02DEC15F003C023F004C072
:1004C80024F005C025F006C026F007C027F008C0B4
:1004D80028F009C029F00AC02AF04A502324406EA7
:1004E800000E2420416E000E2520426E000E2620AC
:1004F800436E000E2720446E000E2820456E000E25
:100508002920466E000E2A20476E2B50405C2C5046
:1005180041582D5042582E5043582F50445830506F
:1005280045583150465832504758D8A09EEF02F0EF
:10053800A0EF02F0BFEF02F02050D8B4A6EF02F00F
:10054800A8EF02F0D5EF02F04050375C4150385820
:100558004250395843503A5844503B5845503C58FB
:1005680046503D5847503E58D8B0BDEF02F0BFEF57
:1005780002F0D5EF02F037C040F038C041F039C082
:1005880042F03AC043F03BC044F03CC045F03DC0A7
:1005980046F03EC047F0000E0001C36F220EC26F46
:1005A8003F82484A492A48C0D9FF49C0DAFFDF508C
:1005B8004A6E3F84DEEF01F03F50030BE806D8A4F3
:1005C800E8EF02F0EAEF02F0FAEF02F0471E461EEB
:1005D800451E441E431E421E411E406C000E412211
:1005E8004222432244224522462247221D50D8B4A3
:1005F80000EF03F002EF03F014EF03F03FB407EF4E
:1006080003F009EF03F00DEF03F01BC048F01CC026
:1006180049F01D50D96EDA6A48C0DEFF49C0DDFFD7
:1006280040C01BF041C01CF042C01DF043C01EF08A
:1006380044C01FF045C020F046C021F047C022F05A
:100648001200000E0001656F000E646F4BC00EF0C3
:1006580093EC17F00001C051C111D8A436EF03F094
:1006680038EF03F03EEF03F0000E616F1F0E606F6E
:1006780042EF03F0C0C060F0C1C061F0000E676FC8
:10068800000E666F52EF04F04BC005F079EC0EF0E7
:1006980005C068F006C069F00001682906E169290B
:1006A800D8A459EF03F05BEF03F073EF03F0C051E8
:1006B800C111D8A462EF03F064EF03F06DEF03F00B
:1006C80066516711D8A46BEF03F06DEF03F073EF79
:1006D80003F068C04BF069C04CF0D7EF04F02D0E62
:1006E80068196911D8B47BEF03F07DEF03F087EF49
:1006F80003F02B0E68196911D8A485EF03F087EF72
:1007080003F09EEF03F067BF92EF03F0675108E133
:100718006605D8A092EF03F094EF03F046EF04F0DB
:1007280068C003F069C004F04BC005F07CEC15F01C
:100738006DEF04F0300E68196911D8A4A6EF03F024
:10074800A8EF03F0F6EF03F03C0E6625D96E010E14
:100758006721DA6E68C0DFFF664B672BBC4BBD2B89
:100768004BC005F079EC0EF005C068F006C069F0E2
:10077800580E000168196911D8B4C5EF03F0C7EF26
:1007880003F0D1EF03F0780E68196911D8A4CFEF00
:1007980003F0D1EF03F0E2EF03F064516511D8B430
:1007A800D8EF03F0DAEF03F0DCEF03F094EF03F097
:1007B80066C064F067C065F046EF04F0682908E198
:1007C8006929D8B4EAEF03F0ECEF03F052EF04F034
:1007D80068C003F069C004F04BC005F07CEC15F06C
:1007E80052EF04F068C04DF0D00E4D26090E4D644E
:1007F80000EF04F002EF04F046EF04F068C04DF09B
:10080800200E4D129F0E4D26050E4D640EEF04F07E
:1008180010EF04F046EF04F0682908E16929D8B41C
:1008280018EF04F01AEF04F022EF04F068C003F0A8
:1008380069C004F04BC005F07CEC15F00001645170
:100848006511D8B42AEF04F02CEF04F06DEF04F032
:10085800FF0E66254D6EFF0E67214E6E64514D18D2
:1008680007E165514E18D8A43CEF04F03EEF04F0C0
:100878006DEF04F06607D8A06707BC07D8A0BD07CE
:100888006DEF04F03C0E6625D96E010E6721DA6E15
:1008980068C0DFFF664B672BBC4BBD2B0001605166
:1008A800665D6751800A4D6E6151800A4D58D8B017
:1008B80060EF04F062EF04F06DEF04F0675109E1B6
:1008C8001F0E665DD8A06BEF04F06DEF04F048EFE3
:1008D80003F03C0E00016625D96E010E6721DA6E21
:1008E800DF6A3C0E1B6E010E1C6E620E1D6E000E42
:1008F8001F6E100E1E6E000E206E70EC00F01BC0F6
:100908004DF01CC04EF01DC04FF01EC050F01FC06F
:1009180051F020C052F021C053F022C054F04C5086
:10092800D96EDA6A4DC0DEFF4EC0DEFF4FC0DEFF73
:1009380050C0DEFF51C0DEFF52C0DEFF53C0DEFFF5
:1009480054C0DEFF0001C251C311D8A4AEEF04F0B9
:10095800B0EF04F0D3EF04F066516711D8B4B7EFE5
:1009680004F0B9EF04F0D3EF04F03C0E621909E18A
:10097800010E6319D8B4C3EF04F0C5EF04F0D3EF48
:1009880004F0D351D8B4CBEF04F0CEEF04F0010E4D
:10099800CFEF04F0000E4B6E4C6AD7EF04F0FF0E59
:1009A8004C6EFE0E4B6E1200000E0001A86F000E7A
:1009B800A76F000EAA6F000EA96F010E066E010E3A
:1009C8002DEC18F0130E066EFF0E076EE7EC16F00E
:1009D800010E066E020E2DEC18F0790E066EFF0E53
:1009E800076EE7EC16F0E00E046EFF0E056E8CEC59
:1009F80018F001EF05F002EC1AF00001D551D8B457
:100A080008EF05F00AEF05F0FFEF04F00EEC1AF01E
:100A180030EF05F0A94BAA2B000EA925D96E020EBE
:100A2800AA21DA6E3E0EDE18D8B41DEF05F01FEFCE
:100A380005F06FEF06F0010EA925D96E020EAA2166
:100A4800DA6E3E0EDE18D8A42CEF05F02EEF05F076
:100A580030EF05F06FEF06F0000E0001A925D96E02
:100A6800020EAA21DA6E340EDE18D8A43EEF05F085
:100A780040EF05F00EEF05F0010EA925D96E020E24
:100A8800AA21DA6E330EDE18D8A44DEF05F04FEF29
:100A980005F00EEF05F0020EA927000EAA2307EFB6
:100AA80006F0000EA925D96E020EAA21DA6E200ED4
:100AB800DE18D8B462EF05F064EF05F082EF05F0B8
:100AC800000EA925D96E020EAA21DA6E0D0EDE18C7
:100AD800D8B471EF05F073EF05F082EF05F0000E62
:100AE800A925D96E020EAA21DA6E0A0EDE18D8A43C
:100AF80080EF05F082EF05F086EF05F0A94BAA2BF1
:100B080007EF06F0030EA925D96E020EAA21DA6EA8
:100B18003E0EDE18D8A493EF05F095EF05F097EF99
:100B280005F024EF06F0000E9D6F000E9E6F000E7C
:100B38009F6F000EA925D96E020EAA21DA6EDF502A
:100B48009D6F010EA925D96E020EAA21DA6EDF501B
:100B58009E6F3E0E9F6F000EA06F000EA16F000EDD
:100B6800A26F020EA925D96E020EAA21DA6EDF50F5
:100B7800A06F030EA925D96E020EAA21DA6EDF50E6
:100B8800A16F3E0EA26F000EA46F000EA36F000EA1
:100B9800A66F000EA56F9D0E856F866BD30E876FAF
:100BA800FF0E886FA30E896F8A6BDDEC18F0A00E1C
:100BB8000001856F866BD30E876FFF0E886FA50EB9
:100BC800896F8A6BDDEC18F0A3C04EF04F6AA5C0A0
:100BD80050F0516A060E0001A703F3CF9BF0F4CF43
:100BE8009CF0A803F3509C27000E9B25526E010E23
:100BF8009C21536ED4EC11F00001A74BA82B040ED6
:100C0800A927000EAA23000EA925D96E020EAA2133
:100C1800DA6E3E0EDE18D8B414EF06F016EF06F0C2
:100C280024EF06F0A8BF22EF06F0A85109E10A0E4A
:100C3800A75DD8A022EF06F024EF06F055EF05F0E7
:100C4800A751A811D8A42BEF06F02DEF06F03AEF24
:100C580006F0F3EC19F0010E066E010E2DEC18F0FB
:100C68006B0E066EFF0E076EE7EC16F00001A8BFCC
:100C780046EF06F0A85108E1A705D8A046EF06F010
:100C880048EF06F06CEF06F0F3EC19F0010E066E73
:100C9800010E2DEC18F04F0E066EFF0E076EE7ECF6
:100CA80016F0010E066E020E2DEC18F0060E00016D
:100CB800A703F3CF9BF0F4CF9CF0A803F3509C2735
:100CC800000E9B25066E010E9C21076EE7EC16F0C0
:100CD8000001D76BD56B120000016B51D96EDA6A2F
:100CE800DECFF6FFDDCFF7FF0800F550250AD8A4C0
:100CF80080EF06F082EF06F048EF07F06B51D96EEF
:100D0800DA6ADE2A000EDD22000EC16F000EC06F07
:100D1800C051C111D8A493EF06F096EF06F0010E6A
:100D280097EF06F0000ED36F6B51D96EDA6ADECFFB
:100D3800F6FFDDCFF7FF0800F550780AD8B4A7EF23
:100D480006F0A9EF06F0BAEF06F06B51D96EDA6A31
:100D5800DECFF6FFDDCFF7FF0800F550580AD8A41C
:100D6800B8EF06F0BAEF06F0F0EF06F06B51D96E67
:100D7800DA6ADE2A000EDD226AC04BF0710E4C6E74
:100D880025EC03F04BC06FF04CC070F0000170BF51
:100D9800D6EF06F0705108E16F05D8A0D6EF06F03F
:100DA800D8EF06F0EAEF06F06CC0D9FF6DC0DAFFA5
:100DB800020EDF26DF5CD96EDA6ADECF6EF06E5186
:100DC800D96EDA6A71C0DEFF72C0DDFF6FC06AF0EB
:100DD80070C06BF0FDEF07F06B51D96EDA6ADECFA9
:100DE800F6FFDDCFF7FF0800F550250AD8A4FFEF7E
:100DF80006F001EF07F040EF07F06AC00EF093EC41
:100E080017F06AC005F079EC0EF005C079F006C05D
:100E18007AF0250E000179197A11D8A416EF07F097
:100E280018EF07F027EF07F06B51D96EDA6ADE2A60
:100E3800000EDD22BC4BBD2B000E00016B6F000EB7
:100E48006A6FFDEF07F0792908E17A29D8B42FEF06
:100E580007F031EF07F039EF07F079C003F07AC0F7
:100E680004F06AC005F07CEC15F0FF0E00016B6F12
:100E7800FE0E6A6FFDEF07F06B51D96EDA6ADE2A53
:100E8800000EDD2220EF07F06AC005F079EC0EF0C5
:100E980005C079F006C07AF000016B51D96EDA6AA4
:100EA800DECFF6FFDDCFF7FF0800F550200AD8B4F3
:100EB80060EF07F062EF07F076EF07F06B51D96E3D
:100EC800DA6ADECFF6FFDDCFF7FF0800F5CF55F081
:100ED800F70E5526050E556074EF07F076EF07F00C
:100EE800D8EF07F06B51D96EDA6ADE2A000EDD22E0
:100EF8006B51D96EDA6ADECFF6FFDDCFF7FF080057
:100F0800F550200AD8B48BEF07F08DEF07F076EF95
:100F180007F06B51D96EDA6ADECFF6FFDDCFF7FF47
:100F28000800F5CF55F0F70E5526040E55649FEFCF
:100F380007F0A1EF07F076EF07F0ADEF07F0BC4B35
:100F4800BD2B6AC005F079EC0EF005C079F006C03B
:100F58007AF0200E000179197A11D8B4B6EF07F0AB
:100F6800B8EF07F0A3EF07F079C055F0F70E552654
:100F7800040E5564C2EF07F0C4EF07F0A3EF07F0C3
:100F8800792908E17A29D8B4CCEF07F0CEEF07F039
:100F980020EF07F079C003F07AC004F06AC005F0CA
:100FA8007CEC15F020EF07F06B51D96EDA6ADECFD2
:100FB800F6FFDDCFF7FF0800F550556E566A7951F8
:100FC800551807E17A515618D8A4EDEF07F0EFEF5E
:100FD80007F0F1EF07F018EF07F0792906E17A2911
:100FE800D8A4F9EF07F0FBEF07F031EF07F06A69D3
:100FF8006B691200F3EC19F0B3EC19F0B3EC19F0CB
:1010080098EC19F003C05BF004C05CF05C04D8B045
:1010180010EF08F012EF08F01CEF08F0000E0001C6
:10102800F96F000EF86F010E066E020E2DEC18F027
:101038005C04D8A022EF08F024EF08F037EF08F09E
:10104800020E5C5CD8B02BEF08F02DEF08F037EFFC
:1010580008F0000E0001F96F010EF86F050E066E1C
:10106800020E2DEC18F0020E5C5CD8A03EEF08F0E2
:1010780040EF08F053EF08F0030E5C5CD8B047EF80
:1010880008F049EF08F053EF08F0000E0001F96F7F
:10109800020EF86F090E066E020E2DEC18F0030E04
:1010A8005C5CD8A05AEF08F05CEF08F06FEF08F02E
:1010B800040E5C5CD8B063EF08F065EF08F06FEFE2
:1010C80008F0000E0001F96F030EF86F0D0E066EA2
:1010D800020E2DEC18F0010EE0EC19F081B877EF54
:1010E80008F079EF08F017EF09F0680E0001AB6F10
:1010F800E40EE82EFED7AB2FFCD7000081B887EFAF
:1011080008F089EF08F017EF09F0000EE0EC19F08D
:10111800F3EC19F0F8EF08F03EEC1AF082BA97EF0A
:1011280008F099EF08F090EF08F0680E0001AB6F37
:10113800E40EE82EFED7AB2FFCD7000082BAA7EF4B
:1011480008F0A9EF08F090EF08F0F3EC19F0B3EC11
:1011580019F00001F869F96917EF09F0D8EC04F003
:1011680082BAB9EF08F0BBEF08F0B2EF08F0680EEA
:101178000001AB6FE40EE82EFED7AB2FFCD70000C2
:1011880082BAC9EF08F0CBEF08F0B2EF08F0A9EF88
:1011980008F0050E0001AC6F0F0EAB6FF10EE82ED4
:1011A800FED7AB2FFCD7AC2FFAD72BEC0AF0ADEF5C
:1011B80008F07DEC19F082BAE4EF08F0E6EF08F0E9
:1011C800DDEF08F0680E0001AB6FE40EE82EFED7E5
:1011D800AB2FFCD7000082BAF4EF08F0F6EF08F066
:1011E800DDEF08F0A9EF08F0F8C0ABF0F9C0ACF0FB
:1011F8000001AC51000AD8B404EF09F017EF09F068
:10120800AB51000AD8B490EF08F0010AD8B4B2EF95
:1012180008F0030AD8B4CDEF08F0010AD8B4DDEF1E
:1012280008F017EF09F0020E0001AC6F040EAB6F67
:10123800BA0EE82EFED7AB2FFCD7AC2FFAD700009A
:1012480002EF08F012002650D96EDA6ADECFF6FFF8
:10125800DDCFF7FF0800F550250AD8A436EF09F0CE
:1012680038EF09F019EF0AF02650D96EDA6ADE2A4B
:10127800000EDD22000E0001C56F000EC46FC4C051
:10128800D4F0C669C7692B6A67EF09F00001D483F7
:101298002650D96EDA6ADE2A000EDD2267EF09F0E1
:1012A800010E2B6E67EF09F02650D96EDA6ADECF91
:1012B800F6FFDDCFF7FF0800F550300AD8B44AEF43
:1012C80009F054EF09F02B50D8B46DEF09F06FEF27
:1012D80009F058EF09F026C003F027C004F084ECA9
:1012E80014F003C0C4F004C0C5F00001C5BF81EF0D
:1012F80009F07FEF09F086EF09F0D481C46DC51FAE
:10130800D8B0C52B2650D96EDA6ADECFF6FFDDCF0E
:10131800F7FF0800F550630AD8A495EF09F097EF96
:1013280009F0AFEF09F02650D96EDA6ADE2A000E0E
:10133800DD222750D96EDA6ADF50DF2ADF2AD96E1C
:10134800DA6ADF502A6E25C00BF02AC00CF0C7EC11
:1013580013F02AEF0AF02650D96EDA6ADECF30F0A1
:10136800DDCF31F030C0F6FF31C0F7FF0800F5508F
:10137800580AD8B4C2EF09F0C4EF09F0D2EF09F067
:1013880030C0F6FF31C0F7FF0800F550750AD8A441
:10139800D0EF09F0D2EF09F011EF0AF02750D96E1B
:1013A800DA6A020EDF26DF5CD96EDA6ADECF2CF04D
:1013B800DECF2DF0010E3024286E000E3120296E6C
:1013C8002650D96EDA6A28C0DEFF29C0DDFF01EF9A
:1013D8000AF025C019F02CC01AF02DC01BF060ECE3
:1013E80011F02AEF0AF025C019F02CC01AF02DC010
:1013F8001BF0FAEC0EF02AEF0AF030C0F6FF31C00D
:10140800F7FF0800F550580AD8B4F7EF09F02D0A8D
:10141800D8B4EDEF09F011EF0AF02650D96EDA6A68
:10142800DE2A000EDD222AEF0AF02650D96EDA6A8B
:10143800DECFF6FFDDCFF7FF0800F550036E046A34
:1014480025C005F027EC14F011EF0AF01200000E89
:101458000E6E000E0D6EF3EC19F0010E066E010E05
:101468002DEC18F0320E066EFF0E076EE7EC16F044
:10147800010E066E020E2DEC18F0AF0E066EFE0E73
:10148800076EE7EC16F0010EE0EC19F098EC19F095
:1014980003C05BF004C05CF0020E5C5CD8B057EF90
:1014A8000AF059EF0AF062EF0AF0000E0E6E000E15
:1014B8000D6E010E066E020E2DEC18F0020E5C5C2D
:1014C800D8A069EF0AF06BEF0AF07DEF0AF0040E7E
:1014D8005C5CD8B072EF0AF074EF0AF07DEF0AF0A6
:1014E800000E0E6E010E0D6E030E066E020E2DEC32
:1014F80018F082BA82EF0AF084EF0AF09CEF0AF043
:10150800680E0B6EE40EE82EFED70B2EFCD700D02B
:1015180082BA91EF0AF093EF0AF09CEF0AF0F3EC2D
:1015280019F0B3EC19F00001F869F96922EF0BF032
:1015380081B8A1EF0AF0A3EF0AF04AEF0AF0680EAB
:101548000B6EE40EE82EFED70B2EFCD700D081B828
:10155800B0EF0AF0B2EF0AF04AEF0AF00CEF0BF026
:10156800E40E046EFF0E056E8CEC18F0BEEF0AF068
:1015780002EC1AF00001D551D8B4C5EF0AF0C7EF54
:101588000AF0BCEF0AF00EEC1AF0F3EC19F0010EB9
:10159800066E010E2DEC18F05D0E066EFF0E076E3E
:1015A800E7EC16F0010E066E020E2DEC18F0840E14
:1015B800066EFF0E076EE7EC16F00001F869F96990
:1015C800290E0C6E960E0B6E7F0EE82EFED70B2E94
:1015D800FCD70C2EFAD7000022EF0BF0F3EC19F031
:1015E800010E066E010E2DEC18F0030E066EFF0EAE
:1015F800076EE7EC16F0010E066E020E2DEC18F0E1
:10160800840E066EFF0E076EE7EC16F0E1EF0AF0A7
:101618000DC00BF00EC00CF00C50000AD8B417EF38
:101628000BF022EF0BF00B50000AD8B4B4EF0AF01D
:10163800010AD8B4F2EF0AF022EF0BF01200000E04
:101648001F6E000E1E6E000E216E000E206EF3EC53
:1016580019F0010E066E010E2DEC18F09E0E066EA6
:10166800FE0E076EE7EC16F0010E066E020E2DEC6C
:1016780018F0230E066EFF0E076EE7EC16F0A00EAC
:10168800046EFF0E056E8CEC18F025EC1AF02EECAB
:101698001AF0000E216E000E206E000E1F6E000E56
:1016A8001E6E9EA45AEF0BF05CEF0BF092EF0BF05E
:1016B8009E94CD80204A212A100E066E020E2DEC33
:1016C80018F020C003F021C004F0000E066E0A0EC8
:1016D800056E24EC17F003C011F004C012F0136A71
:1016E800146A010E156E11EC0CF020C003F021C035
:1016F80004F0000E066E0A0E056EFBEC17F00350A0
:101708000410D8A48AEF0BF08CEF0BF092EF0BF0DB
:10171800D60E046EFF0E056E8CEC18F00001D55144
:10172800D8B499EF0BF09BEF0BF0A1EF0BF0000E84
:101738001F6E010E1E6ED76BD56B1E501F10D8B4CE
:10174800A8EF0BF0AAEF0BF0B7EF0BF0215009E16F
:10175800280E205CD8A0B3EF0BF0B5EF0BF055EFD7
:101768000BF0DAEF0BF0000E216E000E206E010E6A
:10177800066E020E2DEC18F08D0E066EFE0E076E2C
:10178800E7EC16F0D60E046EFF0E056E8CEC18F022
:10179800020E1D6E040E1C6EBA0EE82EFED71C2E0D
:1017A800FCD71D2EFAD700D055EF0BF0F3EC19F04B
:1017B800010E066E010E2DEC18F0E20E066EFE0EFE
:1017C800076EE7EC16F0010E066E020E2DEC18F00F
:1017D800C00E066EFE0E076EE7EC16F0520E1D6E7A
:1017E8002B0E1C6E000EE82EFED71C2EFCD71D2ECD
:1017F800FAD700D09A0E046EFF0E056E8CEC18F026
:10180800020E1D6E040E1C6EBA0EE82EFED71C2E9C
:10181800FCD71D2EFAD700D01200176A14BE19EF94
:101828000CF017EF0CF033EF0CF011C003F012C0FE
:1018380004F013C005F014C006F0FF0E076EFF0E8B
:10184800086EFF0E096EFF0E0A6E5EEC17F003C0FD
:1018580011F004C012F005C013F006C014F011C056
:1018680018F012C019F013C01AF014C01BF0172A90
:101878001BBE4CEF0CF01B501A10191007E10A0E92
:10188800185CD8B04AEF0CF04CEF0CF04EEF0CF0AF
:101898006AEF0CF018C003F019C004F01AC005F084
:1018A8001BC006F00A0E076E000E086E000E096EC9
:1018B800000E0A6EF4EC0DF003C018F004C019F025
:1018C80005C01AF006C01BF03BEF0CF01550175C72
:1018D800D8A071EF0CF073EF0CF075EF0CF07BEF04
:1018E8000CF0200E7BEC0FF015066AEF0CF011C01F
:1018F80018F012C019F013C01AF014C01BF0010E32
:10190800166EA2EF0CF018C003F019C004F01AC04C
:1019180005F01BC006F00A0E076E000E086E000EDA
:10192800096E000E0A6EF4EC0DF003C018F004C046
:1019380019F005C01AF006C01BF0162A1750165CDD
:10194800D8A0A9EF0CF0ABEF0CF087EF0CF018C0A3
:1019580003F019C004F01AC005F01BC006F00A0E07
:10196800076E000E086E000E096E000E0A6E77EC08
:1019780010F00350300F7BEC0FF017061750D8A467
:10198800C8EF0CF0CAEF0CF07BEF0CF01200AC0EB5
:10199800046EFF0E056E8CEC18F0F4EF0CF082BAB2
:1019A800D8EF0CF0DAEF0CF0F2EF0CF0680E576E8F
:1019B800E40EE82EFED7572EFCD700D082BAE7EF08
:1019C8000CF0E9EF0CF0F2EF0CF0F3EC19F0B3ECDB
:1019D80019F00001F869F96960EF0DF002EC1AF0EE
:1019E8000001D551D8B4FBEF0CF0FDEF0CF0D3EFAC
:1019F8000CF00EEC1AF0596A5A6ABE0E00019B6F81
:101A0800FF0E9C6F590E9D6F5A0E9E6FDAEC14F004
:101A18000009D8B412EF0DF014EF0DF02BEF0DF014
:101A28005A5059C057F0586A57C058F0576A57105B
:101A3800036E5850046E000E066E040E056E06EC1A
:101A480013F003C0CCF004C0CDF030EF0DF0000E61
:101A58000001CD6F000ECC6FE80E386E396AF80EB3
:101A68003A6EFF0E3B6ECCC03CF0CDC03DF020EC92
:101A780019F0010E066E020E2DEC18F0490E066ED6
:101A8800FF0E076EE7EC16F0010E066E010E2DEC48
:101A980018F0F00E066EFF0E076EE7EC16F0010E5A
:101AA800066E020E2DEC18F0E80E066E076AE7ECDB
:101AB80016F00001D76BD56B1200B20E046EFF0E44
:101AC800056E8CEC18F08AEF0DF082BA6EEF0DF00F
:101AD80070EF0DF088EF0DF0680E576EE40EE82EEB
:101AE800FED7572EFCD700D082BA7DEF0DF07FEFDE
:101AF8000DF088EF0DF0F3EC19F0B3EC19F00001DC
:101B0800F869F969F3EF0DF002EC1AF00001D5510C
:101B1800D8B491EF0DF093EF0DF069EF0DF00EECE6
:101B28001AF0596A586AC40E00019B6FFF0E9C6F29
:101B3800590E9D6F580E9E6FDAEC14F00009D8B458
:101B4800A8EF0DF0AAEF0DF0B3EF0DF0D80E592461
:101B58000001C86FC96BFF0EC923B8EF0DF0000E66
:101B68000001C96F000EC86FD80E386E396AF80EBA
:101B78003A6EFF0E3B6EC8C03CF0C9C03DF020EC89
:101B880019F00D0E066E020E2DEC18F04B0E066EB7
:101B9800FF0E076EE7EC16F00D0E066E010E2DEC2B
:101BA80018F0F40E066EFF0E076EE7EC16F00D0E39
:101BB800066E020E2DEC18F0D80E066E076AE7ECDA
:101BC80016F00F0E066E020E2DEC18F0C20E066E01
:101BD800FF0E076EE7EC16F00001D76BD56B12000D
:101BE8000C6A0ABEFCEF0DF0FAEF0DF006EF0EF0EE
:101BF8000A1E091E081E076C000E082209220A2266
:101C0800010E0C6E06BE0DEF0EF00BEF0EF017EF87
:101C18000EF0061E051E041E036C000E042205228B
:101C28000622010E0C1A000E0D6E000E0E6E000E2E
:101C38000F6E000E106E0750081009100A10D8B465
:101C480028EF0EF02AEF0EF060EF0EF0010E0B6E8B
:101C580034EF0EF0D8900736083609360A360B2AC4
:101C68000AAE39EF0EF03BEF0EF02EEF0EF0D890E3
:101C78000D360E360F3610360750035C08500458E0
:101C8800095005580A500658D8A04DEF0EF04FEFEE
:101C98000EF058EF0EF00750035E0850045A095032
:101CA800055A0A50065A0D80D8900A32093208326D
:101CB80007320B2E3BEF0EF00C50D8B466EF0EF047
:101CC80068EF0EF070EF0EF0101E0F1E0E1E0D6C5A
:101CD800000E0E220F2210220DC003F00EC004F0D9
:101CE8000FC005F010C006F012000550D8A47FEF11
:101CF8000EF081EF0EF09EEF0EF00001D251D8A445
:101D080088EF0EF08AEF0EF092EF0EF051EC1AF019
:101D180003C00CF004C00DF0F5EF0EF0D207D2515D
:101D2800B30FD96EDA6ADF50076E07500C6E0D6A72
:101D3800F5EF0EF00550D96EDA6A070ED926DE5097
:101D4800DE10D8B4AAEF0EF0ACEF0EF0C5EF0EF02F
:101D58000550D96EDA6A070ED926DE06000EDD5A5E
:101D6800DECF07F0DDCF08F005500724D96EDA6A18
:101D7800040ED926DF50096E09500C6E0D6AF5EF76
:101D88000EF00550D96EDA6A020ED926DECF07F0BA
:101D9800DDCF08F00550D96EDA6ADECF09F0DDCF65
:101DA8000AF007500924D96E08500A20DA6EDF506D
:101DB8000B6E0B500C6E0D6A0C500D10D8A4E7EF8B
:101DC8000EF0E9EF0EF0EDEF0EF00C680D68F5EF90
:101DD8000EF00550D96EDA6A020ED926DE2A000EF8
:101DE800DD220CC005F00DC006F01200010E1F6EBA
:101DF800C4C020F0C5C021F0000E246E1F0E236E53
:101E080001017B6B38EF0FF02306D8A024061A5087
:101E18000F0B226E0A0E226014EF0FF016EF0FF070
:101E28001AEF0FF0300E22261CEF0FF0370E222685
:101E38005C0E2324D96E010E2420DA6E22C0DFFF47
:101E48001F6A2006D8A021061AC01CF01BC01DF06E
:101E5800040E1E6ED8901D321C321E2E2EEF0FF06F
:101E68001CC01AF01DC01BF024BE44EF0FF0245014
:101E780009E1020E235CD8A044EF0FF046EF0FF003
:101E88006CEF0FF01A501B10D8A44DEF0FF04FEF66
:101E98000FF008EF0FF01F50D8A455EF0FF057EFD1
:101EA8000FF008EF0FF021BE62EF0FF0215008E1AC
:101EB8002004D8A062EF0FF064EF0FF06CEF0FF082
:101EC8000001D4B36AEF0FF06CEF0FF008EF0FF0DA
:101ED80019C011F05C0E2324126E010E2420136E1B
:101EE80020C014F021C015F0CAEC15F01200056EE0
:101EF8008C84036A05AE01D0032A010E031603324F
:101F080003328C5003187F0B03188C6E05C003F046
:101F1800060E046ED8900332042E8EEF0FF0010ED9
:101F28000316033A034603468C500318BF0B0318E5
:101F38008C6E05C003F0050E046ED8900332042E93
:101F4800A1EF0FF0010E0316033A03468C50031855
:101F5800DF0B03188C6E05C003F0033A0F0E03164F
:101F6800010E0316033A8C500318EF0B03188C6EFE
:101F780045EC1AF005C003F0D8900332D89003322C
:101F8800D8900332010E0316033203328C50031823
:101F98007F0B03188C6E05C003F0D8900332D890DD
:101FA8000332010E0316033A034603468C50031806
:101FB800BF0B03188C6E05C003F0D8900332010ED6
:101FC8000316033A03468C500318DF0B03188C6E74
:101FD80005C003F0010E0316033A8C500318EF0BEB
:101FE80003188C6E45EC1AF01200056E8C94036A87
:101FF80005AE01D0032A010E0316033203328C50BA
:1020080003187F0B03188C6E05C003F0060E046ED0
:10201800D8900332042E0CEF10F0010E0316033A89
:10202800034603468C500318BF0B03188C6E05C07B
:1020380003F0050E046ED8900332042E1FEF10F043
:10204800010E0316033A03468C500318DF0B0318DE
:102058008C6E05C003F0033A0F0E0316010E03162B
:10206800033A8C500318EF0B03188C6E45EC1AF0EA
:1020780005C003F0D8900332D8900332D8900332C9
:10208800010E0316033203328C5003187F0B03181A
:102098008C6E05C003F0D8900332D8900332010E3D
:1020A8000316033A034603468C500318BF0B031864
:1020B8008C6E05C003F0D8900332010E0316033A64
:1020C80003468C500318DF0B03188C6E05C003F011
:1020D800010E0316033A8C500318EF0B03188C6E8D
:1020E80045EC1AF012000C6A06BE7FEF10F07DEF87
:1020F80010F089EF10F0061E051E041E036C000E7A
:10210800042205220622010E0C6E0ABE90EF10F082
:102118008EEF10F098EF10F00A1E091E081E076CCB
:10212800000E082209220A220750081009100A1076
:10213800D8B4A1EF10F0A3EF10F0D3EF10F0010E18
:102148000B6EADEF10F0D8900736083609360A3610
:102158000B2A0AAEB2EF10F0B4EF10F0A7EF10F0B0
:102168000750035C08500458095005580A5006588F
:10217800D8A0C1EF10F0C3EF10F0CBEF10F007506C
:10218800035E0850045A0950055A0A50065AD89056
:102198000A320932083207320B2EB4EF10F00C5015
:1021A800D8B4D9EF10F0DBEF10F0E3EF10F0061E13
:1021B800051E041E036C000E04220522062203C01D
:1021C80003F004C004F005C005F006C006F01200D4
:1021D800B80E046EFF0E056E8CEC18F015EF11F0BA
:1021E80082BAF9EF10F0FBEF10F013EF11F0680E60
:1021F8000B6EE40EE82EFED70B2EFCD700D082BA69
:1022080008EF11F00AEF11F013EF11F0F3EC19F0E9
:10221800B3EC19F00001F869F9691EEF11F002EC4E
:102228001AF00001D551D8B41CEF11F01EEF11F0CF
:10223800F4EF10F00EEC1AF0070E066E020E2DECFD
:1022480018F0490E066EFF0E076EE7EC16F0070E43
:10225800066E010E2DEC18F0CA0E066EFF0E076E04
:10226800E7EC16F0070E066E020E2DEC18F0000EC5
:10227800036E020E046E000E066E560E056EB7EC67
:1022880018F003500410D8A44CEF11F04EEF11F0E1
:1022980056EF11F0EC0E066EFF0E076EE7EC16F027
:1022A8005CEF11F0000E066E020E076EE7EC16F0FA
:1022B8000001D76BD56B1200010E1C6EC4C01DF057
:1022C800C5C01EF0000E206E1F0E1F6E01017B6B35
:1022D80096EF11F01F06D8A020065C0E1F24D96EB9
:1022E800010E2020DA6E1AC003F01BC004F0000EA5
:1022F800066E0A0E056EFBEC17F00350300FDF6E0A
:102308001C6A1D06D8A01E061AC003F01BC004F0E4
:10231800000E066E0A0E056E24EC17F003C01AF0C4
:1023280004C01BF01F502010D8B49DEF11F09FEF90
:1023380011F0C5EF11F01A501B10D8A4A6EF11F038
:10234800A8EF11F06EEF11F01C50D8A4AEEF11F009
:10235800B0EF11F06EEF11F01EBEBBEF11F01E5082
:1023680008E11D04D8A0BBEF11F0BDEF11F0C5EFD7
:1023780011F00001D4B3C3EF11F0C5EF11F06EEF07
:1023880011F019C011F05C0E1F24126E010E2020EE
:10239800136E1DC014F01EC015F0CAEC15F0120023
:1023A800EAEF11F0500E596E14EF12F0430E596E09
:1023B80014EF12F0420E596E14EF12F0550E596ECA
:1023C80014EF12F03F0E596E14EF12F04EC054F095
:1023D8004FC055F0060E566ED89055325432562ED0
:1023E800F0EF11F0030E5416000E55165550000A62
:1023F800D8B401EF12F0E6EF11F05450000AD8B447
:10240800D6EF11F0010AD8B4DAEF11F0030AD8B404
:10241800DEEF11F0010AD8B4E2EF11F0E6EF11F0A7
:1024280052C038F053C039F08F0E3A6EFF0E3B6E33
:1024380059C03CF03D6A4EC054F04FC055F0040EF0
:10244800566ED89055325432562E25EF12F0030EA0
:1024580054143E6E3F6A0F0E4E14576E000E4F1402
:10246800586E57C058F0576A50505710406E515028
:102478005810416E20EC19F012000706D8A0080683
:10248800072806E10828D8A44CEF12F04EEF12F006
:102498005BEF12F0000E046E000E036EA3EF12F055
:1024A800034A042A054A062A0706D8A0080603C0D4
:1024B800D9FF04C0DAFFDF50D8B465EF12F067EF38
:1024C80012F092EF12F005C0F6FF06C0F7FF080001
:1024D800F5500009D8B473EF12F075EF12F092EFCF
:1024E80012F007500810D8B47CEF12F07EEF12F00B
:1024F80092EF12F003C0D9FF04C0DAFFDF50096E73
:1025080005C0F6FF06C0F7FF0800F5500918D8B453
:1025180090EF12F092EF12F054EF12F003C0D9FFCF
:1025280004C0DAFFDF50096E05C0F6FF06C0F7FFEA
:102538000800F550095C036E046AD8A0040612006E
:102548007CC083F07DC084F0000E0001BD6F000EDA
:10255800BC6FBCC0BEF0BDC0BFF0C2C07FF0C3C07E
:1025680080F0D6EF12F0000EC36F000EC26F7BC072
:102578006AF0830E6B6F7EC06CF06D6B70EC06F0CA
:102588006AC081F06BC082F0000182BFD0EF12F008
:10259800CEEF12F0D2EF12F0E4EF12F08151BE2725
:1025A8008251BF2383C0F6FF84C0F7FF0800F550AF
:1025B8000009D8A4E2EF12F0E4EF12F0B7EF12F03E
:1025C8007FC0C2F080C0C3F0812906E18229D8A467
:1025D800F0EF12F0F2EF12F001EF13F0BE51BF115D
:1025E800D8A4F9EF12F0FBEF12F001EF13F081C05D
:1025F8007BF082C07CF005EF13F0BEC07BF0BFC05B
:102608007CF01200086A06BE0EEF13F00CEF13F010
:1026180014EF13F0056C061ED8B0062A010E086EDA
:1026280004BE1BEF13F019EF13F021EF13F0036C46
:10263800041ED8B0042A010E081A000E0A6E000EF5
:10264800096E05500610D8B42CEF13F02EEF13F0D6
:1026580056EF13F0010E076E36EF13F0D8900536DB
:102668000636072A06AE3BEF13F03DEF13F032EFC4
:1026780013F0D89009360A360550035C0650045802
:10268800D8A049EF13F04BEF13F050EF13F00550BB
:10269800035E0650045A0980D89006320532072E88
:1026A8003DEF13F00850D8B45CEF13F05EEF13F071
:1026B80062EF13F0096C0A1ED8B00A2A09C003F0A9
:1026C8000AC004F012000C500D10D8B46EEF13F0CD
:1026D80070EF13F0C2EF13F00CC003F00DC004F05C
:1026E80060EC19F003C00EF004C00FF0ADEF13F06A
:1026F8000AC003F00BC004F00CC005F00DC006F0D2
:102708000EC007F00FC008F041EC12F0035004109F
:10271800D8A491EF13F093EF13F099EF13F00AC0D8
:102728000AF00BC00BF0C6EF13F0010E0A24036E7B
:10273800000E0B20046E0CC0F6FF0DC0F7FF08005A
:10274800F550056E066AB7EC18F003C00AF004C02D
:102758000BF00A500B10D8B4B4EF13F0B6EF13F027
:10276800C2EF13F00AC0D9FF0BC0DAFFDF50D8A4BC
:10277800C0EF13F0C2EF13F07CEF13F0000E0A6EF7
:10278800000E0B6E12000001C451C511D8A4CFEF82
:1027980013F0D1EF13F0D7EF13F0C4C010F0C5C099
:1027A80011F0DDEF13F0FF0EC425106EFF0EC521EA
:1027B800116ED4A1E2EF13F0E4EF13F0EBEF13F096
:1027C8000CC003F0046A0BC005F027EC14F011BE2E
:1027D800F0EF13F0F2EF13F0F4EF13F0F8EF13F05B
:1027E800000E116E000E106E000E0F6E000E0E6EB3
:1027F80008EF14F0000E046E200E036E0BC005F0F7
:1028080027EC14F00E4A0F2A10500E5C0F50800A65
:102818000D6E1150800A0D58D8A015EF14F017EF5F
:1028280014F0FEEF13F00001D4B11DEF14F01FEF08
:1028380014F026EF14F00CC003F0046A0BC005F086
:1028480027EC14F012000550D8B42DEF14F02FEF38
:1028580014F037EF14F00550D8A435EF14F037EF23
:1028680014F03CEF14F0035056EC1AF083EF14F018
:102878000550D96EDA6A090ED926DE50DE10D8B4B2
:1028880048EF14F04AEF14F063EF14F00550D96ED6
:10289800DA6A090ED9260550E16EE26A020EE126CF
:1028A800DE50E65CE650800A0A6EDE50800A0A585E
:1028B800D8B061EF14F063EF14F083EF14F0055013
:1028C800D96EDA6A020ED926DECF06F0DDCF07F020
:1028D8000550D96EDA6ADECF08F0DDCF09F0065070
:1028E8000824D96E07500920DA6E03C0DFFF0550AF
:1028F800D96EDA6A020ED926DE2A000EDD2212000F
:10290800000E096E000E086E0350D96EDA6ADECF2B
:10291800F6FFDDCFF7FF0800F5502A0AD8A497EF95
:1029280014F099EF14F0C2EF14F00350D96EDA6A7C
:10293800DE2A000EDD220450D96EDA6A020EDF2686
:10294800DF5CD96EDA6ADECF08F0DECF09F0D5EFAA
:1029580014F00A0E0802F3CF05F0F4CF06F00902CE
:10296800F350062607500524086E000E0620096E4F
:102978000350D96EDA6ADE2A000EDD220350D96EC2
:10298800DA6ADECFF6FFDDCFF7FF0800F550D00F8B
:10299800076E090E0764D3EF14F0D5EF14F0ADEF0E
:1029A80014F008C003F009C004F01200000E0A6E0B
:1029B800020E0B6E9BC00CF09CC00DF067EC13F080
:1029C8000AC09FF00BC0A0F000019F51A011D8B41D
:1029D800F0EF14F0F2EF14F02BEF15F0000EA26FE9
:1029E800000EA16F000EA46F000EA36F9BC003F032
:1029F8009CC004F060EC19F0035000019F25856F1E
:102A08000450A021866FD00E876FFF0E886FA10E2D
:102A1800896F8A6BA30E8B6F8C6BDDEC18F0020E3E
:102A2800000185198611D8A41CEF15F01EEF15F0CA
:102A38002BEF15F09D51D96EDA6AA1C0DFFF9E51C8
:102A4800D96EDA6AA3C0DFFF010E2CEF15F0000E75
:102A5800120020EE13F0070EDE6AE806FDE203A07E
:102A680038EF15F03AEF15F04AEF15F00B50132632
:102A78000C5014220D5015220E5016220F501722FA
:102A8800105018221150192212501A22D8900B36C1
:102A98000C360D360E360F36103611361236D890E3
:102AA8000A3209320832073206320532043203325A
:102AB80003500410051006100710081009100A101A
:102AC800D8A469EF15F06BEF15F033EF15F013C0CC
:102AD80003F014C004F015C005F016C006F017C0C6
:102AE80007F018C008F019C009F01AC00AF012005F
:102AF800032806E10428D8A484EF15F086EF15F022
:102B080088EF15F0C9EF15F00550D8A48EEF15F031
:102B180090EF15F0A3EF15F0030E0001D219D8B409
:102B280098EF15F09AEF15F0C9EF15F0D251B30FE1
:102B3800D96EDA6A03C0DFFFD22BC9EF15F0055052
:102B4800D96EDA6A070ED926030EDE18DE10D8B45D
:102B5800B0EF15F0B2EF15F0C9EF15F00550D96ECA
:102B6800DA6A070ED926DF50066E05500624D96E9C
:102B7800DA6A040ED92603C0DFFF0550D96EDA6A77
:102B8800070ED926DE2A000EDD2212000001D4A18C
:102B9800D0EF15F0D2EF15F0DAEF15F012C00BF008
:102BA80013C00CF011C00DF040EC19F015BEE1EFA8
:102BB80015F0DFEF15F0E5EF15F0000E156E000EBD
:102BC800146E000E186E000E176EF5EF15F0000E5D
:102BD800046E200E036E11C005F027EC14F0174A9E
:102BE800182A1450175C1850800A166E1550800A5F
:102BF8001658D8A002EF16F004EF16F0EBEF15F018
:102C08000001D4B10AEF16F00CEF16F014EF16F02D
:102C180012C00BF013C00CF011C00DF040EC19F00D
:102C28001200A60E046EFF0E056E8CEC18F03EEF37
:102C380016F082BA22EF16F024EF16F03CEF16F0E9
:102C4800680E0B6EE40EE82EFED70B2EFCD700D0D4
:102C580082BA31EF16F033EF16F03CEF16F0F3ECD2
:102C680019F0B3EC19F00001F869F96947EF16F0AB
:102C780002EC1AF00001D551D8B445EF16F047EF31
:102C880016F01DEF16F00EEC1AF0010E066E020E8D
:102C98002DEC18F0DB0E066EFF0E076EE7EC16F053
:102CA800000E066E020E076EE7EC16F00001D76BF9
:102CB800D56B1200D60E046EFF0E056E8CEC18F064
:102CC80087EF16F082BA6BEF16F06DEF16F085EF0E
:102CD80016F0680E0B6EE40EE82EFED70B2EFCD70E
:102CE80000D082BA7AEF16F07CEF16F085EF16F076
:102CF800F3EC19F0B3EC19F00001F869F96990EFF9
:102D080016F002EC1AF00001D551D8B48EEF16F087
:102D180090EF16F066EF16F00EEC1AF0010E066E44
:102D2800010E2DEC18F0E80E066EFF0E076EE7ECAC
:102D380016F0000E066E020E076EE7EC16F00001A4
:102D4800D76BD56B120095948C9495968C96959824
:102D58008C98959A8C9A959C8C9C959E8C9E020E2C
:102D6800086E380E076EAD0EE82EFED7072EFCD77C
:102D7800082EFAD700008C9E8C9C8C8A8C8845EC97
:102D88001AF0200E076E2A0EE82EFED7072EFCD763
:102D980045EC1AF0C80EE82EFED745EC1AF08C9ECA
:102DA8008C9C8C8A8C9845EC1AF0280EF9EC0FF064
:102DB8000001FB51F9EC0FF00001FA51F9EC0FF0AA
:102DC800F3EC19F012000A6A04EF17F00A5006240F
:102DD800086E000E0720096E08C0F6FF09C0F7FF4D
:102DE800000EF86E0F0EF76403D00800F55005D0FA
:102DF800F6CFE9FFF7CFEAFFEF507BEC0FF00A2A96
:102E08000A500624086E000E0720096E08C0F6FF57
:102E180009C0F7FF000EF86E0F0EF76403D0080024
:102E2800F55005D0F6CFE9FFF7CFEAFFEF500009DC
:102E3800D8A421EF17F023EF17F0EAEF16F01200ED
:102E4800000E096E000E086E05500610D8B42FEF5C
:102E580017F031EF17F059EF17F0010E076E39EF41
:102E680017F0D89005360636072A06AE3EEF17F05B
:102E780040EF17F035EF17F0D890083609360550AF
:102E8800035C06500458D8A04CEF17F04EEF17F02B
:102E980053EF17F00550035E0650045A0880D89087
:102EA80006320532072E40EF17F008C003F009C0BC
:102EB80004F01200000E0B6E000E0C6E000E0D6E6C
:102EC800000E0E6E03A06BEF17F06DEF17F075EFA5
:102ED80017F007500B2608500C2209500D220A50F3
:102EE8000E22D8900736083609360A36D8900632A8
:102EF8000532043203320350041005100610D8A41A
:102F080088EF17F08AEF17F066EF17F00BC003F0A1
:102F18000CC004F00DC005F00EC006F01200B5EFAD
:102F280017F0200E10181110D8B49DEF17F09FEF6E
:102F380017F0B5EF17F010C00FF0F70E0F26040EBC
:102F48000F64A9EF17F0ABEF17F0B5EF17F010C04B
:102F580003F011C004F00EC005F07CEC15F0C7EFCB
:102F680017F00EC005F079EC0EF005C010F006C0A1
:102F780011F0102806E11128D8A4C5EF17F0C7EF03
:102F880017F095EF17F01200700ED36EA7EC16F03D
:102F9800F3EC19F036EC1AF04BEC1AF0CAEC19F015
:102FA800290E0001AE6F960EAD6F7F0EE82EFED78C
:102FB800AD2FFCD7AE2FFAD79A0E046EFF0E056E12
:102FC8008CEC18F0020E0001AE6F040EAD6FBA0E55
:102FD800E82EFED7AD2FFCD7AE2FFAD7000023EC92
:102FE8000BF0FEEC07F0F3EF17F06EEF00F0055072
:102FF8000610D8B402EF18F004EF18F028EF18F014
:10300800010E076E0CEF18F0D89005360636072A21
:1030180006AE11EF18F013EF18F008EF18F005508E
:10302800035C06500458D8A01CEF18F01EEF18F0E7
:1030380022EF18F00550035E0650045AD890063265
:103048000532072E13EF18F003C003F004C004F094
:103058001200076E0704D8A434EF18F036EF18F002
:1030680038EF18F07F0E0626020E0718D8A43FEF97
:1030780018F041EF18F043EF18F0BF0E0626030EC4
:103088000718D8A44AEF18F04CEF18F04EEF18F0D4
:10309800930E0626040E0718D8A455EF18F057EF1C
:1030A80018F059EF18F0D30E06260650F9EC0FF079
:1030B8001200A80EF66E340EF76E000EF86E00EED3
:1030C800F8F010EE04F00900F5CFEEFFE550E150FE
:1030D800FAE102EE00F011EE00F0EE6AE550E15080
:1030E800FCE1E250FAE101EE00F07C0EEE6AE8063F
:1030F800FDE100EEAFF0490EEE6AE806FDE15C6A1C
:103108005B6A5D905D92000EF86E0001C8EF17F0E3
:10311800000E096E000E086EA2EF18F00850042485
:10312800066E09500520076E06C0F6FF07C0F7FFB8
:103138000800F5501AEC1AF0084A092A0850042425
:10314800066E09500520076E06C0F6FF07C0F7FF98
:103158000800F5500009D8A4B4EF18F0B6EF18F03D
:1031680092EF18F0120003C0D9FF04C0DAFF05502F
:10317800DE18D8A4C2EF18F0C4EF18F0CAEF18F0A0
:1031880003C003F004C004F0DCEF18F003C0D9FF5B
:1031980004C0DAFF034A042ADF50D8A4D6EF18F097
:1031A800D8EF18F0B7EF18F0000E036E000E046E9B
:1031B8001200890E00018F6F85C090F086C091F0D3
:1031C800000E936F000E926F000E986F000E976FAF
:1031D800900E7B6F87C07CF088C07DF08F0E7E6F6D
:1031E800A4EC12F07BC08DF07CC08EF08DC085F011
:1031F8008EC086F0120033C036F034C037F00DEFC1
:1032080019F032C025F0360E266E35C027F027ECAF
:1032180009F036C0F6FF37C0F7FF0800F55000097F
:10322800D8A419EF19F01BEF19F005EF19F0000EEB
:10323800336E000E326E12003C0E426E38C043F000
:1032480039C044F0000E466E000E456E000E4D6EFD
:10325800000E4C6E430E326E3AC033F03BC034F071
:10326800420E356EFFEC18F045503824D96E4650A2
:103278003920DA6EDF6A1200000E106E000E0F6E33
:103288004FEF19F00EC003F0046A0DC005F027ECEB
:1032980014F00F4A102A0F500B24D96E10500C202E
:1032A800DA6EDF500E6E0E50D8A45DEF19F05FEFA6
:1032B80019F046EF19F0120003C005F004C006F03B
:1032C80068EF19F0034A042A03C0F6FF04C0F7FFA9
:1032D8000800F5500009D8A474EF19F076EF19F03A
:1032E80066EF19F00550035C036E06500458046E2F
:1032F8001200040E066E010E2DEC18F0420E066E3A
:10330800FF0E076EE7EC16F0050E066E020E2DECAA
:1033180018F0410E066EFF0E076EE7EC16F05EEC35
:1033280016F015EC16F01200C282C2B29EEF19F028
:10333800A0EF19F099EF19F0340E056EF20EE82E91
:10334800FED7052EFCD7C350C4CF05F0066A05C0CA
:1033580006F0056A0510036E0650046E1200010E91
:10336800066E010E2DEC18F0D10E066EFE0E076EDD
:10337800E7EC16F0010E066E020E2DEC18F0F30EB7
:10338800066EFE0E076EE7EC16F012000F013A6BA0
:10339800949C948EAC8AAC9CAC98AC84B886010E94
:1033A800B06EA00EAF6EB898B89AAB8EAB88AB9CD7
:1033B8009D8AF28CF28E1200066E0650D8B4E7EFA2
:1033C80019F0E9EF19F0EDEF19F00001FB81EFEFCB
:1033D80019F00001FB91FB51F9EC0FF01200010EFE
:1033E800F9EC0FF00C0E066EA20EE82EFED7062E94
:1033F800FCD70001FA51F9EC0FF01200100E066E1E
:10340800010E2DEC18F0FD0E066EFF0E076EE7ECB0
:1034180016F01200100E066E010E2DEC18F0FB0EC1
:10342800066EFF0E076EE7EC16F01200036EACA2F4
:1034380020EF1AF022EF1AF01BEF1AF003C0ADFFCD
:103448001200BD86BD94BD82BD80C30EBF6E500EF6
:10345800BE6E1200CD8ACD88CD96CD84CD9ECD9CF2
:10346800CD80120093880F013999948A3A9B9280F3
:1034780038811200CBEC0CF0ECEC10F061EC0DF0A4
:1034880012008C86500EE82EFED78C961200010E84
:10349800C26EC16AAA0EC06E1200036804681200E8
:0634A800FFFF060C1200FC
:10FE8C00004F42444949204E6F7420466F756E6492
:10FE9C0020003E3E3E204F42444949504943203CBD
:10FEAC003C3C00592F4E203C3C3C3C3C3C3C3C3CBC
:10FEBC003C3C3C003D3D3D3D3D3D3D3D3D3D3D3DA6
:10FECC003D3D3D3D004D454E5520203C4F42444963
:10FEDC00495049433E003C4F4244494920446574D3
:10FEEC0065637465643E004C524D2044544320437A
:10FEFC00444320445349004E6F7468696E67204335
:10FF0C006C656172656400445443277320526571BB
:10FF1C00756573746564003E3E3E3E2056312E304E
:10FF2C00203C3C3C3C00436C65617220436F646533
:10FF3C002873293F00202020202020202020202052
:10FF4C0020200044544328732920466F756E643A70
:10FF5C0000436F64657320436C6561726564004E89
:10FF6C006F204454437320466F756E64004C6F6170
:10FF7C0064696E672E2E2E00546F204D656E752EA3
:10FF8C002E2E00256325303158253032580041542F
:10FF9C0045300D0041544C300D00303130380D00DF
:10FFAC00303130430D00303130460D004154525643
:10FFBC000D0034312030430034312030460056429D
:10FFCC00617474002578202578004154490D005344
:10FFDC0041453A0030330D0030340D004F533A0098
:10FFEC004E2F410052504D00414954002575005E82
:04FFFC00007E000083
:020000040030CA
:0E000000FF380E3CFFBF85FF0FC00FE00F4022
:00000001FF
