:0400000069EF00F0B4
:100008005282D9CF01F0DACF02F09DAA0EEF00F0AC
:1000180010EF00F063EF00F09EAA15EF00F017EF65
:1000280000F063EF00F0AECF4EF0ABA21EEF00F091
:1000380020EF00F022EF00F0AB98AB881F0E4E6463
:1000480028EF00F02AEF00F042EF00F07F0E4E603C
:1000580030EF00F032EF00F042EF00F03E0E4E18A5
:10006800D8B439EF00F03BEF00F042EF00F04F500A
:10007800800FD96EDA6A4EC0DFFF4F2A3E0E4E1847
:10008800D8B449EF00F04BEF00F05CEF00F00A0E37
:100098004E18D8B452EF00F054EF00F05CEF00F0C7
:1000A8001E0E4F645AEF00F05CEF00F063EF00F0B3
:1000B8004F50800FD96EDA6ADF6A010E4D6E02C0AA
:0E00C800DAFF01C0D9FF529211007EEF0CF05A
:1010000000415445300D00303130430D0041545201
:10101000560D00202020202000564261747400529A
:07102000504D002575000092
:101028000C50D96EDA6ADFCFF6FF100EF76E0800A3
:10103800F550250AD8A423EF08F025EF08F0B7EFFC
:1010480008F00C50D96EDA6ADF2A000E496E000EDD
:10105800486E48C04CF04A684B680C50D96EDA6A42
:10106800DF50136E13C0F6FF100EF76E0800F55030
:10107800750AD8A442EF08F044EF08F0B1EF08F081
:101088000D50D96EDA6A020EDF26DF5CD96EDA6A95
:10109800DECF0FF0DECF10F00C50D96EDA6A1328CD
:1010A800DF6EA5EF08F0200E146E14061450600FC2
:1010B800D96EDA6A0FC003F010C004F0000E066E95
:1010C8000A0E056ECAEC0BF00350300FDF6E0FC02E
:1010D80003F010C004F0000E066E0A0E056E90ECC8
:1010E8000BF003C00FF004C010F00F501010D8B46C
:1010F80080EF08F082EF08F09AEF08F01450D8A4B7
:1011080088EF08F08AEF08F059EF08F09AEF08F036
:101118001450600FD96EDA6ADF500E6E0E50036EEF
:10112800046A0BC005F043EC0AF0142A200E1418C8
:10113800D8A4A1EF08F0A3EF08F08CEF08F0C8EFEF
:1011480008F013C0F6FF100EF76E0800F550750A88
:10115800D8B457EF08F0B1EF08F00C50D96EDA6A3E
:10116800DF2AC8EF08F00C50D96EDA6ADFCFF6FF35
:10117800100EF76E0800F550036E046A0BC005F0F8
:1011880043EC0AF0B1EF08F01200070E046E59ECB8
:101198000CF04D50D8B4D3EF08F0D5EF08F0CDEFF0
:1011A80008F00001845198EC0AF0296E2A6A293A5D
:1011B8002A3AF00E2A1629500F0B2A12F00E291679
:1011C8000001855198EC0AF02B6E2B5029103C6ECB
:1011D8002A503D6E0001865198EC0AF0296E2A6A61
:1011E800293A2A3AF00E2A1629500F0B2A12F00E25
:1011F80029160001875198EC0AF02B6E2B50291004
:101208003E6E2A503F6E3C502A6E296A3E5029266F
:101218003F502A22D8902A322932D8902A322932AD
:1012280029C040F02AC041F02C0E196E230E1A6E08
:1012380040C01BF041C01CF0BCEC0CF0010E066E67
:10124800010EFCEC0BF01F0E066E0650D8A4100E13
:10125800076E53EC0BF0010E066E020EFCEC0BF061
:101268002C0E066E076A53EC0BF04F6A4D6A0B0E94
:101278002A6E260E296E5E0EE82EFED7292EFCD782
:101288002A2EFAD71200056E8C84036A05AE01D0A7
:10129800032A010E0316033203328C5003187F0B06
:1012A80003188C6E05C003F0060E046ED890033246
:1012B800042E5AEF09F0010E0316033A03460346BB
:1012C8008C500318BF0B03188C6E05C003F0050E75
:1012D800046ED8900332042E6DEF09F0010E031648
:1012E800033A03468C500318DF0B03188C6E05C0B5
:1012F80003F0033A0F0E0316010E0316033A8C503F
:101308000318EF0B03188C6E05EC0DF005C003F005
:10131800D8900332D8900332D8900332010E0316C6
:10132800033203328C5003187F0B03188C6E05C0F0
:1013380003F0D8900332D8900332010E0316033A13
:10134800034603468C500318BF0B03188C6E05C068
:1013580003F0D8900332010E0316033A03468C506B
:101368000318DF0B03188C6E05C003F0010E03167B
:10137800033A8C500318EF0B03188C6E05EC0DF034
:101388001200056E8C94036A05AE01D0032A010E83
:101398000316033203328C5003187F0B03188C6E2C
:1013A80005C003F0060E046ED8900332042ED8EF61
:1013B80009F0010E0316033A034603468C5003183E
:1013C800BF0B03188C6E05C003F0050E046ED89091
:1013D8000332042EEBEF09F0010E0316033A03461D
:1013E8008C500318DF0B03188C6E05C003F0033A0A
:1013F8000F0E0316010E0316033A8C500318EF0B59
:1014080003188C6E05EC0DF005C003F0D89003327C
:10141800D8900332D8900332010E031603320332F8
:101428008C5003187F0B03188C6E05C003F0D890FE
:101438000332D8900332010E0316033A03460346DB
:101448008C500318BF0B03188C6E05C003F0D8909E
:101458000332010E0316033A03468C500318DF0BC0
:1014680003188C6E05C003F0010E0316033A8C5066
:101478000318EF0B03188C6E05EC0DF012000550E5
:10148800D8B449EF0AF04BEF0AF053EF0AF00550D1
:10149800D8A451EF0AF053EF0AF058EF0AF00350BE
:1014A8000CEC0DF097EF0AF00550D96EDA6A090EC8
:1014B800D926DE50DE10D8B464EF0AF066EF0AF0E1
:1014C8007FEF0AF00550D96EDA6A090ED926055061
:1014D800E16EE26A020EE126DE50E65CE650800A22
:1014E8000A6EDE50800A0A58D8B07DEF0AF07FEF06
:1014F8000AF097EF0AF00550D96EDA6A020ED9267B
:10150800DF50066E0550D96EDA6ADF500624D96EB0
:10151800DA6A03C0DFFF0550D96EDA6A020ED926EF
:10152800DE2A000EDD221200036E2F0E03649FEFE9
:101538000AF0A1EF0AF0ADEF0AF03A0E0360A7EF48
:101548000AF0A9EF0AF0ADEF0AF00350D00FD6EF7A
:101558000AF0400E0364B3EF0AF0B5EF0AF0C1EFEA
:101568000AF0470E0360BBEF0AF0BDEF0AF0C1EFC7
:101578000AF00350C90FD6EF0AF0600E0364C7EFF4
:101588000AF0C9EF0AF0D5EF0AF0670E0360CFEF53
:101598000AF0D1EF0AF0D5EF0AF00350A90FD6EF01
:1015A8000AF0000E12000D0E046E59EC0CF04D50AE
:1015B800D8B4E1EF0AF0E3EF0AF0DBEF0AF0070E28
:1015C800066E010EFCEC0BF0190E066E0650D8A440
:1015D800100E076E53EC0BF0070E066E020EFCECB5
:1015E8000BF0800E066E076A53EC0BF00C0E066EBD
:1015F800020EFCEC0BF0130E066E0650D8A4100E6B
:10160800076E53EC0BF04F6A4D6A0B0E0C6E260EEC
:101618000B6E5E0EE82EFED70B2EFCD70C2EFAD7DB
:10162800120095948C9495968C9695988C98959A8A
:101638008C9A959C8C9C959E8C9E020E086E380EFA
:10164800076EAD0EE82EFED7072EFCD7082EFAD768
:1016580000008C9E8C9C8C8A8C8805EC0DF0200EEA
:10166800076E2A0EE82EFED7072EFCD705EC0DF0E4
:10167800C80EE82EFED705EC0DF08C9E8C9C8C8A4B
:101688008C9805EC0DF0280EC5EC09F05150C5EC0E
:1016980009F05050C5EC09F0ECEC0CF012000A6AA5
:1016A80070EF0BF00A500624086E000E0720096E32
:1016B80008C0F6FF09C0F7FF000EF86E0F0EF764BA
:1016C80003D00800F55005D0F6CFE9FFF7CFEAFFC1
:1016D800EF5047EC09F00A2A0A500624086E000E5B
:1016E8000720096E08C0F6FF09C0F7FF000EF86E64
:1016F8000F0EF76403D00800F55005D0F6CFE9FFC8
:10170800F7CFEAFFEF500009D8A48DEF0BF08FEF69
:101718000BF056EF0BF01200000E086E000E076E6D
:1017280005500610D8B49BEF0BF09DEF0BF0C5EFFA
:101738000BF0010E096EA5EF0BF0D89005360636B2
:10174800092A06AEAAEF0BF0ACEF0BF0A1EF0BF0F5
:10175800D890073608360550035C06500458D8A0C0
:10176800B8EF0BF0BAEF0BF0BFEF0BF00550035ECC
:101778000650045A0780D89006320532092EACEF7D
:101788000BF007C003F008C004F012000550061063
:10179800D8B4D1EF0BF0D3EF0BF0F7EF0BF0010E4D
:1017A800076EDBEF0BF0D89005360636072A06AE33
:1017B800E0EF0BF0E2EF0BF0D7EF0BF00550035C16
:1017C80006500458D8A0EBEF0BF0EDEF0BF0F1EF5B
:1017D8000BF00550035E0650045AD89006320532C5
:1017E800072EE2EF0BF003C003F004C004F0120070
:1017F800076E0704D8A403EF0CF005EF0CF007EF11
:101808000CF07F0E0626020E0718D8A40EEF0CF077
:1018180010EF0CF012EF0CF0BF0E0626030E07189F
:10182800D8A419EF0CF01BEF0CF01DEF0CF0930E81
:101838000626040E0718D8A424EF0CF026EF0CF0A7
:1018480028EF0CF0D30E06260650C5EC09F012005E
:10185800700ED36E15EC0BF0ECEC0CF0D6EC0CF033
:10186800290E436E960E426E7F0EE82EFED7422E4C
:10187800FCD7432EFAD70000010E046E59EC0CF089
:101888000B0E436E260E426E5E0EE82EFED7422EDB
:10189800FCD7432EFAD7ECEC0CF0C9EC08F0D7ECE7
:1018A8000AF051EF0CF069EF00F0000E076E000E21
:1018B800066E6CEF0CF004500624056E05C0F6FFAA
:1018C800100EF76E0800F550FAEC0CF0064A072ADD
:1018D80004500624056E05C0F6FF100EF76E0800CA
:1018E800F5500009D8A47BEF0CF07DEF0CF05FEF0A
:1018F8000CF01200160EF66E1A0EF76E000EF86E49
:101908000900F5CF50F00900F5CF51F000EE60F076
:10191800400EEE6AE806FDE100EE44F00C0EEE6AB9
:10192800E806FDE152905292000EF86E00012CEF8D
:101938000CF016C018F0A9EF0CF015C00BF0180E3B
:101948000C6E17C00DF014EC08F018C0F6FF100E5E
:10195800F76E0800F5500009D8A4B5EF0CF0B7EF02
:101968000CF0A1EF0CF0000E166E000E156E1200B2
:101978001B0E1D6E19C01EF0000E216E000E206E8B
:10198800000E286E000E276E1E0E156E1AC016F079
:101998001D0E176E9DEC0CF019502024D96EDA6AD2
:1019A800DF6A12000F013A6B949C948EAC8AAC9C4F
:1019B800AC98AC84B886010EB06EA00EAF6EB89825
:1019C800B89AAB8EAB88AB9C9D8AF28CF28E1200D3
:1019D800010EC5EC09F00C0E066EA20EE82EFED71D
:1019E800062EFCD75050C5EC09F01200036EACA2CD
:1019F80000EF0DF002EF0DF0FBEF0CF003C0ADFFB0
:101A080012008C86500EE82EFED78C961200060C1B
:021A18001200BA
:020000040030CA
:0E000000FF380E3CFFBF85FF0FC00FE00F4022
:00000001FF
