:0400000070EF00F0AD
:100008005D82D9CF01F0DACF02F09DAA0EEF00F0A1
:1000180010EF00F06AEF00F09EAA15EF00F017EF5E
:1000280000F06AEF00F0AECF5CF0ABA21EEF00F07C
:1000380020EF00F022EF00F0AB98AB881F0E5C6455
:1000480028EF00F02AEF00F045EF00F07F0E5C602B
:1000580030EF00F032EF00F045EF00F03E0E5C1894
:10006800D8B439EF00F03BEF00F045EF00F0000E98
:100078000001CB25D96EDA6A020EDA225CC0DFFFF6
:10008800CB2B3E0E5C18D8B44CEF00F04EEF00F0CE
:1000980060EF00F00A0E5C18D8B455EF00F057EF87
:1000A80000F060EF00F00001CB29D8A45EEF00F06B
:1000B80060EF00F06AEF00F0000E0001CB25D96E6A
:1000C800DA6A020EDA22DF6A010E5B6E02C0DAFF1C
:1000D80001C0D9FF5D9211000DEF15F03F6A20EEC7
:1000E80040F0070EDE6AE806FDE21BC048F01CC0BF
:1000F80049F01FBE8BEF00F01F5007E1250E1E5C74
:10010800D8B089EF00F08BEF00F094EF00F01E04F8
:100118001F10D8A492EF00F094EF00F09BEF00F0CE
:10012800000E0001B76F160EB66FFCEF02F04850D4
:100138004910D8B4A2EF00F0A4EF00F0FCEF02F0F1
:1001480048C0D9FF49C0DAFFDF50D8A4AEEF00F0AD
:10015800B0EF00F0B2EF00F0FCEF02F048C0D9FFBA
:1001680049C0DAFFDF504A6EC2EF00F0484A492A18
:1001780048C0D9FF49C0DAFFDF504A6E200E4A183E
:10018800D8B4C9EF00F0CBEF00F0BAEF00F04AC0E6
:1001980023F0F70E2326040E2364D5EF00F0D7EFE3
:1001A80000F0BAEF00F02D0E4A18D8A4DEEF00F0E8
:1001B800E0EF00F0EBEF00F03F80484A492A48C0E2
:1001C800D9FF49C0DAFFDF504A6EF6EF00F02B0E78
:1001D8004A18D8A4F2EF00F0F4EF00F0F6EF00F0C0
:1001E800E1EF00F0300E4A18D8A4FDEF00F0FFEF61
:1001F80000F098EF01F0484A492A48C0D9FF49C0A1
:10020800DAFFDF504A6E1E501F10D8B40EEF01F00F
:1002180010EF01F01AEF01F0100E1E181F10D8A4ED
:1002280018EF01F01AEF01F08AEF01F0780E4A1882
:10023800D8B421EF01F023EF01F02CEF01F0580EB4
:100248004A18D8A42AEF01F02CEF01F08AEF01F048
:10025800000E1F6E100E1E6E484A492A48C0D9FF6C
:1002680049C0DAFFDF504A6E4AC023F0200E23123D
:100278009F0E23261A0E236044EF01F046EF01F08B
:100288006AEF01F04AC023F09F0E2326190E23645B
:1002980050EF01F052EF01F057EF01F04AC033F090
:1002A800346A5EEF01F04AC023F05F0E2316235034
:1002B800336E346A33C023F0C90E2326100E236030
:1002C80068EF01F06AEF01F084EF01F04AC023F013
:1002D800200E23129F0E2326190E236476EF01F0B9
:1002E80078EF01F098EF01F04AC023F0D00E2326F2
:1002F800090E236482EF01F084EF01F098EF01F01A
:100308003F844806D8A04906FCEF02F03F841E50FF
:100318001F10D8A492EF01F094EF01F098EF01F0CC
:10032800000E1F6E080E1E6E1E501F10D8A49FEFE1
:1003380001F0A1EF01F0A5EF01F0000E1F6E0A0E0B
:100348001E6E2050D8B4ABEF01F0ADEF01F0D8EF3E
:1003580001F03FB0B2EF01F0B4EF01F0C6EF01F0E9
:10036800FF0E376EFF0E386EFF0E396EFF0E3A6EB7
:10037800FF0E3B6EFF0E3C6EFF0E3D6E7F0E3E6E17
:10038800E0EF01F0000E376E000E386E000E396E89
:10039800000E3A6E000E3B6E000E3C6E000E3D6E77
:1003A800800E3E6EE0EF01F03768386839683A68C9
:1003B8003B683C683D683E6840C02BF041C02CF06B
:1003C80042C02DF043C02EF044C02FF045C030F09D
:1003D80046C031F047C032F04AC023F0200E231245
:1003E8009F0E23261A0E2360FCEF01F0FEEF01F0AA
:1003F8001BEF02F04AC023F09F0E2326190E236438
:1004080008EF02F00AEF02F00FEF02F04AC035F0F1
:10041800366A16EF02F04AC023F05F0E2316235007
:10042800356E366A3550C90F4A6E29EF02F04AC058
:1004380023F0D00E23260A0E236025EF02F027EFC3
:1004480002F0E2EF02F0300E4A5E4A50236E246A50
:100458001E50235C2450800A256E1F50800A2558A0
:10046800D8A039EF02F03BEF02F03DEF02F0E2EFE7
:1004780002F03FB242EF02F044EF02F0D7EF02F091
:100488001EC003F01FC004F0000E04BEFF0E056E70
:10049800066E076E086E096E0A6E40C00BF041C00A
:1004A8000CF042C00DF043C00EF044C00FF045C040
:1004B80010F046C011F047C012F0E5EC11F003C08F
:1004C80023F004C024F005C025F006C026F007C0BC
:1004D80027F008C028F009C029F00AC02AF04A50BD
:1004E8002324406E000E2420416E000E2520426E0B
:1004F800000E2620436E000E2720446E000E282092
:10050800456E000E2920466E000E2A20476E2B509D
:10051800405C2C5041582D5042582E5043582F5073
:100528004458305045583150465832504758D8A052
:10053800A0EF02F0A2EF02F0C1EF02F02050D8B411
:10054800A8EF02F0AAEF02F0D7EF02F04050375CB4
:10055800415038584250395843503A5844503B5803
:1005680045503C5846503D5847503E58D8B0BFEFCC
:1005780002F0C1EF02F0D7EF02F037C040F038C008
:1005880041F039C042F03AC043F03BC044F03CC0AF
:1005980045F03DC046F03EC047F0000E0001B76F81
:1005A800220EB66F3F82484A492A48C0D9FF49C03F
:1005B800DAFFDF504A6E3F84E0EF01F03F50030B53
:1005C800E806D8A4EAEF02F0ECEF02F0FCEF02F044
:1005D800471E461E451E441E431E421E411E406CB9
:1005E800000E41224222432244224522462247222B
:1005F8001D50D8B402EF03F004EF03F016EF03F038
:100608003FB409EF03F00BEF03F00FEF03F01BC04B
:1006180048F01CC049F01D50D96EDA6A48C0DEFFA8
:1006280049C0DDFF40C01BF041C01CF042C01DF0B6
:1006380043C01EF044C01FF045C020F046C021F062
:1006480047C022F01200000E0001656F000E646FB3
:100658004BC00EF043EC14F00001B451B511D8A40E
:1006680038EF03F03AEF03F040EF03F0000E616F4C
:100678001F0E606F44EF03F0B4C060F0B5C061F0C6
:10068800000E676F000E666F54EF04F04BC005F064
:100698004AEC0DF005C068F006C069F00001682951
:1006A80006E16929D8A45BEF03F05DEF03F075EF6D
:1006B80003F0B451B511D8A464EF03F066EF03F06A
:1006C8006FEF03F066516711D8A46DEF03F06FEF79
:1006D80003F075EF03F068C04BF069C04CF0D9EF38
:1006E80004F02D0E68196911D8B47DEF03F07FEF7F
:1006F80003F089EF03F02B0E68196911D8A487EF6E
:1007080003F089EF03F0A0EF03F067BF94EF03F065
:10071800675108E16605D8A094EF03F096EF03F05F
:1007280048EF04F068C003F069C004F04BC005F05E
:1007380034EC12F06FEF04F0300E68196911D8A488
:10074800A8EF03F0AAEF03F0F8EF03F05C0E6625BC
:10075800D96E010E6721DA6E68C0DFFF664B672B22
:10076800B04BB12B4BC005F04AEC0DF005C068F05A
:1007780006C069F0580E000168196911D8B4C7EFAE
:1007880003F0C9EF03F0D3EF03F0780E681969118D
:10079800D8A4D1EF03F0D3EF03F0E4EF03F06451F2
:1007A8006511D8B4DAEF03F0DCEF03F0DEEF03F005
:1007B80096EF03F066C064F067C065F048EF04F098
:1007C800682908E16929D8B4ECEF03F0EEEF03F0EB
:1007D80054EF04F068C003F069C004F04BC005F0A2
:1007E80034EC12F054EF04F068C04DF0D00E4D26F2
:1007F800090E4D6402EF04F004EF04F048EF04F032
:1008080068C04DF0200E4D129F0E4D26050E4D640A
:1008180010EF04F012EF04F048EF04F0682908E143
:100828006929D8B41AEF04F01CEF04F024EF04F09F
:1008380068C003F069C004F04BC005F034EC12F056
:10084800000164516511D8B42CEF04F02EEF04F0C8
:100858006FEF04F0FF0E66254D6EFF0E67214E6E9A
:1008680064514D1807E165514E18D8A43EEF04F0C5
:1008780040EF04F06FEF04F06607D8A06707B007F1
:10088800D8A0B1076FEF04F05C0E6625D96E010E93
:100898006721DA6E68C0DFFF664B672BB04BB12B60
:1008A80000016051665D6751800A4D6E6151800A92
:1008B8004D58D8B062EF04F064EF04F06FEF04F025
:1008C800675109E11F0E665DD8A06DEF04F06FEF68
:1008D80004F04AEF03F05C0E00016625D96E010EA4
:1008E8006721DA6EDF6A5C0E1B6E010E1C6E620EEB
:1008F8001D6E000E1F6E100E1E6E000E206E72EC26
:1009080000F01BC04DF01CC04EF01DC04FF01EC0C3
:1009180050F01FC051F020C052F021C053F022C047
:1009280054F04C50D96EDA6A4DC0DEFF4EC0DEFF7F
:100938004FC0DEFF50C0DEFF51C0DEFF52C0DEFFF9
:1009480053C0DEFF54C0DEFF0001B651B711D8A472
:10095800B0EF04F0B2EF04F0D5EF04F06651671180
:10096800D8B4B9EF04F0BBEF04F0D5EF04F05C0E97
:10097800621909E1010E6319D8B4C5EF04F0C7EF95
:1009880004F0D5EF04F0C951D8B4CDEF04F0D0EF9E
:1009980004F0010ED1EF04F0000E4B6E4C6AD9EF53
:1009A80004F0FF0E4C6EFE0E4B6E120000016B51F0
:1009B800D96EDA6ADECFF6FFDDCFF7FF0800F55013
:1009C800250AD8A4EAEF04F0ECEF04F0B2EF05F042
:1009D8006B51D96EDA6ADE2A000EDD22000EB56F81
:1009E800000EB46FB451B511D8A4FDEF04F000EFB8
:1009F80005F0010E01EF05F0000EC96F6B51D96EBD
:100A0800DA6ADECFF6FFDDCFF7FF0800F550780A87
:100A1800D8B411EF05F013EF05F024EF05F06B5192
:100A2800D96EDA6ADECFF6FFDDCFF7FF0800F550A2
:100A3800580AD8A422EF05F024EF05F05AEF05F084
:100A48006B51D96EDA6ADE2A000EDD226AC04BF0DD
:100A5800710E4C6E27EC03F04BC06FF04CC070F079
:100A6800000170BF40EF05F0705108E16F05D8A094
:100A780040EF05F042EF05F054EF05F06CC0D9FFE8
:100A88006DC0DAFF020EDF26DF5CD96EDA6ADECFD0
:100A98006EF06E51D96EDA6A71C0DEFF72C0DDFF8A
:100AA8006FC06AF070C06BF067EF06F06B51D96EDB
:100AB800DA6ADECFF6FFDDCFF7FF0800F550250A2A
:100AC800D8A469EF05F06BEF05F0AAEF05F06AC04E
:100AD8000EF043EC14F06AC005F04AEC0DF005C0C6
:100AE80079F006C07AF0250E000179197A11D8A498
:100AF80080EF05F082EF05F091EF05F06B51D96EAC
:100B0800DA6ADE2A000EDD22B04BB12B000E00019E
:100B18006B6F000E6A6F67EF06F0792908E17A2992
:100B2800D8B499EF05F09BEF05F0A3EF05F079C075
:100B380003F07AC004F06AC005F034EC12F0FF0E3E
:100B480000016B6FFE0E6A6F67EF06F06B51D96E8E
:100B5800DA6ADE2A000EDD228AEF05F06AC005F0A7
:100B68004AEC0DF005C079F006C07AF000016B512F
:100B7800D96EDA6ADECFF6FFDDCFF7FF0800F55051
:100B8800200AD8B4CAEF05F0CCEF05F0E0EF05F085
:100B98006B51D96EDA6ADECFF6FFDDCFF7FF0800BA
:100BA800F5CF55F0F70E5526050E5560DEEF05F02A
:100BB800E0EF05F042EF06F06B51D96EDA6ADE2AF3
:100BC800000EDD226B51D96EDA6ADECFF6FFDDCF7B
:100BD800F7FF0800F550200AD8B4F5EF05F0F7EF55
:100BE80005F0E0EF05F06B51D96EDA6ADECFF6FF5B
:100BF800DDCFF7FF0800F5CF55F0F70E5526040EA8
:100C0800556409EF06F00BEF06F0E0EF05F017EF7B
:100C180006F0B04BB12B6AC005F04AEC0DF005C0E8
:100C280079F006C07AF0200E000179197A11D8B44B
:100C380020EF06F022EF06F00DEF06F079C055F030
:100C4800F70E5526040E55642CEF06F02EEF06F02D
:100C58000DEF06F0792908E17A29D8B436EF06F0C5
:100C680038EF06F08AEF05F079C003F07AC004F097
:100C78006AC005F034EC12F08AEF05F06B51D96EBA
:100C8800DA6ADECFF6FFDDCFF7FF0800F550556EC4
:100C9800566A7951551807E17A515618D8A457EF72
:100CA80006F059EF06F05BEF06F082EF05F07929C0
:100CB80006E17A29D8A463EF06F065EF06F09BEF0A
:100CC80005F06A696B69120090EC16F041EC16F0B9
:100CD80041EC16F026EC16F003C0C6F004C0C7F0CD
:100CE8000001C705D8B07BEF06F07DEF06F086EF70
:100CF80006F0000EED6F000EEC6F010E066E020E90
:100D0800DDEC14F00001C705D8A08DEF06F08FEFD9
:100D180006F0A1EF06F0020EC75DD8B096EF06F018
:100D280098EF06F0A1EF06F0000EED6F010EEC6FE4
:100D3800050E066E020EDDEC14F0020E0001C75D12
:100D4800D8A0A9EF06F0ABEF06F0BDEF06F0030E52
:100D5800C75DD8B0B2EF06F0B4EF06F0BDEF06F00D
:100D6800000EED6F020EEC6F090E066E020EDDEC42
:100D780014F0030E0001C75DD8A0C5EF06F0C7EF59
:100D880006F0D9EF06F0040EC75DD8B0CEEF06F036
:100D9800D0EF06F0D9EF06F0000EED6F030EEC6F02
:100DA8000D0E066E020EDDEC14F0010E6EEC16F060
:100DB80081B8E1EF06F0E3EF06F081EF07F0680E87
:100DC8000001A56FE40EE82EFED7A52FFCD7000082
:100DD80081B8F1EF06F0F3EF06F081EF07F0000EAF
:100DE8006EEC16F090EC16F062EF07F0DBEC16F004
:100DF80082BA01EF07F003EF07F0FAEF06F0680E8A
:100E08000001A56FE40EE82EFED7A52FFCD7000041
:100E180082BA11EF07F013EF07F0FAEF06F090EC43
:100E280016F041EC16F00001EC69ED6981EF07F06E
:100E38009FEC0BF082BA23EF07F025EF07F01CEFC9
:100E480007F0680E0001A56FE40EE82EFED7A52F67
:100E5800FCD7000082BA33EF07F035EF07F01CEF3C
:100E680007F013EF07F0050E0001A66F0F0EA56F30
:100E7800F10EE82EFED7A52FFCD7A62FFAD791ECB6
:100E880007F017EF07F081EC16F082BA4EEF07F083
:100E980050EF07F047EF07F0680E0001A56FE40E6A
:100EA800E82EFED7A52FFCD7000082BA5EEF07F028
:100EB80060EF07F047EF07F013EF07F0ECC0A5F07D
:100EC800EDC0A6F00001A651000AD8B46EEF07F0F5
:100ED80081EF07F0A551000AD8B4FAEF06F0010A2D
:100EE800D8B41CEF07F0030AD8B437EF07F0010AAB
:100EF800D8B447EF07F081EF07F0020E0001A66FA4
:100F0800040EA56FBA0EE82EFED7A52FFCD7A62F84
:100F1800FAD700006CEF06F01200000E0E6E000EFD
:100F28000D6E90EC16F0010E066E010EDDEC14F05D
:100F3800620E066EFF0E076E97EC13F0010E066E3A
:100F4800020EDDEC14F0EF0E066EFE0E076E97EC47
:100F580013F0010E6EEC16F026EC16F003C0C6F086
:100F680004C0C7F0020E0001C75DD8B0BEEF07F09D
:100F7800C0EF07F0C9EF07F0000E0E6E000E0D6E01
:100F8800010E066E020EDDEC14F0020E0001C75DC4
:100F9800D8A0D1EF07F0D3EF07F0E5EF07F0040E84
:100FA800C75DD8B0DAEF07F0DCEF07F0E5EF07F040
:100FB800000E0E6E010E0D6E030E066E020EDDECB7
:100FC80014F082BAEAEF07F0ECEF07F004EF08F04C
:100FD800680E0B6EE40EE82EFED70B2EFCD700D061
:100FE80082BAF9EF07F0FBEF07F004EF08F090EC96
:100FF80016F041EC16F00001EC69ED6989EF08F094
:1010080081B809EF08F00BEF08F0B0EF07F0680EB1
:101018000B6EE40EE82EFED70B2EFCD700D081B85D
:1010280018EF08F01AEF08F0B0EF07F073EF08F0C8
:10103800E00E046EFF0E056E3CEC15F026EF08F08E
:101048009FEC16F05B50D8B42CEF08F02EEF08F0A8
:1010580024EF08F0ABEC16F090EC16F0010E066EDB
:10106800010EDDEC14F0710E066EFF0E076E97ECA4
:1010780013F0010E066E020EDDEC14F07F0E066E04
:10108800FF0E076E97EC13F00001EC69ED69290E6D
:101098000C6E960E0B6E7F0EE82EFED70B2EFCD72D
:1010A8000C2EFAD7000089EF08F090EC16F0010E2C
:1010B800066E010EDDEC14F0430E066EFF0E076E91
:1010C80097EC13F0010E066E020EDDEC14F07F0EA5
:1010D800066EFF0E076E97EC13F048EF08F00DC090
:1010E8000BF00EC00CF00C50000AD8B47EEF08F0DC
:1010F80089EF08F00B50000AD8B41CEF08F0010A79
:10110800D8B459EF08F089EF08F01200000E1F6EEE
:10111800000E1E6E000E216E000E206E90EC16F072
:10112800010E066E010EDDEC14F0DE0E066EFE0EEC
:10113800076E97EC13F0010E066E020EDDEC14F04C
:10114800530E066EFF0E076E97EC13F09B0E046E9F
:10115800FF0E056E3CEC15F0C2EC16F0CBEC16F069
:10116800000E216E000E206E000E1F6E000E1E6E09
:101178009EA4C1EF08F0C3EF08F0F9EF08F09E94C1
:10118800CD80204A212A100E066E020EDDEC14F0E6
:1011980020C003F021C004F0000E066E0A0E056E92
:1011A800D4EC13F003C011F004C012F0136A146AEF
:1011B800010E156E40EC0AF020C003F021C004F0C7
:1011C800000E066E0A0E056EABEC14F00350041008
:1011D800D8A4F1EF08F0F3EF08F0F9EF08F0D70E14
:1011E800046EFF0E056E3CEC15F05B50D8B4FFEFB3
:1011F80008F001EF09F008EF09F0000E1F6E010E6C
:101208001E6E0001CB6B5B6A1E501F10D8B40FEF27
:1012180009F011EF09F01EEF09F0215009E1280E3D
:10122800205CD8A01AEF09F01CEF09F0BCEF08F019
:1012380041EF09F0000E216E000E206E010E066EC1
:10124800020EDDEC14F0CD0E066EFE0E076E97EC66
:1012580013F0D70E046EFF0E056E3CEC15F0020E6F
:101268001D6E040E1C6EBA0EE82EFED71C2EFCD77F
:101278001D2EFAD700D0BCEF08F090EC16F0010E46
:10128800066E010EDDEC14F0220E066EFF0E076EE0
:1012980097EC13F0010E066E020EDDEC14F0000E52
:1012A800066EFF0E076E97EC13F0520E1D6E2B0E96
:1012B8001C6E000EE82EFED71C2EFCD71D2EFAD76A
:1012C80000D0950E046EFF0E056E3CEC15F0020E74
:1012D8001D6E040E1C6EBA0EE82EFED71C2EFCD70F
:1012E8001D2EFAD700D012000C50D96EDA6ADECF64
:1012F800F6FFDDCFF7FF0800F550250AD8A487EFE1
:1013080009F089EF09F02EEF0AF00C50D96EDA6A6D
:10131800DE2A000EDD22000E0001B96F000EB86F44
:10132800B8C0CAF0BA69BB690C50D96EDA6ADECFA8
:1013380010F0DDCF11F010C0F6FF11C0F7FF080064
:10134800F550750AD8A4ABEF09F0ADEF09F026EF18
:101358000AF00D50D96EDA6A020EDF26DF5CD96E0C
:10136800DA6ADECF12F0DECF13F0010E10240E6E13
:10137800000E11200F6E0C50D96EDA6A0EC0DEFF17
:101388000FC0DDFF1AEF0AF0200E166E16063C0E8F
:101398001624D96EDA6A010EDA2212C003F013C0DD
:1013A80004F0000E066E0A0E056EABEC14F0035046
:1013B800300FDF6E12C003F013C004F0000E066E8B
:1013C8000A0E056ED4EC13F003C012F004C013F03B
:1013D80012501310D8B4F3EF09F0F5EF09F00FEF3E
:1013E8000AF01650D8A4FBEF09F0FDEF09F0CAEF98
:1013F80009F00FEF0AF03C0E1624D96EDA6A010ED6
:10140800DA22DF500E6E0E50036E046A0BC005F030
:1014180035EC11F0162A200E1618D8A416EF0AF08B
:1014280018EF0AF0FFEF09F03FEF0AF010C0F6FFDF
:1014380011C0F7FF0800F550750AD8B4C8EF09F0D5
:1014480026EF0AF00C50D96EDA6ADE2A000EDD2289
:101458003FEF0AF00C50D96EDA6ADECFF6FFDDCF27
:10146800F7FF0800F550036E046A0BC005F035EC71
:1014780011F026EF0AF01200176A14BE48EF0AF0BE
:1014880046EF0AF062EF0AF011C003F012C004F050
:1014980013C005F014C006F0FF0E076EFF0E086EAD
:1014A800FF0E096EFF0E0A6E0EEC14F003C011F069
:1014B80004C012F005C013F006C014F011C018F0F3
:1014C80012C019F013C01AF014C01BF0172A1BBE63
:1014D8007BEF0AF01B501A10191007E10A0E185C6E
:1014E800D8B079EF0AF07BEF0AF07DEF0AF099EFB8
:1014F8000AF018C003F019C004F01AC005F01BC0A8
:1015080006F00A0E076E000E086E000E096E000E39
:101518000A6EC5EC0CF003C018F004C019F005C041
:101528001AF006C01BF06AEF0AF01550175CD8A035
:10153800A0EF0AF0A2EF0AF0A4EF0AF0AAEF0AF06F
:10154800200ECBEC0DF0150699EF0AF011C018F03B
:1015580012C019F013C01AF014C01BF0010E166E59
:10156800D1EF0AF018C003F019C004F01AC005F052
:101578001BC006F00A0E076E000E086E000E096EFC
:10158800000E0A6EC5EC0CF003C018F004C019F088
:1015980005C01AF006C01BF0162A1750165CD8A012
:1015A800D8EF0AF0DAEF0AF0B6EF0AF018C003F045
:1015B80019C004F01AC005F01BC006F00A0E076E29
:1015C800000E086E000E096E000E0A6EC7EC0EF0D3
:1015D8000350300FCBEC0DF017061750D8A4F7EFD7
:1015E8000AF0F9EF0AF0AAEF0AF01200000E036EF3
:1015F800020E046E000E066E000E056E010E086ED9
:10160800000E076E0AEC16F00001CB6B5B6AA10EA8
:10161800046EFF0E056E3CEC15F034EF0BF082BA49
:1016280018EF0BF01AEF0BF032EF0BF0680E576E55
:10163800E40EE82EFED7572EFCD700D082BA27EF4B
:101648000BF029EF0BF032EF0BF090EC16F041ECB9
:1016580016F00001EC69ED699EEF0BF09FEC16F0B7
:101668005B50D8B43AEF0BF03CEF0BF013EF0BF0F4
:10167800ABEC16F0596A5A6ABF0E00019B6FFF0E59
:101688009C6F590E9D6F5A0E9E6F92EC11F00009D7
:10169800D8B451EF0BF053EF0BF06AEF0BF05A5040
:1016A80059C057F0586A57C058F0576A5710036E18
:1016B8005850046E000E066E040E056E74EC10F0A1
:1016C80003C0C0F004C0C1F06FEF0BF0000E0001C2
:1016D800C16F000EC06FDC0E1D6EF70E1E6EFF0E82
:1016E8001F6EC0C020F0C1C021F0D0EC15F0010E73
:1016F800066E020EDDEC14F0B90E066EFF0E076ED4
:1017080097EC13F0010E066E010EDDEC14F0EC0EF2
:10171800066EFF0E076E97EC13F0010E066E020EB2
:10172800DDEC14F0DC0E066E076A97EC13F000018E
:10173800CB6B5B6A12000001CB6B5B6A000E036E19
:10174800020E046E000E066E000E056E010E086E87
:10175800000E076E0AEC16F0DC0E046EFF0E056E26
:101768003CEC15F0BAEF0BF09FEC16F05B50D8B4D8
:10177800C0EF0BF0C2EF0BF0B8EF0BF0ABEC16F0CC
:1017880090EC16F0010E066E010EDDEC14F08A0ED8
:10179800066EFF0E076E97EC13F0010E066E020E32
:1017A800DDEC14F0000E0D6E000E0C6E16EF0CF052
:1017B800000E0C24D96E020E0D20DA6E0D0EDE1806
:1017C800D8B4E9EF0BF0EBEF0BF032EF0CF0000EB2
:1017D8000C24D96E020E0D20DA6E0A0EDE18D8B46B
:1017E800F8EF0BF0FAEF0BF032EF0CF0000E0C24D0
:1017F800D96E020E0D20DA6E3E0EDE18D8A407EF61
:101808000CF009EF0CF00BEF0CF032EF0CF0000EBF
:101818000C24D96E020E0D20DA6EDF50EEEC16F0B5
:101828000C4A0D2A0DBE24EF0CF00D5007E1100EE6
:101838000C5CD8B022EF0CF024EF0CF032EF0CF077
:10184800000E0C24D96E020E0D20DA6EDF50D8A4DB
:1018580030EF0CF032EF0CF0DCEF0BF00001CB6B4B
:101868005B6A1200A70E046EFF0E056E3CEC15F0C5
:1018780060EF0CF082BA43EF0CF045EF0CF05EEF2E
:101888000CF0680E00019E6FE40EE82EFED79E2F26
:10189800FCD7000082BA53EF0CF055EF0CF05EEF66
:1018A8000CF090EC16F041EC16F00001EC69ED69D3
:1018B800C4EF0CF09FEC16F05B50D8B466EF0CF058
:1018C80068EF0CF03EEF0CF0ABEC16F000019F6BEC
:1018D800C50E9B6FFF0E9C6F9F0E9D6F12EC13F051
:1018E8000009D8B47AEF0CF07CEF0CF085EF0CF01F
:1018F800D80E00019F25BC6FBD6BFF0EBD238AEF7C
:101908000CF0000E0001BD6F000EBC6FCC0E1D6EFA
:10191800F70E1E6EFF0E1F6EBCC020F0BDC021F07A
:10192800D0EC15F00D0E066E020EDDEC14F0BB0EB9
:10193800066EFF0E076E97EC13F00D0E066E010E85
:10194800DDEC14F0F00E066EFF0E076E97EC13F048
:101958000D0E066E020EDDEC14F0CC0E066E076A54
:1019680097EC13F00F0E066E020EDDEC14F0C30EAA
:10197800066EFF0E076E97EC13F00001CB6B5B6AE7
:1019880012000C6A0ABECDEF0CF0CBEF0CF0D7EFCB
:101998000CF00A1E091E081E076C000E08220922F8
:1019A8000A22010E0C6E06BEDEEF0CF0DCEF0CF026
:1019B800E8EF0CF0061E051E041E036C000E042240
:1019C80005220622010E0C1A000E0D6E000E0E6E78
:1019D800000E0F6E000E106E0750081009100A1046
:1019E800D8B4F9EF0CF0FBEF0CF031EF0DF0010E6D
:1019F8000B6E05EF0DF0D8900736083609360A3613
:101A08000B2A0AAE0AEF0DF00CEF0DF0FFEF0CF009
:101A1800D8900D360E360F3610360750035C085036
:101A28000458095005580A500658D8A01EEF0DF062
:101A380020EF0DF029EF0DF00750035E0850045A0F
:101A48000950055A0A50065A0D80D8900A320932B0
:101A5800083207320B2E0CEF0DF00C50D8B437EFCC
:101A68000DF039EF0DF041EF0DF0101E0F1E0E1E98
:101A78000D6C000E0E220F2210220DC003F00EC0B6
:101A880004F00FC005F010C006F012000550D8A4ED
:101A980050EF0DF052EF0DF06FEF0DF00001C8514F
:101AA800D8A459EF0DF05BEF0DF063EF0DF0F3ECF8
:101AB80016F003C00CF004C00DF0C6EF0DF0C80717
:101AC800C851AD0FD96EDA6ADF50076E07500C6E39
:101AD8000D6AC6EF0DF00550D96EDA6A070ED926E1
:101AE800DE50DE10D8B47BEF0DF07DEF0DF096EFF1
:101AF8000DF00550D96EDA6A070ED926DE06000EFB
:101B0800DD5ADECF07F0DDCF08F005500724D96E87
:101B1800DA6A040ED926DF50096E09500C6E0D6A78
:101B2800C6EF0DF00550D96EDA6A020ED926DECF5F
:101B380007F0DDCF08F00550D96EDA6ADECF09F07C
:101B4800DDCF0AF007500924D96E08500A20DA6E52
:101B5800DF500B6E0B500C6E0D6A0C500D10D8A494
:101B6800B8EF0DF0BAEF0DF0BEEF0DF00C680D6890
:101B7800C6EF0DF00550D96EDA6A020ED926DE2AB4
:101B8800000EDD220CC005F00DC006F01200056E37
:101B98008C84036A05AE01D0032A010E03160332B2
:101BA80003328C5003187F0B03188C6E05C003F0AA
:101BB800060E046ED8900332042EDEEF0DF0010EEF
:101BC8000316033A034603468C500318BF0B031849
:101BD8008C6E05C003F0050E046ED8900332042EF7
:101BE800F1EF0DF0010E0316033A03468C5003186B
:101BF800DF0B03188C6E05C003F0033A0F0E0316B3
:101C0800010E0316033A8C500318EF0B03188C6E61
:101C1800E2EC16F005C003F0D8900332D8900332F6
:101C2800D8900332010E0316033203328C50031886
:101C38007F0B03188C6E05C003F0D8900332D89040
:101C48000332010E0316033A034603468C50031869
:101C5800BF0B03188C6E05C003F0D8900332010E39
:101C68000316033A03468C500318DF0B03188C6ED7
:101C780005C003F0010E0316033A8C500318EF0B4E
:101C880003188C6EE2EC16F01200056E8C94036A51
:101C980005AE01D0032A010E0316033203328C501D
:101CA80003187F0B03188C6E05C003F0060E046E34
:101CB800D8900332042E5CEF0EF0010E0316033A9F
:101CC800034603468C500318BF0B03188C6E05C0DF
:101CD80003F0050E046ED8900332042E6FEF0EF059
:101CE800010E0316033A03468C500318DF0B031842
:101CF8008C6E05C003F0033A0F0E0316010E03168F
:101D0800033A8C500318EF0B03188C6EE2EC16F0B4
:101D180005C003F0D8900332D8900332D89003322C
:101D2800010E0316033203328C5003187F0B03187D
:101D38008C6E05C003F0D8900332D8900332010EA0
:101D48000316033A034603468C500318BF0B0318C7
:101D58008C6E05C003F0D8900332010E0316033AC7
:101D680003468C500318DF0B03188C6E05C003F074
:101D7800010E0316033A8C500318EF0B03188C6EF0
:101D8800E2EC16F012000C6A06BECFEF0EF0CDEFB3
:101D98000EF0D9EF0EF0061E051E041E036C000E91
:101DA800042205220622010E0C6E0ABEE0EF0EF098
:101DB800DEEF0EF0E8EF0EF00A1E091E081E076C93
:101DC800000E082209220A220750081009100A10DA
:101DD800D8B4F1EF0EF0F3EF0EF023EF0FF0010E91
:101DE8000B6EFDEF0EF0D8900736083609360A3626
:101DF8000B2A0AAE02EF0FF004EF0FF0F7EF0EF028
:101E08000750035C08500458095005580A500658F2
:101E1800D8A011EF0FF013EF0FF01BEF0FF00750E2
:101E2800035E0850045A0950055A0A50065AD890B9
:101E38000A320932083207320B2E04EF0FF00C5029
:101E4800D8B429EF0FF02BEF0FF033EF0FF0061E89
:101E5800051E041E036C000E04220522062203C080
:101E680003F004C004F005C005F006C006F0120037
:101E7800B30E046EFF0E056E3CEC15F065EF0FF027
:101E880082BA49EF0FF04BEF0FF063EF0FF0680ED7
:101E98000B6EE40EE82EFED70B2EFCD700D082BACC
:101EA80058EF0FF05AEF0FF063EF0FF090EC16F0C9
:101EB80041EC16F00001EC69ED696DEF0FF09FEC55
:101EC80016F05B50D8B46BEF0FF06DEF0FF044EFE6
:101ED8000FF0ABEC16F0070E066E020EDDEC14F0F8
:101EE800B90E066EFF0E076E97EC13F0070E066E1E
:101EF800010EDDEC14F0CB0E066EFF0E076E97ECAC
:101F080013F0070E066E020EDDEC14F0000E036EE1
:101F1800020E046E000E066E560E056E67EC15F086
:101F280003500410D8A49BEF0FF09DEF0FF0A5EF1E
:101F38000FF0E80E066EFF0E076E97EC13F0ABEF8E
:101F48000FF0000E066E020E076E97EC13F00001FC
:101F5800CB6B5B6A12000706D8A00806072806E1C3
:101F68000828D8A4BAEF0FF0BCEF0FF0C9EF0FF0B4
:101F7800000E046E000E036E11EF10F0034A042ADF
:101F8800054A062A0706D8A0080603C0D9FF04C0D8
:101F9800DAFFDF50D8B4D3EF0FF0D5EF0FF000EF32
:101FA80010F005C0F6FF06C0F7FF0800F55000095D
:101FB800D8B4E1EF0FF0E3EF0FF000EF10F00750A7
:101FC8000810D8B4EAEF0FF0ECEF0FF000EF10F0C4
:101FD80003C0D9FF04C0DAFFDF50096E05C0F6FF61
:101FE80006C0F7FF0800F5500918D8B4FEEF0FF047
:101FF80000EF10F0C2EF0FF003C0D9FF04C0DAFF02
:10200800DF50096E05C0F6FF06C0F7FF0800F5505F
:10201800095C036E046AD8A0040612007CC083F031
:102028007DC084F0000E0001B16F000EB06FB0C02B
:10203800B2F0B1C0B3F0B6C07FF0B7C080F044EFE3
:1020480010F0000EB76F000EB66F7BC06AF0830EFB
:102058006B6F7EC06CF06D6BDAEC04F06AC081F0D7
:102068006BC082F0000182BF3EEF10F03CEF10F031
:1020780040EF10F052EF10F08151B2278251B32394
:1020880083C0F6FF84C0F7FF0800F5500009D8A404
:1020980050EF10F052EF10F025EF10F07FC0B6F0BF
:1020A80080C0B7F0812906E18229D8A45EEF10F03C
:1020B80060EF10F06FEF10F0B251B311D8A467EFD2
:1020C80010F069EF10F06FEF10F081C07BF082C064
:1020D8007CF073EF10F0B2C07BF0B3C07CF012005C
:1020E800086A06BE7CEF10F07AEF10F082EF10F06D
:1020F800056C061ED8B0062A010E086E04BE89EFCC
:1021080010F087EF10F08FEF10F0036C041ED8B0BA
:10211800042A010E081A000E0A6E000E096E0550F8
:102128000610D8B49AEF10F09CEF10F0C4EF10F03E
:10213800010E076EA4EF10F0D89005360636072A70
:1021480006AEA9EF10F0ABEF10F0A0EF10F0D890AA
:1021580009360A360550035C06500458D8A0B7EF74
:1021680010F0B9EF10F0BEEF10F00550035E065006
:10217800045A0980D89006320532072EABEF10F0CA
:102188000850D8B4CAEF10F0CCEF10F0D0EF10F030
:10219800096C0A1ED8B00A2A09C003F00AC004F064
:1021A80012000C500D10D8B4DCEF10F0DEEF10F078
:1021B80030EF11F00CC003F00DC004F0EDEC15F099
:1021C80003C00EF004C00FF01BEF11F00AC003F0BB
:1021D8000BC004F00CC005F00DC006F00EC007F0EF
:1021E8000FC008F0AFEC0FF003500410D8A4FFEFB5
:1021F80010F001EF11F007EF11F00AC00AF00BC060
:102208000BF034EF11F0010E0A24036E000E0B20C0
:10221800046E0CC0F6FF0DC0F7FF0800F550056E00
:10222800066A67EC15F003C00AF004C00BF00A5008
:102238000B10D8B422EF11F024EF11F030EF11F0A9
:102248000AC0D9FF0BC0DAFFDF50D8A42EEF11F077
:1022580030EF11F0EAEF10F0000E0A6E000E0B6E70
:1022680012000550D8B43BEF11F03DEF11F045EFE7
:1022780011F00550D8A443EF11F045EF11F04AEFE3
:1022880011F00350F8EC16F091EF11F00550D96EEB
:10229800DA6A090ED926DE50DE10D8B456EF11F0EE
:1022A80058EF11F071EF11F00550D96EDA6A090E86
:1022B800D9260550E16EE26A020EE126DE50E65CA0
:1022C800E650800A0A6EDE50800A0A58D8B06FEFCE
:1022D80011F071EF11F091EF11F00550D96EDA6A33
:1022E800020ED926DECF06F0DDCF07F00550D96EF5
:1022F800DA6ADECF08F0DDCF09F006500824D96E7F
:1023080007500920DA6E03C0DFFF0550D96EDA6A7C
:10231800020ED926DE2A000EDD221200000E0A6EF9
:10232800020E0B6E9BC00CF09CC00DF0D5EC10F0AB
:102338000AC09FF00BC0A0F000019F51A011D8B4B3
:10234800A8EF11F0AAEF11F0E3EF11F0000EA26F61
:10235800000EA16F000EA46F000EA36F9BC003F0C8
:102368009CC004F0EDEC15F0035000019F25856F2B
:102378000450A021866FD10E876FFF0E886FA10EC3
:10238800896F8A6BA30E8B6F8C6B8DEC15F0020E28
:10239800000185198611D8A4D4EF11F0D6EF11F0F9
:1023A800E3EF11F09D51D96EDA6AA1C0DFFF9E51AB
:1023B800D96EDA6AA3C0DFFF010EE4EF11F0000E58
:1023C800120020EE13F0070EDE6AE806FDE203A015
:1023D800F0EF11F0F2EF11F002EF12F00B501326AC
:1023E8000C5014220D5015220E5016220F50172291
:1023F800105018221150192212501A22D8900B3658
:102408000C360D360E360F36103611361236D89079
:102418000A320932083207320632053204320332F0
:1024280003500410051006100710081009100A10B0
:10243800D8A421EF12F023EF12F0EBEF11F013C044
:1024480003F014C004F015C005F016C006F017C05C
:1024580007F018C008F019C009F01AC00AF01200F5
:10246800032806E10428D8A43CEF12F03EEF12F04E
:1024780040EF12F081EF12F00550D8A446EF12F0A9
:1024880048EF12F05BEF12F0030E0001C819D8B440
:1024980050EF12F052EF12F081EF12F0C851AD0F69
:1024A800D96EDA6A03C0DFFFC82B81EF12F005503E
:1024B800D96EDA6A070ED926030EDE18DE10D8B4F4
:1024C80068EF12F06AEF12F081EF12F00550D96E42
:1024D800DA6A070ED926DF50066E05500624D96E33
:1024E800DA6A040ED92603C0DFFF0550D96EDA6A0E
:1024F800070ED926DE2A000EDD221200AD0E046E6C
:10250800FF0E056E3CEC15F0ABEF12F082BA8FEFC0
:1025180012F091EF12F0A9EF12F0680E0B6EE40EB4
:10252800E82EFED70B2EFCD700D082BA9EEF12F011
:10253800A0EF12F0A9EF12F090EC16F041EC16F0B3
:102548000001EC69ED69B3EF12F09FEC16F05B50F7
:10255800D8B4B1EF12F0B3EF12F08AEF12F0ABEC8F
:1025680016F0010E066E020EDDEC14F0F40E066E87
:10257800FF0E076E97EC13F0000E066E020E076E44
:1025880097EC13F00001CB6B5B6A1200D70E046E58
:10259800FF0E056E3CEC15F0F3EF12F082BAD7EFA0
:1025A80012F0D9EF12F0F1EF12F0680E0B6EE40E94
:1025B800E82EFED70B2EFCD700D082BAE6EF12F039
:1025C800E8EF12F0F1EF12F090EC16F041EC16F093
:1025D8000001EC69ED69FBEF12F09FEC16F05B501F
:1025E800D8B4F9EF12F0FBEF12F0D2EF12F0ABEC27
:1025F80016F0010E066E010EDDEC14F0E40E066E08
:10260800FF0E076E97EC13F0000E066E020E076EB3
:1026180097EC13F00001CB6B5B6A1200000E0A6E98
:10262800020E0B6E9BC00CF09CC00DF0D5EC10F0A8
:102638000AC057F00BC058F057505810D8B427EFBD
:1026480013F029EF13F055EF13F0000E5A6E000E39
:10265800596E9BC003F09CC004F0EDEC15F00350DC
:1026680057240001856F04505820866FD40E876F59
:10267800FF0E886F590E896F8A6B8DEC15F000017B
:1026880085058611D8A44BEF13F04DEF13F055EFE5
:1026980013F09D51D96EDA6A59C0DFFF010E56EF6B
:1026A80013F0000E120095948C9495968C9695983C
:1026B8008C98959A8C9A959C8C9C959E8C9E020ED3
:1026C800086E380E076EAD0EE82EFED7072EFCD723
:1026D800082EFAD700008C9E8C9C8C8A8C88E2ECA1
:1026E80016F0200E076E2A0EE82EFED7072EFCD70E
:1026F800E2EC16F0C80EE82EFED7E2EC16F08C9E3F
:102708008C9C8C8A8C98E2EC16F0280E49EC0EF022
:102718000001EF5149EC0EF00001EE5149EC0EF0CA
:1027280090EC16F012000A6AB4EF13F00A5006246F
:10273800086E000E0720096E08C0F6FF09C0F7FFF3
:10274800000EF86E0F0EF76403D00800F55005D0A0
:10275800F6CFE9FFF7CFEAFFEF50CBEC0DF00A2AEE
:102768000A500624086E000E0720096E08C0F6FFFE
:1027780009C0F7FF000EF86E0F0EF76403D00800CB
:10278800F55005D0F6CFE9FFF7CFEAFFEF50000983
:10279800D8A4D1EF13F0D3EF13F09AEF13F012008F
:1027A800000E096E000E086E05500610D8B4DFEF53
:1027B80013F0E1EF13F009EF14F0010E076EE9EFE3
:1027C80013F0D89005360636072A06AEEEEF13F05A
:1027D800F0EF13F0E5EF13F0D890083609360550FE
:1027E800035C06500458D8A0FCEF13F0FEEF13F07A
:1027F80003EF14F00550035E0650045A0880D89081
:1028080006320532072EF0EF13F008C003F009C0B6
:1028180004F01200000E0B6E000E0C6E000E0D6E12
:10282800000E0E6E03A01BEF14F01DEF14F025EF41
:1028380014F007500B2608500C2209500D220A509C
:102848000E22D8900736083609360A36D89006324E
:102858000532043203320350041005100610D8A4C0
:1028680038EF14F03AEF14F016EF14F00BC003F041
:102878000CC004F00DC005F00EC006F0120065EFA4
:1028880014F0200E10181110D8B44DEF14F04FEFBB
:1028980014F065EF14F010C00FF0F70E0F26040EB9
:1028A8000F6459EF14F05BEF14F065EF14F010C0EB
:1028B80003F011C004F00EC005F034EC12F077EF0D
:1028C80014F00EC005F04AEC0DF005C010F006C07B
:1028D80011F0102806E11128D8A475EF14F077EF4D
:1028E80014F045EF14F01200700ED36E57EC13F08D
:1028F80090EC16F0D3EC16F0E8EC16F058EC16F065
:10290800290E0001A86F960EA76F7F0EE82EFED73E
:10291800A72FFCD7A82FFAD7950E046EFF0E056EC9
:102928003CEC15F0020E0001A86F040EA76FBA0E5A
:10293800E82EFED7A72FFCD7A82FFAD700008AECDD
:1029480008F068EC06F0A3EF14F070EF00F0055003
:102958000610D8B4B2EF14F0B4EF14F0D8EF14F0B6
:10296800010E076EBCEF14F0D89005360636072A1C
:1029780006AEC1EF14F0C3EF14F0B8EF14F0055031
:10298800035C06500458D8A0CCEF14F0CEEF14F036
:10299800D2EF14F00550035E0650045AD890063260
:1029A8000532072EC3EF14F003C003F004C004F08F
:1029B8001200076E0704D8A4E4EF14F0E6EF14F051
:1029C800E8EF14F07F0E0626020E0718D8A4EFEFE2
:1029D80014F0F1EF14F0F3EF14F0BF0E0626030E17
:1029E8000718D8A4FAEF14F0FCEF14F0FEEF14F077
:1029F800930E0626040E0718D8A405EF15F007EF66
:102A080015F009EF15F0D30E0626065049EC0EF026
:102A18001200EC0EF66E2D0EF76E000EF86E00EE3C
:102A2800ECF010EE04F00900F5CFEEFFE550E150B0
:102A3800FAE102EE00F011EE00F0EE6AE550E15026
:102A4800FCE1E250FAE101EE00F07C0EEE6AE806E5
:102A5800FDE100EEA9F0430EEE6AE806FDE15C6ACE
:102A68005B6A5D905D92000EF86E000178EF14F0DD
:102A7800000E096E000E086E52EF15F0085004247F
:102A8800066E09500520076E06C0F6FF07C0F7FF5F
:102A98000800F550B7EC16F0084A092A0850042433
:102AA800066E09500520076E06C0F6FF07C0F7FF3F
:102AB8000800F5500009D8A464EF15F066EF15F08A
:102AC80042EF15F0120003C0D9FF04C0DAFF055029
:102AD800DE18D8A472EF15F074EF15F07AEF15F040
:102AE80003C003F004C004F08CEF15F003C0D9FF55
:102AF80004C0DAFF034A042ADF50D8A486EF15F091
:102B080088EF15F067EF15F0000E036E000E046EE7
:102B18001200890E00018F6F85C090F086C091F079
:102B2800000E936F000E926F000E986F000E976F55
:102B3800900E7B6F87C07CF088C07DF08F0E7E6F13
:102B480012EC10F07BC08DF07CC08EF08DC085F04B
:102B58008EC086F0120018C01BF019C01CF0BDEF23
:102B680015F017C00BF01B0E0C6E1AC00DF078ECA8
:102B780009F01BC0F6FF1CC0F7FF0800F55000095C
:102B8800D8A4C9EF15F0CBEF15F0B5EF15F0000E8E
:102B9800186E000E176E1200200E226E1DC023F054
:102BA800246A000E266E000E256E000E2D6E000E95
:102BB8002C6E230E176E1EC018F01FC019F0220EBF
:102BC8001A6EAFEC15F01D502524D96EDA6ADF6A4B
:102BD800120003C005F004C006F0F5EF15F0034A33
:102BE800042A03C0F6FF04C0F7FF0800F5500009E7
:102BF800D8A401EF16F003EF16F0F3EF15F0055027
:102C0800035C036E06500458046E120003C009F0FA
:102C180004C00AF018EF16F009C0D9FF0AC0DAFF9D
:102C280005C0DFFF094A0A2A0706D8A008060728B0
:102C380006E10828D8A423EF16F025EF16F010EFC8
:102C480016F01200C282C2B22CEF16F02EEF16F068
:102C580027EF16F0340E056EF20EE82EFED7052E7D
:102C6800FCD7C350C4CF05F0066A05C006F0056A54
:102C78000510036E0650046E1200010E066E010E5A
:102C8800DDEC14F0110E066EFF0E076E97EC13F0D4
:102C9800010E066E020EDDEC14F0330E066EFF0E0A
:102CA800076E97EC13F012000F013A6B949C948E08
:102CB800AC8AAC9CAC98AC84B886010EB06EA00E01
:102CC800AF6EB898B89AAB8EAB88AB9C9D8AF28CE5
:102CD800F28E1200066E0650D8B475EF16F077EF34
:102CE80016F07BEF16F00001EF817DEF16F0000182
:102CF800EF91EF5149EC0EF01200040E066E010E32
:102D0800DDEC14F0050E066E020EDDEC14F0CAECD4
:102D180012F082EC12F01200010E49EC0EF00C0ECB
:102D2800066EA20EE82EFED7062EFCD70001EE5145
:102D380049EC0EF01200100E066E010EDDEC14F0D8
:102D4800FC0E066EFF0E076E97EC13F01200100EC5
:102D5800066E010EDDEC14F0FA0E066EFF0E076E1D
:102D680097EC13F01200036EACA2BDEF16F0BFEFA4
:102D780016F0B8EF16F003C0ADFF1200BD86BD9483
:102D8800BD82BD80C30EBF6E500EBE6E1200CD8ACE
:102D9800CD88CD96CD84CD9ECD9CCD8012009388D4
:102DA8000F013999948A3A9B928038811200FAEC83
:102DB8000AF03CEC0FF036EC0CF012008C86500E4A
:102DC800E82EFED78C961200010EC26EC16AAA0EBA
:102DD800C06E1200066E0650CBEC0DF012000368B0
:0A2DE80004681200FFFF060C120041
:10FECC00004F42444949204E6F7420466F756E6452
:10FEDC0020003E3E3E204F42444949504943203C7D
:10FEEC003C3C00592F4E203C3C3C3C3C3C3C3C3C7C
:10FEFC003C3C3C003D3D3D3D3D3D3D3D3D3D3D3D66
:10FF0C003D3D3D3D004D454E5520203C4F42444922
:10FF1C00495049433E003C4F424449492044657492
:10FF2C0065637465643E004C524D20445443204339
:10FF3C00444320445349004E6F7468696E672043F4
:10FF4C006C6561726564003E3E3E3E2056312E303B
:10FF5C00203C3C3C3C00436C65617220436F646503
:10FF6C002873293F00436F64657320436C6561728D
:10FF7C00656400546F204D656E752E2E2E005261F7
:10FF8C00772044544327733A00415445300D0041C7
:10FF9C00544C300D00303130430D00303130460DB3
:10FFAC0000415444500D00415452560D0020202065
:10FFBC0020200034312030430034312030460056AC
:10FFCC0042617474002578202578004154490D0055
:10FFDC0030330D0030340D004F533A004E2F41009A
:10FFEC0052504D0041495400503A002575005E00B6
:03FFFC007E000084
:020000040030CA
:0E000000FF380E3CFFBF85FF0FC00FE00F4022
:00000001FF
