:0400000069EF00F0B4
:100008005382D9CF01F0DACF02F09DAA0EEF00F0AB
:1000180010EF00F063EF00F09EAA15EF00F017EF65
:1000280000F063EF00F0AECF4DF0ABA21EEF00F092
:1000380020EF00F022EF00F0AB98AB881F0E4D6464
:1000480028EF00F02AEF00F042EF00F07F0E4D603D
:1000580030EF00F032EF00F042EF00F03E0E4D18A6
:10006800D8B439EF00F03BEF00F042EF00F04E500B
:10007800800FD96EDA6A4DC0DFFF4E2A3E0E4D184A
:10008800D8B449EF00F04BEF00F05CEF00F00A0E37
:100098004D18D8B452EF00F054EF00F05CEF00F0C8
:1000A8001E0E4E645AEF00F05CEF00F063EF00F0B4
:1000B8004E50800FD96EDA6ADF6A010E4C6E02C0AC
:1000C800DAFF01C0D9FF5392110039EF0BF03DEC74
:1000D8000CF0ECEC0BF0ECEC0BF0D1EC0BF003C0FB
:1000E80049F004C04AF04A04D8B07DEF00F07FEF31
:1000F80000F088EF00F0000E506E000E4F6E010EFB
:10010800066E020EDEEC0AF04A04D8A08EEF00F06C
:1001180090EF00F0A2EF00F0020E4A5CD8B097EF23
:1001280000F099EF00F0A2EF00F0000E506E010E03
:100138004F6E050E066E020EDEEC0AF0020E4A5CE9
:10014800D8A0A9EF00F0ABEF00F0BDEF00F0030E70
:100158004A5CD8B0B2EF00F0B4EF00F0BDEF00F0A9
:10016800000E506E020E4F6E090E066E020EDEEC89
:100178000AF0030E4A5CD8A0C4EF00F0C6EF00F006
:10018800D8EF00F0040E4A5CD8B0CDEF00F0CFEF06
:1001980000F0D8EF00F0000E506E030E4F6E0D0EFB
:1001A800066E020EDEEC0AF0010E2CEC0CF081B8A3
:1001B800E0EF00F0E2EF00F078EF01F0680E336E48
:1001C800E40EE82EFED7332EFCD700D081B8EFEF2F
:1001D80000F0F1EF00F078EF01F0000E2CEC0CF0DD
:1001E8003DEC0CF05AEF01F019EC0CF082BAFFEF7D
:1001F80000F001EF01F0F8EF00F0680E336EE40E46
:10020800E82EFED7332EFCD700D082BA0EEF01F0CD
:1002180010EF01F0F8EF00F03DEC0CF0ECEC0BF017
:100228004F68506878EF01F082BA1DEF01F01FEFB8
:1002380001F018EF01F0680E336EE40EE82EFED7D9
:10024800332EFCD700D082BA2CEF01F02EEF01F04C
:1002580018EF01F010EF01F0050E346E0F0E336E3B
:10026800F10EE82EFED7332EFCD7342EFAD7000035
:1002780087EC01F014EF01F0B6EC0BF082BA47EF0F
:1002880001F049EF01F040EF01F0680E336EE40E23
:10029800E82EFED7332EFCD700D082BA56EF01F0F5
:1002A80058EF01F040EF01F010EF01F04FC033F0CC
:1002B80050C034F03450000AD8B465EF01F078EF3C
:1002C80001F03350000AD8B4F8EF00F0010AD8B4AE
:1002D80018EF01F0030AD8B430EF01F0010AD8B4DE
:1002E80040EF01F078EF01F0020E346E040E336E29
:1002F800BA0EE82EFED7332EFCD7342EFAD700D00C
:100308006FEF00F01200000E0E6E000E0D6E3DEC49
:100318000CF0010E066E010EDEEC0AF07E0E066E83
:10032800FF0E076ECEEC09F0010E066E020EDEEC33
:100338000AF00B0E066EFF0E076ECEEC09F0010EEA
:100348002CEC0CF0D1EC0BF003C049F004C04AF0DF
:10035800020E4A5CD8B0B3EF01F0B5EF01F0BEEF82
:1003680001F0000E0E6E000E0D6E010E066E020EEE
:10037800DEEC0AF0020E4A5CD8A0C5EF01F0C7EF28
:1003880001F0D9EF01F0040E4A5CD8B0CEEF01F0CD
:10039800D0EF01F0D9EF01F0000E0E6E010E0D6ED8
:1003A800030E066E020EDEEC0AF082BADEEF01F0F2
:1003B800E0EF01F0F7EF01F0680E0B6EE40EE82EA7
:1003C800FED70B2EFCD700D082BAEDEF01F0EFEF8D
:1003D80001F0F7EF01F03DEC0CF0ECEC0BF04F689E
:1003E80050687BEF02F081B8FCEF01F0FEEF01F0FE
:1003F800A6EF01F0680E0B6EE40EE82EFED70B2E6A
:10040800FCD700D081B80BEF02F00DEF02F0A6EF99
:1004180001F065EF02F0E20E046EFF0E056E0EECC1
:100428000BF019EF02F04BEC0CF04C50D8B41FEF66
:1004380002F021EF02F017EF02F057EC0CF03DEC60
:100448000CF0010E066E010EDEEC0AF09B0E066E35
:10045800FF0E076ECEEC09F0010E066E020EDEEC02
:100468000AF0A90E066EFF0E076ECEEC09F04F6873
:100478005068290E0C6E960E0B6E7F0EE82EFED776
:100488000B2EFCD70C2EFAD700007BEF02F03DECC8
:100498000CF0010E066E010EDEEC0AF05F0E066E21
:1004A800FF0E076ECEEC09F0010E066E020EDEECB2
:1004B8000AF0A90E066EFF0E076ECEEC09F03BEFB0
:1004C80002F00DC00BF00EC00CF00C50000AD8B4AE
:1004D80070EF02F07BEF02F00B50000AD8B40FEF78
:1004E80002F0010AD8B44BEF02F07BEF02F01200E1
:1004F800000E1F6E000E1E6E000E216E000E206E86
:100508003DEC0CF0010E066E010EDEEC0AF0FA0E60
:10051800066EFE0E076ECEEC09F0010E066E020E98
:10052800DEEC0AF06F0E066EFF0E076ECEEC09F0D9
:100538006EEC0CF077EC0CF0000E216E000E206EC5
:10054800000E1F6E000E1E6E9EA4ADEF02F0AFEF00
:1005580002F0E5EF02F09E94CD80204A212A100E89
:10056800066E020EDEEC0AF020C003F021C004F093
:10057800000E066E0A0E056E0BEC0AF003C011F0B1
:1005880004C012F0136A146A010E156E26EC04F00A
:1005980020C003F021C004F0000E066E0A0E056E9E
:1005A800ACEC0AF003500410D8A4DDEF02F0DFEF42
:1005B80002F0E5EF02F0D80E046EFF0E056E0EECA9
:1005C8000BF04C50D8B4EBEF02F0EDEF02F0F3EF84
:1005D80002F0000E1F6E010E1E6E4E6A4C6A1E500F
:1005E8001F10D8B4FAEF02F0FCEF02F009EF03F0A5
:1005F800215009E1280E205CD8A005EF03F007EF91
:1006080003F0A8EF02F02CEF03F0000E216E000EAD
:10061800206E010E066E020EDEEC0AF0E90E066E82
:10062800FE0E076ECEEC09F0D80E046EFF0E056EB6
:100638000EEC0BF0020E1D6E040E1C6EBA0EE82EA8
:10064800FED71C2EFCD71D2EFAD700D0A8EF02F03B
:100658003DEC0CF0010E066E010EDEEC0AF03E0ECB
:10066800066EFF0E076ECEEC09F0010E066E020E46
:10067800DEEC0AF01C0E066EFF0E076ECEEC09F0DB
:10068800520E1D6E2B0E1C6E000EE82EFED71C2E71
:10069800FCD71D2EFAD700D0B40E046EFF0E056EDF
:1006A8000EEC0BF0020E1D6E040E1C6EBA0EE82E38
:1006B800FED71C2EFCD71D2EFAD700D012000C50E6
:1006C800D96EDA6ADECFF6FFDDCFF7FF0800F55006
:1006D800250AD8A472EF03F074EF03F014EF04F0C6
:1006E8000C50D96EDA6ADE2A000EDD22000E3C6E4E
:1006F800000E3B6E3BC04BF03D683E680C50D96E17
:10070800DA6ADECF10F0DDCF11F010C0F6FF11C0AD
:10071800F7FF0800F550750AD8A495EF03F097EF96
:1007280003F00CEF04F00D50D96EDA6A020EDF26E2
:10073800DF5CD96EDA6ADECF12F0DECF13F0010E7D
:1007480010240E6E000E11200F6E0C50D96EDA6A4E
:100758000EC0DEFF0FC0DDFF00EF04F0200E166EA6
:1007680016061650600FD96EDA6A12C003F013C06D
:1007780004F0000E066E0A0E056EACEC0AF003508B
:10078800300FDF6E12C003F013C004F0000E066EC7
:100798000A0E056E0BEC0AF003C012F004C013F049
:1007A80012501310D8B4DBEF03F0DDEF03F0F5EFD0
:1007B80003F01650D8A4E3EF03F0E5EF03F0B4EF2D
:1007C80003F0F5EF03F01650600FD96EDA6ADF50C8
:1007D8000E6E0E50036E046A0BC005F072EC08F042
:1007E800162A200E1618D8A4FCEF03F0FEEF03F02B
:1007F800E7EF03F025EF04F010C0F6FF11C0F7FF94
:100808000800F550750AD8B4B2EF03F00CEF04F005
:100818000C50D96EDA6ADE2A000EDD2225EF04F0CC
:100828000C50D96EDA6ADECFF6FFDDCFF7FF08008D
:10083800F550036E046A0BC005F072EC08F00CEF7B
:1008480004F01200176A14BE2EEF04F02CEF04F027
:1008580048EF04F011C003F012C004F013C005F013
:1008680014C006F0FF0E076EFF0E086EFF0E096E2D
:10087800FF0E0A6E45EC0AF003C011F004C012F036
:1008880005C013F006C014F011C018F012C019F01A
:1008980013C01AF014C01BF0172A1BBE61EF04F036
:1008A8001B501A10191007E10A0E185CD8B05FEF38
:1008B80004F061EF04F063EF04F07FEF04F018C078
:1008C80003F019C004F01AC005F01BC006F00A0EA8
:1008D800076E000E086E000E096E000E0A6E0FEC11
:1008E80006F003C018F004C019F005C01AF006C0DD
:1008F8001BF050EF04F01550175CD8A086EF04F0F9
:1009080088EF04F08AEF04F090EF04F0200E94ECE6
:1009180006F015067FEF04F011C018F012C019F0A8
:1009280013C01AF014C01BF0010E166EB7EF04F0D6
:1009380018C003F019C004F01AC005F01BC006F077
:100948000A0E076E000E086E000E096E000E0A6E83
:100958000FEC06F003C018F004C019F005C01AF037
:1009680006C01BF0162A1750165CD8A0BEEF04F07C
:10097800C0EF04F09CEF04F018C003F019C004F0B5
:100988001AC005F01BC006F00A0E076E000E086EAE
:10099800000E096E000E0A6E90EC07F00350300F3F
:1009A80094EC06F017061750D8A4DDEF04F0DFEF3B
:1009B80004F090EF04F01200C00E046EFF0E056EF6
:1009C8000EEC0BF008EF05F082BAEDEF04F0EFEF54
:1009D80004F006EF05F0680E2E6EE40EE82EFED742
:1009E8002E2EFCD700D082BAFCEF04F0FEEF04F004
:1009F80006EF05F03DEC0CF0ECEC0BF04F6850689E
:100A080010EF05F04BEC0CF04C50D8B40EEF05F09D
:100A180010EF05F0E8EF04F057EC0CF000018451FA
:100A280051EC09F02E6E2F6A2E3A2F3AF00E2F163F
:100A38002E500F0B2F12F00E2E160001855151EC7F
:100A480009F0306E30502E10476E2F50486E00015E
:100A5800865151EC09F02E6E2F6A2E3A2F3AF00E7D
:100A68002F162E500F0B2F12F00E2E160001875145
:100A780051EC09F0306E30502E10456E2F50466EF6
:100A880047502F6E2E6A45502E2646502F22D8905A
:100A98002F322E32D8902F322E322EC043F02FC054
:100AA80044F0B00E1D6EF60E1E6EFF0E1F6E43C094
:100AB80020F044C021F09AEC0BF0010E066E020EF5
:100AC800DEEC0AF0950E066EFF0E076ECEEC09F00E
:100AD800010E066E010EDEEC0AF0EE0E066EFF0E3B
:100AE800076ECEEC09F0010E066E020EDEEC0AF07F
:100AF800B00E066E076ACEEC09F04E6A4C6A120018
:100B0800C60E046EFF0E056E0EEC0BF0ACEF05F092
:100B180082BA91EF05F093EF05F0AAEF05F0680EA1
:100B28002E6EE40EE82EFED72E2EFCD700D082BA09
:100B3800A0EF05F0A2EF05F0AAEF05F03DEC0CF0F0
:100B4800ECEC0BF04F685068B4EF05F04BEC0CF090
:100B58004C50D8B4B2EF05F0B4EF05F08CEF05F0C7
:100B680057EC0CF00D0E066E020EDEEC0AF0970E36
:100B7800066EFF0E076ECEEC09F00001845151ECB1
:100B880009F02E6E2F6A2E3A2F3AF00E2F162E509D
:100B98000F0B2F12F00E2E160001855151EC09F0A3
:100BA800306E30502E10416E2F50426ED80E4124B8
:100BB8003F6EFF0E4220406EA00E1D6EF60E1E6E9A
:100BC800FF0E1F6E3FC020F040C021F09AEC0BF0E2
:100BD8000D0E066E010EDEEC0AF0F20E066EFF0E2A
:100BE800076ECEEC09F00D0E066E020EDEEC0AF072
:100BF800A00E066E076ACEEC09F00F0E066E020E06
:100C0800DEEC0AF0F90E066EFF0E076ECEEC09F068
:100C18004E6A4C6A12000C6A0ABE17EF06F015EF0E
:100C280006F021EF06F00A1E091E081E076C000ECA
:100C3800082209220A22010E0C6E06BE28EF06F0D1
:100C480026EF06F032EF06F0061E051E041E036CA2
:100C5800000E042205220622010E0C1A000E0D6E4B
:100C6800000E0E6E000E0F6E000E106E075008106C
:100C780009100A10D8B443EF06F045EF06F07BEFF1
:100C880006F0010E0B6E4FEF06F0D89007360836C7
:100C980009360A360B2A0AAE54EF06F056EF06F06C
:100CA80049EF06F0D8900D360E360F36103607503D
:100CB800035C08500458095005580A500658D8A033
:100CC80068EF06F06AEF06F073EF06F00750035E70
:100CD8000850045A0950055A0A50065A0D80D890EF
:100CE8000A320932083207320B2E56EF06F00C5042
:100CF800D8B481EF06F083EF06F08BEF06F0101EF4
:100D08000F1E0E1E0D6C000E0E220F2210220DC09B
:100D180003F00EC004F00FC005F010C006F012007A
:100D2800056E8C84036A05AE01D0032A010E0316F2
:100D3800033203328C5003187F0B03188C6E05C0E6
:100D480003F0060E046ED8900332042EA7EF06F0C7
:100D5800010E0316033A034603468C500318BF0BD3
:100D680003188C6E05C003F0050E046ED89003328C
:100D7800042EBAEF06F0010E0316033A03468C5010
:100D88000318DF0B03188C6E05C003F0033A0F0E2F
:100D98000316010E0316033A8C500318EF0B0318C1
:100DA8008C6E87EC0CF005C003F0D8900332D89015
:100DB8000332D8900332010E0316033203328C50EB
:100DC80003187F0B03188C6E05C003F0D89003320C
:100DD800D8900332010E0316033A034603468C509B
:100DE8000318BF0B03188C6E05C003F0D8900332AC
:100DF800010E0316033A03468C500318DF0B031841
:100E08008C6E05C003F0010E0316033A8C500318CC
:100E1800EF0B03188C6E87EC0CF01200056E8C94A7
:100E2800036A05AE01D0032A010E0316033203320A
:100E38008C5003187F0B03188C6E05C003F0060E48
:100E4800046ED8900332042E25EF07F0010E031626
:100E5800033A034603468C500318BF0B03188C6EE5
:100E680005C003F0050E046ED8900332042E38EF47
:100E780007F0010E0316033A03468C500318DF0BE4
:100E880003188C6E05C003F0033A0F0E0316010E0B
:100E98000316033A8C500318EF0B03188C6E87EC7B
:100EA8000CF005C003F0D8900332D8900332D890E4
:100EB8000332010E0316033203328C5003187F0BE2
:100EC80003188C6E05C003F0D8900332D890033213
:100ED800010E0316033A034603468C500318BF0B52
:100EE80003188C6E05C003F0D8900332010E031668
:100EF800033A03468C500318DF0B03188C6E05C0A9
:100F080003F0010E0316033A8C500318EF0B031875
:100F18008C6E87EC0CF012000C6A06BE98EF07F096
:100F280096EF07F0A2EF07F0061E051E041E036CDD
:100F3800000E042205220622010E0C6E0ABEA9EF3D
:100F480007F0A7EF07F0B1EF07F00A1E091E081E09
:100F5800076C000E082209220A22075008100910FF
:100F68000A10D8B4BAEF07F0BCEF07F0ECEF07F0BF
:100F7800010E0B6EC6EF07F0D89007360836093613
:100F88000A360B2A0AAECBEF07F0CDEF07F0C0EF19
:100F980007F00750035C08500458095005580A50D8
:100FA8000658D8A0DAEF07F0DCEF07F0E4EF07F017
:100FB8000750035E0850045A0950055A0A50065A49
:100FC800D8900A320932083207320B2ECDEF07F0DB
:100FD8000C50D8B4F2EF07F0F4EF07F0FCEF07F08D
:100FE800061E051E041E036C000E0422052206229E
:100FF80003C003F004C004F005C005F006C006F005
:101008001200CC0E046EFF0E056E0EEC0BF02DEFE9
:1010180008F082BA12EF08F014EF08F02BEF08F08E
:10102800680E0B6EE40EE82EFED70B2EFCD700D010
:1010380082BA21EF08F023EF08F02BEF08F03DEC1F
:101048000CF0ECEC0BF04F68506835EF08F04BEC07
:101058000CF04C50D8B433EF08F035EF08F00DEF32
:1010680008F057EC0CF0070E066E020EDEEC0AF0E4
:10107800950E066EFF0E076ECEEC09F0070E066E93
:10108800010EDEEC0AF0D20E066EFF0E076ECEECF5
:1010980009F0070E066E020EDEEC0AF0800E036EF3
:1010A800000E056E560E046E7DEC0BF00009D8A4F8
:1010B80060EF08F062EF08F06AEF08F0EA0E066EDB
:1010C800FF0E076ECEEC09F06FEF08F0800E066E8B
:1010D800076ACEEC09F04E6A4C6A12000550D8B483
:1010E80078EF08F07AEF08F082EF08F00550D8A4FE
:1010F80080EF08F082EF08F087EF08F0035095ECD6
:101108000CF0C6EF08F00550D96EDA6A090ED92638
:10111800DE50DE10D8B493EF08F095EF08F0AEEF8C
:1011280008F00550D96EDA6A090ED9260550E16E25
:10113800E26A020EE126DE50E65CE650800A0A6E9C
:10114800DE50800A0A58D8B0ACEF08F0AEEF08F0CD
:10115800C6EF08F00550D96EDA6A020ED926DF50BC
:10116800066E0550D96EDA6ADF500624D96EDA6A3F
:1011780003C0DFFF0550D96EDA6A020ED926DE2ACF
:10118800000EDD221200BA0E046EFF0E056E0EEC84
:101198000BF0EFEF08F082BAD4EF08F0D6EF08F0C2
:1011A800EDEF08F0680E0B6EE40EE82EFED70B2E5E
:1011B800FCD700D082BAE3EF08F0E5EF08F0EDEFD6
:1011C80008F03DEC0CF0ECEC0BF04F685068F7EFD2
:1011D80008F04BEC0CF04C50D8B4F5EF08F0F7EFF2
:1011E80008F0CFEF08F057EC0CF0010E066E020E77
:1011F800DEEC0AF0DD0E066EFF0E076ECEEC09F08F
:10120800800E066E076ACEEC09F04E6A4C6A120030
:10121800D80E046EFF0E056E0EEC0BF034EF09F0DD
:1012280082BA19EF09F01BEF09F032EF09F0680EE6
:101238000B6EE40EE82EFED70B2EFCD700D082BA38
:1012480028EF09F02AEF09F032EF09F03DEC0CF035
:10125800ECEC0BF04F6850683CEF09F04BEC0CF0ED
:101268004C50D8B43AEF09F03CEF09F014EF09F00C
:1012780057EC0CF0010E066E010EDEEC0AF0E60EDD
:10128800066EFF0E076ECEEC09F0800E066E076A3A
:10129800CEEC09F04E6A4C6A1200036E2F0E0364FE
:1012A80058EF09F05AEF09F066EF09F03A0E0360BB
:1012B80060EF09F062EF09F066EF09F00350D00F14
:1012C8008FEF09F0400E03646CEF09F06EEF09F040
:1012D8007AEF09F0470E036074EF09F076EF09F032
:1012E8007AEF09F00350C90F8FEF09F0600E03641D
:1012F80080EF09F082EF09F08EEF09F0670E0360C6
:1013080088EF09F08AEF09F08EEF09F00350A90F72
:101318008FEF09F0000E120095948C9495968C9698
:1013280095988C98959A8C9A959C8C9C959E8C9E59
:10133800020E086E380E076EAD0EE82EFED7072E89
:10134800FCD7082EFAD700008C9E8C9C8C8A8C883F
:1013580087EC0CF0200E076E2A0EE82EFED7072E1B
:10136800FCD787EC0CF0C80EE82EFED787EC0CF003
:101378008C9E8C9C8C8A8C9887EC0CF0280E12EC36
:1013880007F0525012EC07F0515012EC07F03DEC08
:101398000CF012000A6AEBEF09F00A500624086EF6
:1013A800000E0720096E08C0F6FF09C0F7FF000EFF
:1013B800F86E0F0EF76403D00800F55005D0F6CF8D
:1013C800E9FFF7CFEAFFEF5094EC06F00A2A0A503B
:1013D8000624086E000E0720096E08C0F6FF09C033
:1013E800F7FF000EF86E0F0EF76403D00800F550F3
:1013F80005D0F6CFE9FFF7CFEAFFEF500009D8A4F0
:1014080008EF0AF00AEF0AF0D1EF09F01200000E17
:10141800086E000E076E05500610D8B416EF0AF0D5
:1014280018EF0AF040EF0AF0010E096E20EF0AF0FB
:10143800D89005360636092A06AE25EF0AF027EFBA
:101448000AF01CEF0AF0D890073608360550035CFE
:1014580006500458D8A033EF0AF035EF0AF03AEFF7
:101468000AF00550035E0650045A0780D8900632E9
:101478000532092E27EF0AF007C003F008C004F070
:101488001200000E0B6E000E0C6E000E0D6E000E9C
:101498000E6E03A052EF0AF054EF0AF05CEF0AF068
:1014A80007500B2608500C2209500D220A500E2214
:1014B800D8900736083609360A36D89006320532EB
:1014C800043203320350041005100610D8A46FEF3D
:1014D8000AF071EF0AF04DEF0AF00BC003F00CC0F0
:1014E80004F00DC005F00EC006F01200700ED36EA9
:1014F80090EC09F03DEC0CF07FEC0CF08DEC0CF06E
:1015080003EC0CF0290E366E960E356E7F0EE82E23
:10151800FED7352EFCD7362EFAD70000B40E046E4F
:10152800FF0E056E0EEC0BF0020E366E040E356ED5
:10153800BA0EE82EFED7352EFCD7362EFAD700D0B5
:101548007CEC02F06BEC00F0A4EF0AF069EF00F01D
:1015580005500610D8B4B3EF0AF0B5EF0AF0D9EF8A
:101568000AF0010E076EBDEF0AF0D8900536063670
:10157800072A06AEC2EF0AF0C4EF0AF0B9EF0AF084
:101588000550035C06500458D8A0CDEF0AF0CFEF01
:101598000AF0D3EF0AF00550035E0650045AD890BB
:1015A80006320532072EC4EF0AF003C003F004C068
:1015B80004F01200076E0704D8A4E5EF0AF0E7EF7D
:1015C8000AF0E9EF0AF07F0E0626020E0718D8A4E3
:1015D800F0EF0AF0F2EF0AF0F4EF0AF0BF0E062679
:1015E800030E0718D8A4FBEF0AF0FDEF0AF0FFEF8F
:1015F8000AF0930E0626040E0718D8A406EF0BF07F
:1016080008EF0BF00AEF0BF0D30E0626065012EC8B
:1016180007F01200000E096E000E086E24EF0BF0A2
:1016280008500424066E09500520076E06C0F6FF10
:1016380007C0F7FF0800F55063EC0CF0084A092AC8
:1016480008500424066E09500520076E06C0F6FFF0
:1016580007C0F7FF0800F5500009D8A436EF0BF0D3
:1016680038EF0BF014EF0BF01200260EF66E190E81
:10167800F76E000EF86E00EE4FF010EE04F0090061
:10168800F5CFEEFFE550E150FAE100EE60F0600EB4
:10169800EE6AE806FDE100EE37F0180EEE6AE8069D
:1016A800FDE153905392000EF86E00017AEF0AF0B4
:1016B80018C01BF019C01CF06AEF0BF017C00BF034
:1016C8001B0E0C6E1AC00DF063EC03F01BC0F6FF86
:1016D8001CC0F7FF0800F5500009D8A476EF0BF0FE
:1016E80078EF0BF062EF0BF0000E186E000E176E1D
:1016F80012000350D96EDA6A0450DE18D8A487EFB6
:101708000BF089EF0BF08CEF0BF0035099EF0BF017
:10171800032A0304D96EDA6ADF50D8A496EF0BF0D7
:1017280098EF0BF07DEF0BF0000E1200200E226EEA
:101738001DC023F0000E266E000E256E000E2D6EC5
:10174800000E2C6E230E176E1EC018F01FC019F065
:10175800220E1A6E5CEC0BF01D502524D96EDA6A45
:10176800DF6A1200040E066E010EDEEC0AF08E0E21
:10177800066EFF0E076ECEEC09F0050E066E020E21
:10178800DEEC0AF08D0E066EFF0E076ECEEC09F049
:101798000CEC09F0C7EC08F01200C282C2B2D7EF15
:1017A8000BF0D9EF0BF0D2EF0BF0340E056EF20E02
:1017B800E82EFED7052EFCD7C350C4CF05F0066A25
:1017C80005C006F0056A0510036E0650046E120087
:1017D800010E066E010EDEEC0AF02D0E066EFF0EEF
:1017E800076ECEEC09F0010E066E020EDEEC0AF072
:1017F8004F0E066EFF0E076ECEEC09F012000F01B9
:101808003A6B949C948EAC8AAC9CAC98AC84B886A9
:10181800010EB06EA00EAF6EB898B89AAB8EAB88BA
:10182800AB9C9D8AF28CF28E1200E0EC04F005EC81
:1018380008F084EC05F0020E326E040E316EBA0E1A
:10184800E82EFED7312EFCD7322EFAD700D0120060
:10185800066E0650D8B433EF0CF035EF0CF038EFC5
:101868000CF0528039EF0CF05290525012EC07F005
:101878001200010E12EC07F00C0E066EA20EE82EF6
:10188800FED7062EFCD7515012EC07F01200100EAE
:10189800066E010EDEEC0AF0FD0E066EFF0E076EF8
:1018A800CEEC09F01200100E066E010EDEEC0AF006
:1018B800FB0E066EFF0E076ECEEC09F01200036EEB
:1018C800ACA269EF0CF06BEF0CF064EF0CF003C006
:1018D800ADFF1200BD86BD94BD82BD80C30EBF6E34
:1018E800500EBE6E1200CD8ACD88CD96CD84CD9E89
:1018F800CD9CCD80120093880F013999948A3A9B28
:101908009280388112008C86500EE82EFED78C9675
:101918001200010EC26EC16AAA0EC06E1200FFFF4D
:04192800060C120097
:10FEE800004F42444949204E6F7420466F756E6436
:10FEF80020003E3E3E204F42444949504943203C61
:10FF08003C3C00592F4E203C3C3C3C3C3C3C3C3C5F
:10FF18003C3C3C003D3D3D3D3D3D3D3D3D3D3D3D49
:10FF28003D3D3D3D004D454E5520203C4F42444906
:10FF3800495049433E003C4F424449492044657476
:10FF480065637465643E004C524D2052444320431F
:10FF5800444320445349004E6F7468696E672043D8
:10FF68006C6561726564003E3E3E3E2056312E301F
:10FF7800203C3C3C3C00436C65617220436F6465E7
:10FF88002873293F00202020202020202020202006
:10FF9800202000436F64657320436C65617265645B
:10FFA80000546F204D656E752E2E2E00415445303D
:10FFB8000D00303130380D00303130430D00303114
:10FFC80030460D00415452560D005642617474007B
:10FFD8004154490D005341453A0030340D004F5308
:10FFE8003A004E2F410052504D00414954002575AA
:08FFF8000043005E007E0000E2
:020000040030CA
:0E000000FF380E3CFFBF85FF0FC00FE00F4022
:00000001FF
