:040000006EEF00F0AF
:100008005C82D9CF01F0DACF02F09DAA0EEF00F0A2
:1000180010EF00F068EF00F09EAA15EF00F017EF60
:1000280000F068EF00F0AECFD1F0ABA21EEF00F009
:1000380020EF00F022EF00F0AB98AB881F0E000114
:10004800D16529EF00F02BEF00F045EF00F07F0EAF
:10005800D16131EF00F033EF00F045EF00F03E0ED4
:10006800D119D8B43AEF00F03CEF00F045EF00F0BA
:10007800000ED225D96EDA6A020EDA22D1C0DFFF6D
:10008800D22B3E0ED119D8B44CEF00F04EEF00F051
:100098005FEF00F00A0ED119D8B455EF00F057EF12
:1000A80000F05FEF00F0D229D8A45DEF00F05FEF19
:1000B80000F068EF00F0000ED225D96EDA6A020E61
:1000C800DA22DF6A010ED06F02C0DAFF01C0D9FF61
:1000D8005C9211000AEF18F03F6A20EE40F0070E1C
:1000E800DE6AE806FDE21BC048F01CC049F01FBEEE
:1000F80089EF00F01F5007E1250E1E5CD8B087EF8E
:1001080000F089EF00F092EF00F01E041F10D8A451
:1001180090EF00F092EF00F099EF00F0000E000170
:10012800BE6F160EBD6FFAEF02F048504910D8B4F2
:10013800A0EF00F0A2EF00F0FAEF02F048C0D9FFFC
:1001480049C0DAFFDF50D8A4ACEF00F0AEEF00F002
:10015800B0EF00F0FAEF02F048C0D9FF49C0DAFF6B
:10016800DF504A6EC0EF00F0484A492A48C0D9FF1C
:1001780049C0DAFFDF504A6E200E4A18D8B4C7EFDC
:1001880000F0C9EF00F0B8EF00F04AC023F0F70E16
:100198002326040E2364D3EF00F0D5EF00F0B8EF68
:1001A80000F02D0E4A18D8A4DCEF00F0DEEF00F0C6
:1001B800E9EF00F03F80484A492A48C0D9FF49C0C2
:1001C800DAFFDF504A6EF4EF00F02B0E4A18D8A47D
:1001D800F0EF00F0F2EF00F0F4EF00F0DFEF00F0E6
:1001E800300E4A18D8A4FBEF00F0FDEF00F096EFB0
:1001F80001F0484A492A48C0D9FF49C0DAFFDF5010
:100208004A6E1E501F10D8B40CEF01F00EEF01F02B
:1002180018EF01F0100E1E181F10D8A416EF01F0E9
:1002280018EF01F088EF01F0780E4A18D8B41FEFE4
:1002380001F021EF01F02AEF01F0580E4A18D8A476
:1002480028EF01F02AEF01F088EF01F0000E1F6E91
:10025800100E1E6E484A492A48C0D9FF49C0DAFF25
:10026800DF504A6E4AC023F0200E23129F0E232629
:100278001A0E236042EF01F044EF01F068EF01F03D
:100288004AC023F09F0E2326190E23644EEF01F077
:1002980050EF01F055EF01F04AC033F0346A5CEFDB
:1002A80001F04AC023F05F0E23162350336E346AE0
:1002B80033C023F0C90E2326100E236066EF01F029
:1002C80068EF01F082EF01F04AC023F0200E2312FC
:1002D8009F0E2326190E236474EF01F076EF01F0C8
:1002E80096EF01F04AC023F0D00E2326090E2364AE
:1002F80080EF01F082EF01F096EF01F03F844806AD
:10030800D8A04906FAEF02F03F841E501F10D8A467
:1003180090EF01F092EF01F096EF01F0000E1F6EE2
:10032800080E1E6E1E501F10D8A49DEF01F09FEFFF
:1003380001F0A3EF01F0000E1F6E0A0E1E6E205092
:10034800D8B4A9EF01F0ABEF01F0D6EF01F03FB060
:10035800B0EF01F0B2EF01F0C4EF01F0FF0E376E1D
:10036800FF0E386EFF0E396EFF0E3A6EFF0E3B6EB3
:10037800FF0E3C6EFF0E3D6E7F0E3E6EDEEF01F00F
:10038800000E376E000E386E000E396E000E3A6E93
:10039800000E3B6E000E3C6E000E3D6E800E3E6EF3
:1003A800DEEF01F03768386839683A683B683C68BE
:1003B8003D683E6840C02BF041C02CF042C02DF093
:1003C80043C02EF044C02FF045C030F046C031F095
:1003D80047C032F04AC023F0200E23129F0E232676
:1003E8001A0E2360FAEF01F0FCEF01F019EF02F0AA
:1003F8004AC023F09F0E2326190E236406EF02F04D
:1004080008EF02F00DEF02F04AC035F0366A14EF3B
:1004180002F04AC023F05F0E23162350356E366A69
:100428003550C90F4A6E27EF02F04AC023F0D00EAC
:1004380023260A0E236023EF02F025EF02F0E0EFF7
:1004480002F0300E4A5E4A50236E246A1E50235C26
:100458002450800A256E1F50800A2558D8A037EFEF
:1004680002F039EF02F03BEF02F0E0EF02F03FB2AA
:1004780040EF02F042EF02F0D5EF02F01EC003F0A9
:100488001FC004F0000E04BEFF0E056E066E076E58
:10049800086E096E0A6E40C00BF041C00CF042C0F5
:1004A8000DF043C00EF044C00FF045C010F046C038
:1004B80011F047C012F09BEC14F003C023F004C005
:1004C80024F005C025F006C026F007C027F008C0B4
:1004D80028F009C029F00AC02AF04A502324406EA7
:1004E800000E2420416E000E2520426E000E2620AC
:1004F800436E000E2720446E000E2820456E000E25
:100508002920466E000E2A20476E2B50405C2C5046
:1005180041582D5042582E5043582F50445830506F
:1005280045583150465832504758D8A09EEF02F0EF
:10053800A0EF02F0BFEF02F02050D8B4A6EF02F00F
:10054800A8EF02F0D5EF02F04050375C4150385820
:100558004250395843503A5844503B5845503C58FB
:1005680046503D5847503E58D8B0BDEF02F0BFEF57
:1005780002F0D5EF02F037C040F038C041F039C082
:1005880042F03AC043F03BC044F03CC045F03DC0A7
:1005980046F03EC047F0000E0001BE6F220EBD6F50
:1005A8003F82484A492A48C0D9FF49C0DAFFDF508C
:1005B8004A6E3F84DEEF01F03F50030BE806D8A4F3
:1005C800E8EF02F0EAEF02F0FAEF02F0471E461EEB
:1005D800451E441E431E421E411E406C000E412211
:1005E8004222432244224522462247221D50D8B4A3
:1005F80000EF03F002EF03F014EF03F03FB407EF4E
:1006080003F009EF03F00DEF03F01BC048F01CC026
:1006180049F01D50D96EDA6A48C0DEFF49C0DDFFD7
:1006280040C01BF041C01CF042C01DF043C01EF08A
:1006380044C01FF045C020F046C021F047C022F05A
:100648001200000E0001656F000E646F4BC00EF0C3
:1006580040EC17F00001BB51BC11D8A436EF03F0F1
:1006680038EF03F03EEF03F0000E616F1F0E606F6E
:1006780042EF03F0BBC060F0BCC061F0000E676FD2
:10068800000E666F52EF04F04BC005F09BEC0EF0C5
:1006980005C068F006C069F00001682906E169290B
:1006A800D8A459EF03F05BEF03F073EF03F0BB51ED
:1006B800BC11D8A462EF03F064EF03F06DEF03F010
:1006C80066516711D8A46BEF03F06DEF03F073EF79
:1006D80003F068C04BF069C04CF0D7EF04F02D0E62
:1006E80068196911D8B47BEF03F07DEF03F087EF49
:1006F80003F02B0E68196911D8A485EF03F087EF72
:1007080003F09EEF03F067BF92EF03F0675108E133
:100718006605D8A092EF03F094EF03F046EF04F0DB
:1007280068C003F069C004F04BC005F0EAEC14F0AF
:100738006DEF04F0300E68196911D8A4A6EF03F024
:10074800A8EF03F0F6EF03F03C0E6625D96E010E14
:100758006721DA6E68C0DFFF664B672BB74BB82B93
:100768004BC005F09BEC0EF005C068F006C069F0C0
:10077800580E000168196911D8B4C5EF03F0C7EF26
:1007880003F0D1EF03F0780E68196911D8A4CFEF00
:1007980003F0D1EF03F0E2EF03F064516511D8B430
:1007A800D8EF03F0DAEF03F0DCEF03F094EF03F097
:1007B80066C064F067C065F046EF04F0682908E198
:1007C8006929D8B4EAEF03F0ECEF03F052EF04F034
:1007D80068C003F069C004F04BC005F0EAEC14F0FF
:1007E80052EF04F068C04DF0D00E4D26090E4D644E
:1007F80000EF04F002EF04F046EF04F068C04DF09B
:10080800200E4D129F0E4D26050E4D640EEF04F07E
:1008180010EF04F046EF04F0682908E16929D8B41C
:1008280018EF04F01AEF04F022EF04F068C003F0A8
:1008380069C004F04BC005F0EAEC14F00001645103
:100848006511D8B42AEF04F02CEF04F06DEF04F032
:10085800FF0E66254D6EFF0E67214E6E64514D18D2
:1008680007E165514E18D8A43CEF04F03EEF04F0C0
:100878006DEF04F06607D8A06707B707D8A0B807D8
:100888006DEF04F03C0E6625D96E010E6721DA6E15
:1008980068C0DFFF664B672BB74BB82B0001605170
:1008A800665D6751800A4D6E6151800A4D58D8B017
:1008B80060EF04F062EF04F06DEF04F0675109E1B6
:1008C8001F0E665DD8A06BEF04F06DEF04F048EFE3
:1008D80003F03C0E00016625D96E010E6721DA6E21
:1008E800DF6A3C0E1B6E010E1C6E620E1D6E000E42
:1008F8001F6E100E1E6E000E206E70EC00F01BC0F6
:100908004DF01CC04EF01DC04FF01EC050F01FC06F
:1009180051F020C052F021C053F022C054F04C5086
:10092800D96EDA6A4DC0DEFF4EC0DEFF4FC0DEFF73
:1009380050C0DEFF51C0DEFF52C0DEFF53C0DEFFF5
:1009480054C0DEFF0001BD51BE11D8A4AEEF04F0C3
:10095800B0EF04F0D3EF04F066516711D8B4B7EFE5
:1009680004F0B9EF04F0D3EF04F03C0E621909E18A
:10097800010E6319D8B4C3EF04F0C5EF04F0D3EF48
:1009880004F0CE51D8B4CBEF04F0CEEF04F0010E52
:10099800CFEF04F0000E4B6E4C6AD7EF04F0FF0E59
:1009A8004C6EFE0E4B6E1200000E0001A36F000E7F
:1009B800A26F000EA56F000EA46F010E066E010E49
:1009C800DAEC17F01F0E066EFF0E076E94EC16F0A9
:1009D800010E066E020EDAEC17F0850E066EFF0E9B
:1009E800076E94EC16F0DA0E046EFF0E056E39EC05
:1009F80018F001EF05F0A6EC19F00001D051D8B4B9
:100A080008EF05F00AEF05F0FFEF04F0B2EC19F07B
:100A180030EF05F0A44BA52B000EA425D96E020ECD
:100A2800A521DA6E3E0EDE18D8B41DEF05F01FEFD3
:100A380005F080EF06F0010EA425D96E020EA5215F
:100A4800DA6E3E0EDE18D8A42CEF05F02EEF05F076
:100A580030EF05F080EF06F0000E0001A425D96EF6
:100A6800020EA521DA6E340EDE18D8A43EEF05F08A
:100A780040EF05F00EEF05F0010EA425D96E020E29
:100A8800A521DA6E330EDE18D8A44DEF05F04FEF2E
:100A980005F00EEF05F0020EA427000EA52305EFC2
:100AA80006F0000EA425D96E020EA521DA6E200EDE
:100AB800DE18D8B462EF05F064EF05F082EF05F0B8
:100AC800000EA425D96E020EA521DA6E0D0EDE18D1
:100AD800D8B471EF05F073EF05F082EF05F0000E62
:100AE800A425D96E020EA521DA6E0A0EDE18D8A446
:100AF80080EF05F082EF05F086EF05F0A44BA52BFB
:100B080005EF06F0030EA425D96E020EA521DA6EB4
:100B18003E0EDE18D8A493EF05F095EF05F097EF99
:100B280005F022EF06F0000E986F000E996F000E88
:100B38009A6F000EA425D96E020EA521DA6EDF5039
:100B4800986F010EA425D96E020EA521DA6EDF502A
:100B5800996F3E0E9A6F000E9B6F000E9C6F000EF1
:100B68009D6F020EA425D96E020EA521DA6EDF5004
:100B78009B6F030EA425D96E020EA521DA6EDF50F5
:100B88009C6F3E0E9D6F000E9F6F000E9E6F000EB5
:100B9800A16F000EA06F980E856FF50E866FFF0E81
:100BA800876F9E0E886F896B3EEC19F09B0E0001D3
:100BB800856FF50E866FFF0E876FA00E886F896BA5
:100BC8003EEC19F09EC04EF04F6AA0C050F0516A3A
:100BD800060E0001A203F3CF96F0F4CF97F0A3031B
:100BE800F3509727000E9625526E010E9721536EEB
:100BF800F6EC11F00001A24BA32B040EA427000E63
:100C0800A523000EA425D96E020EA521DA6E3E0E8C
:100C1800DE18D8B412EF06F014EF06F022EF06F053
:100C2800A3BF20EF06F0A35109E10A0EA25DD8A0E8
:100C380020EF06F022EF06F055EF05F0A251A311C0
:100C4800D8B429EF06F02BEF06F03EEF06F0000EC1
:100C58000A6E020E0B6E850E0C6EFE0E0D6E28ECE3
:100C680013F00A500B10D8B43CEF06F03EEF06F034
:100C78004BEF06F097EC19F0010E066E010EDAEC58
:100C880017F0770E066EFF0E076E94EC16F0000153
:100C9800A3BF57EF06F0A35108E1A205D8A057EF6C
:100CA80006F059EF06F07DEF06F097EC19F0010E0B
:100CB800066E010EDAEC17F05B0E066EFF0E076E7D
:100CC80094EC16F0010E066E020EDAEC17F0060E22
:100CD8000001A203F3CF96F0F4CF97F0A303F350EB
:100CE8009727000E9625066E010E9721076E94EC45
:100CF80016F00001D26BD06B120000016B51D96E57
:100D0800DA6ADECFF6FFDDCFF7FF0800F550250AD7
:100D1800D8A491EF06F093EF06F059EF07F06B5166
:100D2800D96EDA6ADE2A000EDD22000EBC6F000ED4
:100D3800BB6FBB51BC11D8A4A4EF06F0A7EF06F017
:100D4800010EA8EF06F0000ECE6F6B51D96EDA6A6D
:100D5800DECFF6FFDDCFF7FF0800F550780AD8B4EC
:100D6800B8EF06F0BAEF06F0CBEF06F06B51D96E8C
:100D7800DA6ADECFF6FFDDCFF7FF0800F550580A34
:100D8800D8A4C9EF06F0CBEF06F001EF07F06B51DE
:100D9800D96EDA6ADE2A000EDD226AC04BF0710EC7
:100DA8004C6E25EC03F04BC06FF04CC070F00001A6
:100DB80070BFE7EF06F0705108E16F05D8A0E7EFC4
:100DC80006F0E9EF06F0FBEF06F06CC0D9FF6DC046
:100DD800DAFF020EDF26DF5CD96EDA6ADECF6EF04C
:100DE8006E51D96EDA6A71C0DEFF72C0DDFF6FC066
:100DF8006AF070C06BF00EEF08F06B51D96EDA6ACA
:100E0800DECFF6FFDDCFF7FF0800F550250AD8A49E
:100E180010EF07F012EF07F051EF07F06AC00EF07D
:100E280040EC17F06AC005F09BEC0EF005C079F0B5
:100E380006C07AF0250E000179197A11D8A427EF97
:100E480007F029EF07F038EF07F06B51D96EDA6A2F
:100E5800DE2A000EDD22B74BB82B000E00016B6FA7
:100E6800000E6A6F0EEF08F0792908E17A29D8B4E4
:100E780040EF07F042EF07F04AEF07F079C003F0C0
:100E88007AC004F06AC005F0EAEC14F0FF0E000125
:100E98006B6FFE0E6A6F0EEF08F06B51D96EDA6A4F
:100EA800DE2A000EDD2231EF07F06AC005F09BEC68
:100EB8000EF005C079F006C07AF000016B51D96ECA
:100EC800DA6ADECFF6FFDDCFF7FF0800F550200A1B
:100ED800D8B471EF07F073EF07F087EF07F06B51A5
:100EE800D96EDA6ADECFF6FFDDCFF7FF0800F5CF5F
:100EF80055F0F70E5526050E556085EF07F087EF7C
:100F080007F0E9EF07F06B51D96EDA6ADE2A000EB6
:100F1800DD226B51D96EDA6ADECFF6FFDDCFF7FF3F
:100F28000800F550200AD8B49CEF07F09EEF07F0B0
:100F380087EF07F06B51D96EDA6ADECFF6FFDDCFA7
:100F4800F7FF0800F5CF55F0F70E5526040E556447
:100F5800B0EF07F0B2EF07F087EF07F0BEEF07F04A
:100F6800B74BB82B6AC005F09BEC0EF005C079F0C2
:100F780006C07AF0200E000179197A11D8B4C7EFAB
:100F880007F0C9EF07F0B4EF07F079C055F0F70E96
:100F98005526040E5564D3EF07F0D5EF07F0B4EFEC
:100FA80007F0792908E17A29D8B4DDEF07F0DFEFF7
:100FB80007F031EF07F079C003F07AC004F06AC097
:100FC80005F0EAEC14F031EF07F06B51D96EDA6AEC
:100FD800DECFF6FFDDCFF7FF0800F550556E566AF5
:100FE8007951551807E17A515618D8A4FEEF07F041
:100FF80000EF08F002EF08F029EF07F0792906E181
:101008007A29D8A40AEF08F00CEF08F042EF07F0AD
:101018006A696B69120097EC19F057EC19F057ECF4
:1010280019F023EC19F003C05AF004C05BF05B041C
:10103800D8B021EF08F023EF08F02DEF08F0000EEC
:101048000001F46F000EF36F010E066E020EDAEC6B
:1010580017F05B04D8A033EF08F035EF08F048EF3D
:1010680008F0020E5B5CD8B03CEF08F03EEF08F0E9
:1010780048EF08F0000E0001F46F010EF36F050E43
:10108800066E020EDAEC17F0020E5B5CD8A04FEF8A
:1010980008F051EF08F064EF08F0030E5B5CD8B07D
:1010A80058EF08F05AEF08F064EF08F0000E00015E
:1010B800F46F020EF36F090E066E020EDAEC17F0EB
:1010C800030E5B5CD8A06BEF08F06DEF08F080EFC3
:1010D80008F0040E5B5CD8B074EF08F076EF08F007
:1010E80080EF08F0000E0001F46F030EF36F0D0E91
:1010F800066E020EDAEC17F0010E84EC19F081B8D6
:1011080088EF08F08AEF08F028EF09F0680E000170
:10111800A66FE40EE82EFED7A62FFCD7000081B8F4
:1011280098EF08F09AEF08F028EF09F0000E84EC29
:1011380019F097EC19F009EF09F0E2EC19F082BA0E
:10114800A8EF08F0AAEF08F0A1EF08F0680E000178
:10115800A66FE40EE82EFED7A62FFCD7000082BAB1
:10116800B8EF08F0BAEF08F0A1EF08F097EC19F023
:1011780057EC19F00001F369F46928EF09F0D8EC8D
:1011880004F082BACAEF08F0CCEF08F0C3EF08F019
:10119800680E0001A66FE40EE82EFED7A62FFCD736
:1011A800000082BADAEF08F0DCEF08F0C3EF08F0CD
:1011B800BAEF08F0050E0001A76F0F0EA66FF10E2B
:1011C800E82EFED7A62FFCD7A72FFAD73CEC0AF0BB
:1011D800BEEF08F008EC19F082BAF5EF08F0F7EF67
:1011E80008F0EEEF08F0680E0001A66FE40EE82E96
:1011F800FED7A62FFCD7000082BA05EF09F007EF4B
:1012080009F0EEEF08F0BAEF08F0F3C0A6F0F4C06A
:10121800A7F00001A751000AD8B415EF09F028EF8C
:1012280009F0A651000AD8B4A1EF08F0010AD8B411
:10123800C3EF08F0030AD8B4DEEF08F0010AD8B407
:10124800EEEF08F028EF09F0020E0001A76F040E78
:10125800A66FBA0EE82EFED7A62FFCD7A72FFAD76F
:10126800000013EF08F012002650D96EDA6ADECFBC
:10127800F6FFDDCFF7FF0800F550250AD8A447EFA1
:1012880009F049EF09F02AEF0AF02650D96EDA6A18
:10129800DE2A000EDD22000E0001C06F000EBF6FB7
:1012A800BFC0CFF0C169C2692B6A78EF09F00001AD
:1012B800CF832650D96EDA6ADE2A000EDD2278EF57
:1012C80009F0010E2B6E78EF09F02650D96EDA6A14
:1012D800DECFF6FFDDCFF7FF0800F550300AD8B4AF
:1012E8005BEF09F065EF09F02B50D8B47EEF09F0F9
:1012F80080EF09F069EF09F026C003F027C004F079
:1013080045EC14F003C0BFF004C0C0F00001C0BF3A
:1013180092EF09F090EF09F097EF09F0CF81BF6DD8
:10132800C01FD8B0C02B2650D96EDA6ADECFF6FFC0
:10133800DDCFF7FF0800F550630AD8A4A6EF09F03F
:10134800A8EF09F0C0EF09F02650D96EDA6ADE2A54
:10135800000EDD222750D96EDA6ADF50DF2ADF2A35
:10136800D96EDA6ADF502A6E25C00BF02AC00CF05D
:1013780088EC13F03BEF0AF02650D96EDA6ADECF1C
:1013880030F0DDCF31F030C0F6FF31C0F7FF080094
:10139800F550580AD8B4D3EF09F0D5EF09F0E3EFC8
:1013A80009F030C0F6FF31C0F7FF0800F550750AA4
:1013B800D8A4E1EF09F0E3EF09F022EF0AF0275093
:1013C800D96EDA6A020EDF26DF5CD96EDA6ADECF02
:1013D8002CF0DECF2DF0010E3024286E000E3120C7
:1013E800296E2650D96EDA6A28C0DEFF29C0DDFFD3
:1013F80012EF0AF025C019F02CC01AF02DC01BF00E
:1014080082EC11F03BEF0AF025C019F02CC01AF05D
:101418002DC01BF01CEC0FF03BEF0AF030C0F6FFBC
:1014280031C0F7FF0800F550580AD8B408EF0AF0A1
:101438002D0AD8B4FEEF09F022EF0AF02650D96E33
:10144800DA6ADE2A000EDD223BEF0AF02650D96E5A
:10145800DA6ADECFF6FFDDCFF7FF0800F550036E3E
:10146800046A25C005F0E8EC13F022EF0AF0120038
:10147800000E0E6E000E0D6E97EC19F0010E066E42
:10148800010EDAEC17F03E0E066EFF0E076E94ECB6
:1014980016F0010E066E020EDAEC17F0BB0E066EA1
:1014A800FE0E076E94EC16F0010E84EC19F023EC96
:1014B80019F003C05AF004C05BF0020E5B5CD8B0B0
:1014C80068EF0AF06AEF0AF073EF0AF0000E0E6E8A
:1014D800000E0D6E010E066E020EDAEC17F0020E0B
:1014E8005B5CD8A07AEF0AF07CEF0AF08EEF0AF086
:1014F800040E5B5CD8B083EF0AF085EF0AF08EEF3C
:101508000AF0000E0E6E010E0D6E030E066E020E30
:10151800DAEC17F082BA93EF0AF095EF0AF0ADEF24
:101528000AF0680E0B6EE40EE82EFED70B2EFCD7E1
:1015380000D082BAA2EF0AF0A4EF0AF0ADEF0AF0E9
:1015480097EC19F057EC19F00001F369F46933EFDF
:101558000BF081B8B2EF0AF0B4EF0AF05BEF0AF0D3
:10156800680E0B6EE40EE82EFED70B2EFCD700D0CB
:1015780081B8C1EF0AF0C3EF0AF05BEF0AF01DEF84
:101588000BF0DE0E046EFF0E056E39EC18F0CFEF8F
:101598000AF0A6EC19F00001D051D8B4D6EF0AF041
:1015A800D8EF0AF0CDEF0AF0B2EC19F097EC19F089
:1015B800010E066E010EDAEC17F0690E066EFF0ECC
:1015C800076E94EC16F0010E066E020EDAEC17F0B8
:1015D800900E066EFF0E076E94EC16F00001F3698C
:1015E800F469290E0C6E960E0B6E7F0EE82EFED750
:1015F8000B2EFCD70C2EFAD7000033EF0BF097EC2C
:1016080019F0010E066E010EDAEC17F00F0E066ED9
:10161800FF0E076E94EC16F0010E066E020EDAEC61
:1016280017F0900E066EFF0E076E94EC16F0F2EFB0
:101638000AF00DC00BF00EC00CF00C50000AD8B424
:1016480028EF0BF033EF0BF00B50000AD8B4C5EFBE
:101658000AF0010AD8B403EF0BF033EF0BF01200D5
:10166800000E1F6E000E1E6E000E216E000E206E04
:1016780097EC19F0010E066E010EDAEC17F0AA0EBF
:10168800066EFE0E076E94EC16F0010E066E020E44
:10169800DAEC17F02F0E066EFF0E076E94EC16F0BC
:1016A800AC0E046EFF0E056E39EC18F0C9EC19F09B
:1016B800D2EC19F0000E216E000E206E000E1F6E87
:1016C800000E1E6E9EA46BEF0BF06DEF0BF0A3EFF8
:1016D8000BF09E94CD80204A212A100E066E020E31
:1016E800DAEC17F020C003F021C004F0000E066EFB
:1016F8000A0E056ED1EC16F003C011F004C012F00A
:10170800136A146A010E156E22EC0CF020C003F067
:1017180021C004F0000E066E0A0E056EA8EC17F044
:1017280003500410D8A49BEF0BF09DEF0BF0A3EF30
:101738000BF0D00E046EFF0E056E39EC18F00001A8
:10174800D051D8B4AAEF0BF0ACEF0BF0B2EF0BF01E
:10175800000E1F6E010E1E6ED26BD06B1E501F1036
:10176800D8B4B9EF0BF0BBEF0BF0C8EF0BF021507A
:1017780009E1280E205CD8A0C4EF0BF0C6EF0BF0EF
:1017880066EF0BF0EBEF0BF0000E216E000E206EF3
:10179800010E066E020EDAEC17F0990E066EFE0EBA
:1017A800076E94EC16F0D00E046EFF0E056E39EC41
:1017B80018F0020E1D6E040E1C6EBA0EE82EFED72F
:1017C8001C2EFCD71D2EFAD700D066EF0BF097EC35
:1017D80019F0010E066E010EDAEC17F0EE0E066E29
:1017E800FE0E076E94EC16F0010E066E020EDAEC91
:1017F80017F0CC0E066EFE0E076E94EC16F0520E25
:101808001D6E2B0E1C6E000EE82EFED71C2EFCD76C
:101818001D2EFAD700D0A60E046EFF0E056E39EC09
:1018280018F0020E1D6E040E1C6EBA0EE82EFED7BE
:101838001C2EFCD71D2EFAD700D01200176A14BE32
:101848002AEF0CF028EF0CF044EF0CF011C003F075
:1018580012C004F013C005F014C006F0FF0E076EA6
:10186800FF0E086EFF0E096EFF0E0A6E0BEC17F0E6
:1018780003C011F004C012F005C013F006C014F044
:1018880011C018F012C019F013C01AF014C01BF0E0
:10189800172A1BBE5DEF0CF01B501A10191007E138
:1018A8000A0E185CD8B05BEF0CF05DEF0CF05FEF40
:1018B8000CF07BEF0CF018C003F019C004F01AC04C
:1018C80005F01BC006F00A0E076E000E086E000E2B
:1018D800096E000E0A6E16EC0EF003C018F004C074
:1018E80019F005C01AF006C01BF04CEF0CF01550AB
:1018F800175CD8A082EF0CF084EF0CF086EF0CF0A8
:101908008CEF0CF0200E9DEC0FF015067BEF0CF021
:1019180011C018F012C019F013C01AF014C01BF04F
:10192800010E166EB3EF0CF018C003F019C004F0E6
:101938001AC005F01BC006F00A0E076E000E086EEE
:10194800000E096E000E0A6E16EC0EF003C018F0B9
:1019580004C019F005C01AF006C01BF0162A17506B
:10196800165CD8A0BAEF0CF0BCEF0CF098EF0CF0B6
:1019780018C003F019C004F01AC005F01BC006F027
:101988000A0E076E000E086E000E096E000E0A6E33
:1019980099EC10F00350300F9DEC0FF0170617501C
:1019A800D8A4D9EF0CF0DBEF0CF08CEF0CF01200A0
:1019B800B80E046EFF0E056E39EC18F005EF0DF049
:1019C80082BAE9EF0CF0EBEF0CF003EF0DF0680EC4
:1019D8004E6EE40EE82EFED74E2EFCD700D082BA0B
:1019E800F8EF0CF0FAEF0CF003EF0DF097EC19F0AC
:1019F80057EC19F00001F369F4690EEF0DF0A6EC4D
:101A080019F00001D051D8B40CEF0DF00EEF0DF025
:101A1800E4EF0CF0B2EC19F00201045155EC16F0A9
:101A28004E6E4F6A4E3A4F3AF00E4F164E500F0B0D
:101A38004F12F00E4E160201055155EC16F0506E7D
:101A480050504E100001CB6F4F50CC6F0201065121
:101A580055EC16F04E6E4F6A4E3A4F3AF00E4F164E
:101A68004E500F0B4F12F00E4E160201075155EC57
:101A780016F0506E50504E100001C96F4F50CA6F8B
:101A8800CB514F6E4E6AC9514E26CA514F22D8903B
:101A98004F324E32D8904F324E324EC0C7F04FC000
:101AA800C8F0E30E386E396AF20E3A6EFF0E3B6EDE
:101AB800C7C03CF0C8C03DF0ABEC18F0010E066E94
:101AC800020EDAEC17F0550E066EFF0E076E94EC58
:101AD80016F0010E066E010EDAEC17F0EA0E066E2D
:101AE800FF0E076E94EC16F0010E066E020EDAEC8D
:101AF80017F0E30E066E076A94EC16F00001D26B3D
:101B0800D06B1200BE0E046EFF0E056E39EC18F095
:101B1800AFEF0DF082BA93EF0DF095EF0DF0ADEF4A
:101B28000DF0680E4E6EE40EE82EFED74E2EFCD752
:101B380000D082BAA2EF0DF0A4EF0DF0ADEF0DF0DA
:101B480097EC19F057EC19F00001F369F469B8EF54
:101B58000DF0A6EC19F00001D051D8B4B6EF0DF095
:101B6800B8EF0DF08EEF0DF0B2EC19F00D0E066E19
:101B7800020EDAEC17F0570E066EFF0E076E94ECA5
:101B880016F00201045155EC16F04E6E4F6A4E3AAB
:101B98004F3AF00E4F164E500F0B4F12F00E4E16D6
:101BA8000201055155EC16F0506E50504E100001D0
:101BB800C56F4F50C66FD80EC525C36FFF0EC6211F
:101BC800C46FD30E386E396AF20E3A6EFF0E3B6E52
:101BD800C3C03CF0C4C03DF0ABEC18F00D0E066E6F
:101BE800010EDAEC17F0EE0E066EFF0E076E94EC9F
:101BF80016F00D0E066E020EDAEC17F0D30E066E16
:101C0800076A94EC16F00F0E066E020EDAEC17F067
:101C1800F80E066EFF0E076E94EC16F00001D26BFC
:101C2800D06B12000C6A0ABE1EEF0EF01CEF0EF00D
:101C380028EF0EF00A1E091E081E076C000E082267
:101C480009220A22010E0C6E06BE2FEF0EF02DEFB0
:101C58000EF039EF0EF0061E051E041E036C000E72
:101C6800042205220622010E0C1A000E0D6E000E2B
:101C78000E6E000E0F6E000E106E07500810091041
:101C88000A10D8B44AEF0EF04CEF0EF082EF0EF0C7
:101C9800010E0B6E56EF0EF0D8900736083609364F
:101CA8000A360B2A0AAE5BEF0EF05DEF0EF050EF2E
:101CB8000EF0D8900D360E360F3610360750035CEE
:101CC80008500458095005580A500658D8A06FEF14
:101CD8000EF071EF0EF07AEF0EF00750035E085029
:101CE800045A0950055A0A50065A0D80D8900A32EB
:101CF8000932083207320B2E5DEF0EF00C50D8B4C3
:101D080088EF0EF08AEF0EF092EF0EF0101E0F1E05
:101D18000E1E0D6C000E0E220F2210220DC003F0B5
:101D28000EC004F00FC005F010C006F012000550F8
:101D3800D8A4A1EF0EF0A3EF0EF0C0EF0EF0000153
:101D4800CD51D8A4AAEF0EF0ACEF0EF0B4EF0EF020
:101D5800F5EC19F003C00CF004C00DF017EF0FF00C
:101D6800CD07CD51AE0FD96EDA6ADF50076E075036
:101D78000C6E0D6A17EF0FF00550D96EDA6A070E70
:101D8800D926DE50DE10D8B4CCEF0EF0CEEF0EF030
:101D9800E7EF0EF00550D96EDA6A070ED926DE068F
:101DA800000EDD5ADECF07F0DDCF08F0055007241E
:101DB800D96EDA6A040ED926DF50096E09500C6E06
:101DC8000D6A17EF0FF00550D96EDA6A020ED926A0
:101DD800DECF07F0DDCF08F00550D96EDA6ADECF26
:101DE80009F0DDCF0AF007500924D96E08500A20FF
:101DF800DA6EDF500B6E0B500C6E0D6A0C500D1026
:101E0800D8A409EF0FF00BEF0FF00FEF0FF00C68ED
:101E18000D6817EF0FF00550D96EDA6A020ED92651
:101E2800DE2A000EDD220CC005F00DC006F01200FF
:101E3800010E1F6EBFC020F0C0C021F0000E246E3E
:101E48001F0E236E01017B6B5AEF0FF02306D8A0FB
:101E580024061A500F0B226E0A0E226036EF0FF07E
:101E680038EF0FF03CEF0FF0300E22263EEF0FF068
:101E7800370E22265C0E2324D96E010E2420DA6E3A
:101E880022C0DFFF1F6A2006D8A021061AC01CF056
:101E98001BC01DF0040E1E6ED8901D321C321E2E63
:101EA80050EF0FF01CC01AF01DC01BF024BE66EFE7
:101EB8000FF0245009E1020E235CD8A066EF0FF062
:101EC80068EF0FF08EEF0FF01A501B10D8A46FEFC9
:101ED8000FF071EF0FF02AEF0FF01F50D8A477EF33
:101EE8000FF079EF0FF02AEF0FF021BE84EF0FF01B
:101EF800215008E12004D8A084EF0FF086EF0FF0FE
:101F08008EEF0FF00001CFB38CEF0FF08EEF0FF0D4
:101F18002AEF0FF019C011F05C0E2324126E010E87
:101F28002420136E20C014F021C015F038EC15F0F1
:101F38001200056E8C84036A05AE01D0032A010ED7
:101F48000316033203328C5003187F0B03188C6E70
:101F580005C003F0060E046ED8900332042EB0EFCD
:101F68000FF0010E0316033A034603468C5003187C
:101F7800BF0B03188C6E05C003F0050E046ED890D5
:101F88000332042EC3EF0FF0010E0316033A034683
:101F98008C500318DF0B03188C6E05C003F0033A4E
:101FA8000F0E0316010E0316033A8C500318EF0B9D
:101FB80003188C6EE9EC19F005C003F0D8900332D1
:101FC800D8900332D8900332010E0316033203323D
:101FD8008C5003187F0B03188C6E05C003F0D89043
:101FE8000332D8900332010E0316033A0346034620
:101FF8008C500318BF0B03188C6E05C003F0D890E3
:102008000332010E0316033A03468C500318DF0B04
:1020180003188C6E05C003F0010E0316033A8C50AA
:102028000318EF0B03188C6EE9EC19F01200056E1B
:102038008C94036A05AE01D0032A010E03160332FD
:1020480003328C5003187F0B03188C6E05C003F005
:10205800060E046ED8900332042E2EEF10F0010EF7
:102068000316033A034603468C500318BF0B0318A4
:102078008C6E05C003F0050E046ED8900332042E52
:1020880041EF10F0010E0316033A03468C50031873
:10209800DF0B03188C6E05C003F0033A0F0E03160E
:1020A800010E0316033A8C500318EF0B03188C6EBD
:1020B800E9EC19F005C003F0D8900332D890033248
:1020C800D8900332010E0316033203328C500318E2
:1020D8007F0B03188C6E05C003F0D8900332D8909C
:1020E8000332010E0316033A034603468C500318C5
:1020F800BF0B03188C6E05C003F0D8900332010E95
:102108000316033A03468C500318DF0B03188C6E32
:1021180005C003F0010E0316033A8C500318EF0BA9
:1021280003188C6EE9EC19F012000C6A06BEA1EFD8
:1021380010F09FEF10F0ABEF10F0061E051E041E06
:10214800036C000E042205220622010E0C6E0ABE44
:10215800B2EF10F0B0EF10F0BAEF10F00A1E091E3F
:10216800081E076C000E082209220A2207500810D0
:1021780009100A10D8B4C3EF10F0C5EF10F0F5EF4E
:1021880010F0010E0B6ECFEF10F0D890073608361E
:1021980009360A360B2A0AAED4EF10F0D6EF10F043
:1021A800C9EF10F00750035C08500458095005584F
:1021B8000A500658D8A0E3EF10F0E5EF10F0EDEF65
:1021C80010F00750035E0850045A0950055A0A5087
:1021D800065AD8900A320932083207320B2ED6EF47
:1021E80010F00C50D8B4FBEF10F0FDEF10F005EF35
:1021F80011F0061E051E041E036C000E04220522A3
:10220800062203C003F004C004F005C005F006C0B0
:1022180006F01200C40E046EFF0E056E39EC18F0BD
:1022280037EF11F082BA1BEF11F01DEF11F035EF07
:1022380011F0680E0B6EE40EE82EFED70B2EFCD7BD
:1022480000D082BA2AEF11F02CEF11F035EF11F01F
:1022580097EC19F057EC19F00001F369F46940EFB5
:1022680011F0A6EC19F00001D051D8B43EEF11F0EE
:1022780040EF11F016EF11F0B2EC19F0070E066EF0
:10228800020EDAEC17F0550E066EFF0E076E94EC90
:1022980016F0070E066E010EDAEC17F0CA0E066E7F
:1022A800FF0E076E94EC16F0070E066E020EDAECBF
:1022B80017F0000E036E020E046E000E066E560E28
:1022C800056E64EC18F003500410D8A46EEF11F0FA
:1022D80070EF11F078EF11F0E60E066EFF0E076E44
:1022E80094EC16F07EEF11F0000E066E020E076EEB
:1022F80094EC16F00001D26BD06B1200010E1C6E2C
:10230800BFC01DF0C0C01EF0000E206E1F0E1F6E55
:1023180001017B6BB8EF11F01F06D8A020065C0EF8
:102328001F24D96E010E2020DA6E1AC003F01BC0DC
:1023380004F0000E066E0A0E056EA8EC17F00350A6
:10234800300FDF6E1C6A1D06D8A01E061AC003F0E7
:102358001BC004F0000E066E0A0E056ED1EC16F0D6
:1023680003C01AF004C01BF01F502010D8B4BFEFF0
:1023780011F0C1EF11F0E7EF11F01A501B10D8A4BB
:10238800C8EF11F0CAEF11F090EF11F01C50D8A46B
:10239800D0EF11F0D2EF11F090EF11F01EBEDDEF8B
:1023A80011F01E5008E11D04D8A0DDEF11F0DFEF99
:1023B80011F0E7EF11F00001CFB3E5EF11F0E7EF0F
:1023C80011F090EF11F019C011F05C0E1F24126E7D
:1023D800010E2020136E1DC014F01EC015F038EC3D
:1023E80015F012000CEF12F0500E596E36EF12F085
:1023F800430E596E36EF12F0420E596E36EF12F058
:10240800550E596E36EF12F03F0E596E36EF12F038
:102418004EC054F04FC055F0060E566ED890553247
:102428005432562E12EF12F0030E5416000E5516A3
:102438005550000AD8B423EF12F008EF12F05450A8
:10244800000AD8B4F8EF11F0010AD8B4FCEF11F083
:10245800030AD8B400EF12F0010AD8B404EF12F05E
:1024680008EF12F052C038F053C039F09B0E3A6EA4
:10247800FF0E3B6E59C03CF03D6A4EC054F04FC051
:1024880055F0040E566ED89055325432562E47EFFA
:1024980012F0030E54143E6E3F6A0F0E4E14576E20
:1024A800000E4F14586E57C058F0576A50505710C6
:1024B800406E51505810416EABEC18F012000706F0
:1024C800D8A00806072806E10828D8A46EEF12F05D
:1024D80070EF12F07DEF12F0000E046E000E036E26
:1024E800C5EF12F0034A042A054A062A0706D8A0AF
:1024F800080603C0D9FF04C0DAFFDF50D8B487EF5D
:1025080012F089EF12F0B4EF12F005C0F6FF06C022
:10251800F7FF0800F5500009D8B495EF12F097EFCF
:1025280012F0B4EF12F007500810D8B49EEF12F072
:10253800A0EF12F0B4EF12F003C0D9FF04C0DAFF25
:10254800DF50096E05C0F6FF06C0F7FF0800F5501A
:102558000918D8B4B2EF12F0B4EF12F076EF12F017
:1025680003C0D9FF04C0DAFFDF50096E05C0F6FFCB
:1025780006C0F7FF0800F550095C036E046AD8A08E
:10258800040612007CC083F07DC084F0000E0001B8
:10259800B86F000EB76FB7C0B9F0B8C0BAF0BDC019
:1025A8007FF0BEC080F0F8EF12F0000EBE6F000E94
:1025B800BD6F7BC06AF0830E6B6F7EC06CF06D6B75
:1025C80081EC06F06AC081F06BC082F0000182BF26
:1025D800F2EF12F0F0EF12F0F4EF12F006EF13F052
:1025E8008151B9278251BA2383C0F6FF84C0F7FF0F
:1025F8000800F5500009D8A404EF13F006EF13F013
:10260800D9EF12F07FC0BDF080C0BEF0812906E18D
:102618008229D8A412EF13F014EF13F023EF13F06C
:10262800B951BA11D8A41BEF13F01DEF13F023EF23
:1026380013F081C07BF082C07CF027EF13F0B9C0A3
:102648007BF0BAC07CF012000C500D10D8B42FEFFC
:1026580013F031EF13F083EF13F00CC003F00DC04B
:1026680004F0EBEC18F003C00EF004C00FF06EEFAE
:1026780013F00AC003F00BC004F00CC005F00DC045
:1026880006F00EC007F00FC008F063EC12F003501C
:102698000410D8A452EF13F054EF13F05AEF13F0CC
:1026A8000AC00AF00BC00BF087EF13F0010E0A24E2
:1026B800036E000E0B20046E0CC0F6FF0DC0F7FF72
:1026C8000800F550056E066A64EC18F003C00AF0BD
:1026D80004C00BF00A500B10D8B475EF13F077EF65
:1026E80013F083EF13F00AC0D9FF0BC0DAFFDF50F5
:1026F800D8A481EF13F083EF13F03DEF13F0000E31
:102708000A6E000E0B6E12000001BF51C011D8A452
:1027180090EF13F092EF13F098EF13F0BFC010F0A2
:10272800C0C011F09EEF13F0FF0EBF25106EFF0E14
:10273800C021116ECFA1A3EF13F0A5EF13F0ACEFFA
:1027480013F00CC003F0046A0BC005F0E8EC13F0BA
:1027580011BEB1EF13F0B3EF13F0B5EF13F0B9EF0B
:1027680013F0000E116E000E106E000E0F6E000EAC
:102778000E6EC9EF13F0000E046E200E036E0BC030
:1027880005F0E8EC13F00E4A0F2A10500E5C0F50BB
:10279800800A0D6E1150800A0D58D8A0D6EF13F09C
:1027A800D8EF13F0BFEF13F00001CFB1DEEF13F055
:1027B800E0EF13F0E7EF13F00CC003F0046A0BC06E
:1027C80005F0E8EC13F012000550D8B4EEEF13F062
:1027D800F0EF13F0F8EF13F00550D8A4F6EF13F06C
:1027E800F8EF13F0FDEF13F00350FAEC19F044EF93
:1027F80014F00550D96EDA6A090ED926DE50DE10BB
:10280800D8B409EF14F00BEF14F024EF14F00550CE
:10281800D96EDA6A090ED9260550E16EE26A020E0F
:10282800E126DE50E65CE650800A0A6EDE50800A39
:102838000A58D8B022EF14F024EF14F044EF14F043
:102848000550D96EDA6A020ED926DECF06F0DDCF42
:1028580007F00550D96EDA6ADECF08F0DDCF09F04F
:1028680006500824D96E07500920DA6E03C0DFFF2E
:102878000550D96EDA6A020ED926DE2A000EDD224C
:102888001200000E096E000E086E0350D96EDA6A47
:10289800DECFF6FFDDCFF7FF0800F5502A0AD8A4EF
:1028A80058EF14F05AEF14F083EF14F00350D96E78
:1028B800DA6ADE2A000EDD220450D96EDA6A020EC8
:1028C800DF26DF5CD96EDA6ADECF08F0DECF09F0EA
:1028D80096EF14F00A0E0802F3CF05F0F4CF06F0D5
:1028E8000902F350062607500524086E000E06203C
:1028F800096E0350D96EDA6ADE2A000EDD22035013
:10290800D96EDA6ADECFF6FFDDCFF7FF0800F550A3
:10291800D00F076E090E076494EF14F096EF14F0C9
:102928006EEF14F008C003F009C004F0120020EEA6
:1029380013F0070EDE6AE806FDE203A0A6EF14F026
:10294800A8EF14F0B8EF14F00B5013260C50142213
:102958000D5015220E5016220F5017221050182213
:102968001150192212501A22D8900B360C360D36F7
:102978000E360F36103611361236D8900A32093212
:10298800083207320632053204320332035004108B
:10299800051006100710081009100A10D8A4D7EF60
:1029A80014F0D9EF14F0A1EF14F013C003F014C021
:1029B80004F015C005F016C006F017C007F018C0DF
:1029C80008F019C009F01AC00AF01200032806E13D
:1029D8000428D8A4F2EF14F0F4EF14F0F6EF14F092
:1029E80037EF15F00550D8A4FCEF14F0FEEF14F003
:1029F80011EF15F0030E0001CD19D8B406EF15F04C
:102A080008EF15F037EF15F0CD51AE0FD96EDA6A31
:102A180003C0DFFFCD2B37EF15F00550D96EDA6A0A
:102A2800070ED926030EDE18DE10D8B41EEF15F0F7
:102A380020EF15F037EF15F00550D96EDA6A070E5A
:102A4800D926DF50066E05500624D96EDA6A040EC0
:102A5800D92603C0DFFF0550D96EDA6A070ED926DA
:102A6800DE2A000EDD2212000001CFA13EEF15F094
:102A780040EF15F048EF15F012C00BF013C00CF042
:102A880011C00DF0CBEC18F015BE4FEF15F04DEF5F
:102A980015F053EF15F0000E156E000E146E000EB3
:102AA800186E000E176E63EF15F0000E046E200E00
:102AB800036E11C005F0E8EC13F0174A182A1450F9
:102AC800175C1850800A166E1550800A1658D8A040
:102AD80070EF15F072EF15F059EF15F00001CFB156
:102AE80078EF15F07AEF15F082EF15F012C00BF0C1
:102AF80013C00CF011C00DF0CBEC18F01200B20EA0
:102B0800046EFF0E056E39EC18F0ACEF15F082BAC2
:102B180090EF15F092EF15F0AAEF15F0680E0B6E16
:102B2800E40EE82EFED70B2EFCD700D082BA9FEF1A
:102B380015F0A1EF15F0AAEF15F097EC19F057EC86
:102B480019F00001F369F469B5EF15F0A6EC19F076
:102B58000001D051D8B4B3EF15F0B5EF15F08BEFF5
:102B680015F0B2EC19F0010E066E020EDAEC17F051
:102B7800D50E066EFF0E076E94EC16F0000E066E6C
:102B8800020E076E94EC16F00001D26BD06B1200A7
:102B9800D00E046EFF0E056E39EC18F0F5EF15F047
:102BA80082BAD9EF15F0DBEF15F0F3EF15F0680EE8
:102BB8000B6EE40EE82EFED70B2EFCD700D082BA9F
:102BC800E8EF15F0EAEF15F0F3EF15F097EC19F0D0
:102BD80057EC19F00001F369F469FEEF15F0A6EC63
:102BE80019F00001D051D8B4FCEF15F0FEEF15F044
:102BF800D4EF15F0B2EC19F0010E066E010EDAEC06
:102C080017F0E20E066EFF0E076E94EC16F0000E3B
:102C1800066E020E076E94EC16F00001D26BD06BB4
:102C2800120095948C9495968C9695988C98959A74
:102C38008C9A959C8C9C959E8C9E020E086E380EE4
:102C4800076EAD0EE82EFED7072EFCD7082EFAD752
:102C580000008C9E8C9C8C8A8C88E9EC19F0200EE4
:102C6800076E2A0EE82EFED7072EFCD7E9EC19F0DE
:102C7800C80EE82EFED7E9EC19F08C9E8C9C8C8A45
:102C88008C98E9EC19F0280E1BEC10F00001F651B5
:102C98001BEC10F00001F5511BEC10F097EC19F04B
:102CA8001200036E2F0E03645CEF16F05EEF16F051
:102CB8006AEF16F03A0E036064EF16F066EF16F04E
:102CC8006AEF16F00350D00F93EF16F0400E03642E
:102CD80070EF16F072EF16F07EEF16F0470E0360F5
:102CE80078EF16F07AEF16F07EEF16F00350C90F62
:102CF80093EF16F0600E036484EF16F086EF16F07B
:102D080092EF16F0670E03608CEF16F08EEF16F058
:102D180092EF16F00350A90F93EF16F0000E120071
:102D28000A6AB1EF16F00A500624086E000E072052
:102D3800096E08C0F6FF09C0F7FF000EF86E0F0E07
:102D4800F76403D00800F55005D0F6CFE9FFF7CFB8
:102D5800EAFFEF509DEC0FF00A2A0A500624086E8D
:102D6800000E0720096E08C0F6FF09C0F7FF000E25
:102D7800F86E0F0EF76403D00800F55005D0F6CFB3
:102D8800E9FFF7CFEAFFEF500009D8A4CEEF16F01D
:102D9800D0EF16F097EF16F01200000E086E000E36
:102DA800076E05500610D8B4DCEF16F0DEEF16F00B
:102DB80006EF17F0010E096EE6EF16F0D89005360B
:102DC8000636092A06AEEBEF16F0EDEF16F0E2EF45
:102DD80016F0D890073608360550035C065004589C
:102DE800D8A0F9EF16F0FBEF16F000EF17F005503A
:102DF800035E0650045A0780D89006320532092E21
:102E0800EDEF16F007C003F008C004F01200000E42
:102E18000B6E000E0C6E000E0D6E000E0E6E03A0F3
:102E280018EF17F01AEF17F022EF17F007500B26DC
:102E380008500C2209500D220A500E22D89007364D
:102E4800083609360A36D89006320532043203327B
:102E58000350041005100610D8A435EF17F037EF0B
:102E680017F013EF17F00BC003F00CC004F00DC0FF
:102E780005F00EC006F0120062EF17F0200E1018D1
:102E88001110D8B44AEF17F04CEF17F062EF17F0B3
:102E980010C00FF0F70E0F26040E0F6456EF17F050
:102EA80058EF17F062EF17F010C003F011C004F0EC
:102EB8000EC005F0EAEC14F074EF17F00EC005F040
:102EC8009BEC0EF005C010F006C011F0102806E1CA
:102ED8001128D8A472EF17F074EF17F042EF17F02B
:102EE8001200700ED36E15EC16F097EC19F0DAECB0
:102EF80019F0EFEC19F06EEC19F0290E0001A96F2A
:102F0800960EA86F7F0EE82EFED7A82FFCD7A92F04
:102F1800FAD7A60E046EFF0E056E39EC18F0020EF5
:102F28000001A96F040EA86FBA0EE82EFED7A82FCD
:102F3800FCD7A92FFAD7000034EC0BF00FEC08F0FF
:102F4800A0EF17F06EEF00F005500610D8B4AFEF01
:102F580017F0B1EF17F0D5EF17F0010E076EB9EFC4
:102F680017F0D89005360636072A06AEBEEF17F0DA
:102F7800C0EF17F0B5EF17F00550035C0650045882
:102F8800D8A0C9EF17F0CBEF17F0CFEF17F0055027
:102F9800035E0650045AD89006320532072EC0EF59
:102FA80017F003C003F004C004F01200076E070412
:102FB800D8A4E1EF17F0E3EF17F0E5EF17F07F0E75
:102FC8000626020E0718D8A4ECEF17F0EEEF17F05C
:102FD800F0EF17F0BF0E0626030E0718D8A4F7EF78
:102FE80017F0F9EF17F0FBEF17F0930E0626040E13
:102FF8000718D8A402EF18F004EF18F006EF18F03D
:10300800D30E062606501BEC10F01200F00EF66EDA
:10301800330EF76E000EF86E00EEF3F010EE04F0CB
:103028000900F5CFEEFFE550E150FAE102EE00F0BD
:1030380011EE00F0EE6AE550E150FCE1E250FAE1F1
:1030480001EE00F07C0EEE6AE806FDE100EEAAF063
:10305800490EEE6AE806FDE15B6A5A6A5C905C928A
:10306800000EF86E000175EF17F0000E096E000EE5
:10307800086E4FEF18F008500424066E095005201A
:10308800076E06C0F6FF07C0F7FF0800F550BEEC54
:1030980019F0084A092A08500424066E0950052028
:1030A800076E06C0F6FF07C0F7FF0800F5500009D5
:1030B800D8A461EF18F063EF18F03FEF18F0120092
:1030C80003C0D9FF04C0DAFF0550DE18D8A46FEF9B
:1030D80018F071EF18F077EF18F003C003F004C090
:1030E80004F089EF18F003C0D9FF04C0DAFF034ADF
:1030F800042ADF50D8A483EF18F085EF18F064EFA6
:1031080018F0000E036E000E046E120033C036F085
:1031180034C037F098EF18F032C025F0360E266E1E
:1031280035C027F038EC09F036C0F6FF37C0F7FF96
:103138000800F5500009D8A4A4EF18F0A6EF18F07D
:1031480090EF18F0000E336E000E326E12003C0E37
:10315800426E38C043F039C044F0000E466E000E8F
:10316800456E000E4D6E000E4C6E430E326E3AC028
:1031780033F03BC034F0420E356E8AEC18F04550FF
:103188003824D96E46503920DA6EDF6A1200000EF4
:10319800106E000E0F6EDAEF18F00EC003F0046A1E
:1031A8000DC005F0E8EC13F00F4A102A0F500B245D
:1031B800D96E10500C20DA6EDF500E6E0E50D8A467
:1031C800E8EF18F0EAEF18F0D1EF18F0120003C09A
:1031D80005F004C006F0F3EF18F0034A042A03C010
:1031E800F6FF04C0F7FF0800F5500009D8A4FFEF68
:1031F80018F001EF19F0F1EF18F00550035C036EB9
:1032080006500458046E1200040E066E010EDAEC25
:1032180017F04E0E066EFF0E076E94EC16F0050EB4
:10322800066E020EDAEC17F04D0E066EFF0E076EF4
:1032380094EC16F0CCEC15F083EC15F01200C28279
:10324800C2B229EF19F02BEF19F024EF19F0340E60
:10325800056EF20EE82EFED7052EFCD7C350C4CF5C
:1032680005F0066A05C006F0056A0510036E0650EB
:10327800046E1200880E00018A6F85C08BF08C6B7B
:10328800000E8E6F000E8D6F000E936F000E926F02
:103298008B0E7B6F86C07CF087C07DF08A0E7E6FB8
:1032A800C6EC12F01200010E066E010EDAEC17F0F1
:1032B800DD0E066EFE0E076E94EC16F0010E066E1D
:1032C800020EDAEC17F0FF0E066EFE0E076E94EC97
:1032D80016F012000F013A6B949C948EAC8AAC9C49
:1032E800AC98AC84B886010EB06EA00EAF6EB898DC
:1032F800B89AAB8EAB88AB9C9D8AF28CF28E12008A
:10330800066E0650D8B48BEF19F08DEF19F091EFD7
:1033180019F00001F68193EF19F00001F691F651CA
:103328001BEC10F01200010E1BEC10F00C0E066ED8
:10333800A20EE82EFED7062EFCD70001F5511BEC95
:1033480010F01200100E066E010EDAEC17F0FC0EEB
:10335800066EFF0E076E94EC16F01200100E066E45
:10336800010EDAEC17F0FA0E066EFF0E076E94ECFB
:1033780016F01200036EACA2C4EF19F0C6EF19F0F4
:10338800BFEF19F003C0ADFF1200BD86BD94BD822A
:10339800BD80C30EBF6E500EBE6E1200CD8ACD88A2
:1033A800CD96CD84CD9ECD9CCD80120093880F0103
:1033B8003999948A3A9B928038811200DCEC0CF09F
:1033C8000EEC11F086EC0DF012008C86500EE82EF3
:1033D800FED78C961200010EC26EC16AAA0EC06E8C
:0E33E8001200036804681200FFFF060C1200BA
:10FE840000534541524348494E472E2E2E53544F5A
:10FE940050504544004F42444949204E6F74204617
:10FEA4006F756E6420003E3E3E204F4244494950E7
:10FEB4004943203C3C3C00592F4E203C3C3C3C3CBC
:10FEC4003C3C3C3C3C3C3C003D3D3D3D3D3D3D3DA2
:10FED4003D3D3D3D3D3D3D3D004D454E5520203C85
:10FEE4004F424449495049433E003C4F42444949EA
:10FEF4002044657465637465643E004C524D20442F
:10FF040054432043444320445349004E6F7468696A
:10FF14006E6720436C6561726564004454432773C3
:10FF240020526571756573746564003E3E3E3E20E3
:10FF340056312E30203C3C3C3C00436C65617220C1
:10FF4400436F64652873293F00202020202020204F
:10FF54002020202020200044544328732920466F69
:10FF6400756E643A00436F64657320436C65617217
:10FF74006564004E6F204454437320466F756E646D
:10FF8400004C6F6164696E672E2E2E00546F204DF5
:10FF9400656E752E2E2E002563253031582530329E
:10FFA4005800415445300D0041544C300D0030315F
:10FFB40030380D00303130430D00303130460D0003
:10FFC400415452560D005642617474004154490D17
:10FFD400005341453A0030330D0030340D004F5387
:10FFE4003A004E2F410052504D00414954002575AE
:0BFFF4000025780043005E007E000046
:020000040030CA
:0E000000FF380E3CFFBF85FF0FC00FE00F4022
:00000001FF
