:04000000FEEF7FF0A0
:10100000002A2A2A204F42444949504943202A2A8B
:101010002A00454345333330314C2050726F6A65A6
:1010200063740000036E8C84016A03AE01D0012A50
:10103000010E0116013201328C5001187F0B01188C
:101040008C6E03C001F0060E026ED8900132022EA3
:1010500025EF08F0010E0116013A014601468C50B9
:101060000118BF0B01188C6E03C001F0050E026E53
:10107000D8900132022E38EF08F0010E0116013A25
:1010800001468C500118DF0B01188C6E03C001F073
:10109000013A0F0E0116010E0116013A8C5001188B
:1010A000EF0B01188C6EE3EC09F003C001F0D8904F
:1010B0000132D8900132D8900132010E011601326E
:1010C00001328C5001187F0B01188C6E03C001F0A7
:1010D000D8900132D8900132010E0116013A014632
:1010E00001468C500118BF0B01188C6E03C001F033
:1010F000D8900132010E0116013A01468C500118B8
:10110000DF0B01188C6E03C001F0010E0116013ACD
:101110008C500118EF0B01188C6EE3EC09F01200F3
:10112000036E8C94016A03AE01D0012A010E0116F0
:10113000013201328C5001187F0B01188C6E03C0F4
:1011400001F0060E026ED8900132022EA3EF08F0D5
:10115000010E0116013A014601468C500118BF0BE1
:1011600001188C6E03C001F0050E026ED89001329A
:10117000022EB6EF08F0010E0116013A01468C501E
:101180000118DF0B01188C6E03C001F0013A0F0E3D
:101190000116010E0116013A8C500118EF0B0118CF
:1011A0008C6EE3EC09F003C001F0D8900132D890C6
:1011B0000132D8900132010E0116013201328C50F9
:1011C00001187F0B01188C6E03C001F0D89001321A
:1011D000D8900132010E0116013A014601468C50A9
:1011E0000118BF0B01188C6E03C001F0D8900132BA
:1011F000010E0116013A01468C500118DF0B01184F
:101200008C6E03C001F0010E0116013A8C500118DA
:10121000EF0B01188C6EE3EC09F0120095948C949E
:1012200095968C9695988C98959A8C9A959C8C9C72
:10123000959E8C9E050E066EDF0E056EBC0EE82E8A
:10124000FED7052EFCD7062EFAD78C9E8C9C8C8A56
:101250008C88E3EC09F07D0E056EAC0EE82EFED70F
:10126000052EFCD7E3EC09F0040E056E1C0EE82EEB
:10127000FED7052EFCD700D0E3EC09F08C9E8C9CA9
:101280008C8A8C98E3EC09F0280E90EC08F00C5056
:1012900090EC08F00B5090EC08F0C7EC09F012004D
:1012A000056E0504D8A457EF09F059EF09F05BEF7C
:1012B00009F07F0E0426020E0518D8A462EF09F08B
:1012C00064EF09F066EF09F0BF0E0426030E05185F
:1012D000D8A46DEF09F06FEF09F071EF09F0930EEC
:1012E0000426040E0518D8A478EF09F07AEF09F067
:1012F0007CEF09F0D30E0426045090EC08F01200A5
:10130000066A8DEF09F004500624056E05C0F6FF4D
:101310000800F55012EC08F0062A04500624056E69
:1013200005C0F6FF0800F5500009D8A49AEF09F0AF
:101330009CEF09F083EF09F01200D40EF66E130E45
:10134000F76E000EF86E0900F5CF0BF00900F5CF2F
:101350000CF00A6A096A086A076A000EF86E100E35
:10136000F76E0001D6EF09F0010E046E010E50EC8D
:1013700009F0010E046E80EC09F0010E046E020EFD
:1013800050EC09F0120E046E80EC09F01200010E10
:1013900090EC08F02F0E046E8A0EE82EFED7042E75
:1013A000FCD700D00B5090EC08F01200700ED36EFA
:1013B0009B8C0EEC09F0C7EC09F0B4EC09F0DDEF02
:1013C00009F0FEEF7FF08C86C00E00D0E82EFDD72E
:0613D0008C961200060CD1
:04FFFC009DEF09F07C
:020000040030CA
:0E000000FF380E3CFFBF85FF0FC00FE00F4022
:00000001FF
