:0400000069EF00F0B4
:100008005382D9CF01F0DACF02F09DAA0EEF00F0AB
:1000180010EF00F063EF00F09EAA15EF00F017EF65
:1000280000F063EF00F0AECF4DF0ABA21EEF00F092
:1000380020EF00F022EF00F0AB98AB881F0E4D6464
:1000480028EF00F02AEF00F042EF00F07F0E4D603D
:1000580030EF00F032EF00F042EF00F03E0E4D18A6
:10006800D8B439EF00F03BEF00F042EF00F04E500B
:10007800800FD96EDA6A4DC0DFFF4E2A3E0E4D184A
:10008800D8B449EF00F04BEF00F05CEF00F00A0E37
:100098004D18D8B452EF00F054EF00F05CEF00F0C8
:1000A8001E0E4E645AEF00F05CEF00F063EF00F0B4
:1000B8004E50800FD96EDA6ADF6A010E4C6E02C0AC
:1000C800DAFF01C0D9FF539211002EEF0BF032EC8A
:1000D8000CF0E1EC0BF0E1EC0BF0C6EC0BF003C01C
:1000E80049F004C04AF04A04D8B07DEF00F07FEF31
:1000F80000F088EF00F0000E506E000E4F6E010EFB
:10010800066E020ED3EC0AF04A04D8A08EEF00F077
:1001180090EF00F0A2EF00F0020E4A5CD8B097EF23
:1001280000F099EF00F0A2EF00F0000E506E010E03
:100138004F6E050E066E020ED3EC0AF0020E4A5CF4
:10014800D8A0A9EF00F0ABEF00F0BDEF00F0030E70
:100158004A5CD8B0B2EF00F0B4EF00F0BDEF00F0A9
:10016800000E506E020E4F6E090E066E020ED3EC94
:100178000AF0030E4A5CD8A0C4EF00F0C6EF00F006
:10018800D8EF00F0040E4A5CD8B0CDEF00F0CFEF06
:1001980000F0D8EF00F0000E506E030E4F6E0D0EFB
:1001A800066E020ED3EC0AF0010E21EC0CF081B8B9
:1001B800E0EF00F0E2EF00F078EF01F0680E336E48
:1001C800E40EE82EFED7332EFCD700D081B8EFEF2F
:1001D80000F0F1EF00F078EF01F0000E21EC0CF0E8
:1001E80032EC0CF05AEF01F00EEC0CF082BAFFEF93
:1001F80000F001EF01F0F8EF00F0680E336EE40E46
:10020800E82EFED7332EFCD700D082BA0EEF01F0CD
:1002180010EF01F0F8EF00F032EC0CF0E1EC0BF02D
:100228004F68506878EF01F082BA1DEF01F01FEFB8
:1002380001F018EF01F0680E336EE40EE82EFED7D9
:10024800332EFCD700D082BA2CEF01F02EEF01F04C
:1002580018EF01F010EF01F0050E346E0F0E336E3B
:10026800F10EE82EFED7332EFCD7342EFAD7000035
:1002780087EC01F014EF01F0ABEC0BF082BA47EF1A
:1002880001F049EF01F040EF01F0680E336EE40E23
:10029800E82EFED7332EFCD700D082BA56EF01F0F5
:1002A80058EF01F040EF01F010EF01F04FC033F0CC
:1002B80050C034F03450000AD8B465EF01F078EF3C
:1002C80001F03350000AD8B4F8EF00F0010AD8B4AE
:1002D80018EF01F0030AD8B430EF01F0010AD8B4DE
:1002E80040EF01F078EF01F0020E346E040E336E29
:1002F800BA0EE82EFED7332EFCD7342EFAD700D00C
:100308006FEF00F01200000E0E6E000E0D6E32EC54
:100318000CF0010E066E010ED3EC0AF0710E066E9B
:10032800FF0E076EC3EC09F0010E066E020ED3EC49
:100338000AF0210E066EFF0E076EC3EC09F0010EDF
:1003480021EC0CF0C6EC0BF003C049F004C04AF0F5
:10035800020E4A5CD8B0B3EF01F0B5EF01F0BEEF82
:1003680001F0000E0E6E000E0D6E010E066E020EEE
:10037800D3EC0AF0020E4A5CD8A0C5EF01F0C7EF33
:1003880001F0D9EF01F0040E4A5CD8B0CEEF01F0CD
:10039800D0EF01F0D9EF01F0000E0E6E010E0D6ED8
:1003A800030E066E020ED3EC0AF082BADEEF01F0FD
:1003B800E0EF01F0F7EF01F0680E0B6EE40EE82EA7
:1003C800FED70B2EFCD700D082BAEDEF01F0EFEF8D
:1003D80001F0F7EF01F032EC0CF0E1EC0BF04F68B4
:1003E80050687BEF02F081B8FCEF01F0FEEF01F0FE
:1003F800A6EF01F0680E0B6EE40EE82EFED70B2E6A
:10040800FCD700D081B80BEF02F00DEF02F0A6EF99
:1004180001F065EF02F0E40E046EFF0E056E03ECCA
:100428000BF019EF02F040EC0CF04C50D8B41FEF71
:1004380002F021EF02F017EF02F04CEC0CF032EC76
:100448000CF0010E066E010ED3EC0AF09D0E066E3E
:10045800FF0E076EC3EC09F0010E066E020ED3EC18
:100468000AF0AB0E066EFF0E076EC3EC09F04F687C
:100478005068290E0C6E960E0B6E7F0EE82EFED776
:100488000B2EFCD70C2EFAD700007BEF02F032ECD3
:100498000CF0010E066E010ED3EC0AF0520E066E39
:1004A800FF0E076EC3EC09F0010E066E020ED3ECC8
:1004B8000AF0AB0E066EFF0E076EC3EC09F03BEFB9
:1004C80002F00DC00BF00EC00CF00C50000AD8B4AE
:1004D80070EF02F07BEF02F00B50000AD8B40FEF78
:1004E80002F0010AD8B44BEF02F07BEF02F01200E1
:1004F800000E1F6E000E1E6E000E216E000E206E86
:1005080032EC0CF0010E066E010ED3EC0AF0100E60
:10051800066EFF0E076EC3EC09F0010E066E020EA2
:10052800D3EC0AF0620E066EFF0E076EC3EC09F0FC
:1005380063EC0CF06CEC0CF0000E216E000E206EDB
:10054800000E1F6E000E1E6E9EA4ADEF02F0AFEF00
:1005580002F0E5EF02F09E94CD80204A212A100E89
:10056800066E020ED3EC0AF020C003F021C004F09E
:10057800000E066E0A0E056E00EC0AF003C011F0BC
:1005880004C012F0136A146A010E156E1BEC04F015
:1005980020C003F021C004F0000E066E0A0E056E9E
:1005A800A1EC0AF003500410D8A4DDEF02F0DFEF4D
:1005B80002F0E5EF02F0DA0E046EFF0E056E03ECB2
:1005C8000BF04C50D8B4EBEF02F0EDEF02F0F3EF84
:1005D80002F0000E1F6E010E1E6E4E6A4C6A1E500F
:1005E8001F10D8B4FAEF02F0FCEF02F009EF03F0A5
:1005F800215009E1280E205CD8A005EF03F007EF91
:1006080003F0A8EF02F02CEF03F0000E216E000EAD
:10061800206E010E066E020ED3EC0AF0FF0E066E77
:10062800FE0E076EC3EC09F0DA0E046EFF0E056EBF
:1006380003EC0BF0020E1D6E040E1C6EBA0EE82EB3
:10064800FED71C2EFCD71D2EFAD700D0A8EF02F03B
:1006580032EC0CF0010E066E010ED3EC0AF0800E9F
:10066800066EFF0E076EC3EC09F0520E1D6E2B0EC0
:100678001C6E000EE82EFED71C2EFCD71D2EFAD7B6
:1006880000D0B60E046EFF0E056E03EC0BF0020EE2
:100698001D6E040E1C6EBA0EE82EFED71C2EFCD75B
:1006A8001D2EFAD700D012000C50D96EDA6ADECFB0
:1006B800F6FFDDCFF7FF0800F550250AD8A467EF4D
:1006C80003F069EF03F009EF04F00C50D96EDA6A11
:1006D800DE2A000EDD22000E3C6E000E3B6E3BC093
:1006E8004BF03D683E680C50D96EDA6ADECF10F0E8
:1006F800DDCF11F010C0F6FF11C0F7FF0800F5506C
:10070800750AD8A48AEF03F08CEF03F001EF04F028
:100718000D50D96EDA6A020EDF26DF5CD96EDA6A0E
:10072800DECF12F0DECF13F0010E10240E6E000E95
:1007380011200F6E0C50D96EDA6A0EC0DEFF0FC0A2
:10074800DDFFF5EF03F0200E166E16061650600F4B
:10075800D96EDA6A12C003F013C004F0000E066EF8
:100768000A0E056EA1EC0AF00350300FDF6E12C0BE
:1007780003F013C004F0000E066E0A0E056E00ECBE
:100788000AF003C012F004C013F012501310D8B4CA
:10079800D0EF03F0D2EF03F0EAEF03F01650D8A43D
:1007A800D8EF03F0DAEF03F0A9EF03F0EAEF03F074
:1007B8001650600FD96EDA6ADF500E6E0E50036E57
:1007C800046A0BC005F067EC08F0162A200E16180C
:1007D800D8A4F1EF03F0F3EF03F0DCEF03F01AEF26
:1007E80004F010C0F6FF11C0F7FF0800F550750AB5
:1007F800D8B4A7EF03F001EF04F00C50D96EDA6A11
:10080800DE2A000EDD221AEF04F00C50D96EDA6AE7
:10081800DECFF6FFDDCFF7FF0800F550036E046A60
:100828000BC005F067EC08F001EF04F01200176A3E
:1008380014BE23EF04F021EF04F03DEF04F011C0E3
:1008480003F012C004F013C005F014C006F0FF0E48
:10085800076EFF0E086EFF0E096EFF0E0A6E3AEC69
:100868000AF003C011F004C012F005C013F006C06E
:1008780014F011C018F012C019F013C01AF014C007
:100888001BF0172A1BBE56EF04F01B501A10191044
:1008980007E10A0E185CD8B054EF04F056EF04F0E4
:1008A80058EF04F074EF04F018C003F019C004F016
:1008B8001AC005F01BC006F00A0E076E000E086E7F
:1008C800000E096E000E0A6E04EC06F003C018F064
:1008D80004C019F005C01AF006C01BF045EF04F07B
:1008E8001550175CD8A07BEF04F07DEF04F07FEF84
:1008F80004F085EF04F0200E89EC06F0150674EF7D
:1009080004F011C018F012C019F013C01AF014C086
:100918001BF0010E166EACEF04F018C003F019C0FE
:1009280004F01AC005F01BC006F00A0E076E000E90
:10093800086E000E096E000E0A6E04EC06F003C085
:1009480018F004C019F005C01AF006C01BF0162AEA
:100958001750165CD8A0B3EF04F0B5EF04F091EF90
:1009680004F018C003F019C004F01AC005F01BC049
:1009780006F00A0E076E000E086E000E096E000ED5
:100988000A6E85EC07F00350300F89EC06F0170665
:100998001750D8A4D2EF04F0D4EF04F085EF04F098
:1009A8001200C20E046EFF0E056E03EC0BF0FDEF95
:1009B80004F082BAE2EF04F0E4EF04F0FBEF04F095
:1009C800680E2E6EE40EE82EFED72E2EFCD700D031
:1009D80082BAF1EF04F0F3EF04F0FBEF04F032EC2D
:1009E8000CF0E1EC0BF04F68506805EF05F040ECB7
:1009F8000CF04C50D8B403EF05F005EF05F0DDEF2F
:100A080004F04CEC0CF00001845146EC09F02E6E19
:100A18002F6A2E3A2F3AF00E2F162E500F0B2F1248
:100A2800F00E2E160001855146EC09F0306E30505C
:100A38002E10476E2F50486E0001865146EC09F083
:100A48002E6E2F6A2E3A2F3AF00E2F162E500F0BBD
:100A58002F12F00E2E160001875146EC09F0306E69
:100A680030502E10456E2F50466E47502F6E2E6A0E
:100A780045502E2646502F22D8902F322E32D8900D
:100A88002F322E322EC043F02FC044F0B00E1D6E10
:100A9800F80E1E6EFF0E1F6E43C020F044C021F0FA
:100AA8008FEC0BF0010E066E020ED3EC0AF0970ED7
:100AB800066EFF0E076EC3EC09F0010E066E010EFE
:100AC800D3EC0AF0F00E066EFF0E076EC3EC09F0C9
:100AD800010E066E020ED3EC0AF0B00E066E076A1F
:100AE800C3EC09F04E6A4C6A1200C80E046EFF0E81
:100AF800056E03EC0BF0A1EF05F082BA86EF05F066
:100B080088EF05F09FEF05F0680E2E6EE40EE82ED4
:100B1800FED72E2EFCD700D082BA95EF05F097EFBE
:100B280005F09FEF05F032EC0CF0E1EC0BF04F68AC
:100B38005068A9EF05F040EC0CF04C50D8B4A7EF82
:100B480005F0A9EF05F081EF05F04CEC0CF00D0E67
:100B5800066E020ED3EC0AF0990E066EFF0E076EB3
:100B6800C3EC09F00001845146EC09F02E6E2F6A9F
:100B78002E3A2F3AF00E2F162E500F0B2F12F00E82
:100B88002E160001855146EC09F0306E30502E10BB
:100B9800416E2F50426ED80E41243F6EFF0E422008
:100BA800406EA00E1D6EF80E1E6EFF0E1F6E3FC02B
:100BB80020F040C021F08FEC0BF00D0E066E010EF8
:100BC800D3EC0AF0F40E066EFF0E076EC3EC09F0C4
:100BD8000D0E066E020ED3EC0AF0A00E066E076A22
:100BE800C3EC09F00F0E066E020ED3EC0AF0FD0EF0
:100BF800066EFF0E076EC3EC09F04E6A4C6A1200CF
:100C08000C6A0ABE0CEF06F00AEF06F016EF06F0C3
:100C18000A1E091E081E076C000E082209220A2255
:100C2800010E0C6E06BE1DEF06F01BEF06F027EF57
:100C380006F0061E051E041E036C000E0422052283
:100C48000622010E0C1A000E0D6E000E0E6E000E1E
:100C58000F6E000E106E0750081009100A10D8B455
:100C680038EF06F03AEF06F070EF06F0010E0B6E63
:100C780044EF06F0D8900736083609360A360B2AAC
:100C88000AAE49EF06F04BEF06F03EEF06F0D890BB
:100C98000D360E360F3610360750035C08500458D0
:100CA800095005580A500658D8A05DEF06F05FEFC6
:100CB80006F068EF06F00750035E0850045A095022
:100CC800055A0A50065A0D80D8900A32093208325D
:100CD80007320B2E4BEF06F00C50D8B476EF06F027
:100CE80078EF06F080EF06F0101E0F1E0E1E0D6C3A
:100CF800000E0E220F2210220DC003F00EC004F0C9
:100D08000FC005F010C006F01200056E8C84036A4F
:100D180005AE01D0032A010E0316033203328C50AC
:100D280003187F0B03188C6E05C003F0060E046EC3
:100D3800D8900332042E9CEF06F0010E0316033AF6
:100D4800034603468C500318BF0B03188C6E05C06E
:100D580003F0050E046ED8900332042EAFEF06F0B0
:100D6800010E0316033A03468C500318DF0B0318D1
:100D78008C6E05C003F0033A0F0E0316010E03161E
:100D8800033A8C500318EF0B03188C6E7CEC0CF0B4
:100D980005C003F0D8900332D8900332D8900332BC
:100DA800010E0316033203328C5003187F0B03180D
:100DB8008C6E05C003F0D8900332D8900332010E30
:100DC8000316033A034603468C500318BF0B031857
:100DD8008C6E05C003F0D8900332010E0316033A57
:100DE80003468C500318DF0B03188C6E05C003F004
:100DF800010E0316033A8C500318EF0B03188C6E80
:100E08007CEC0CF01200056E8C94036A05AE01D0E0
:100E1800032A010E0316033203328C5003187F0B8A
:100E280003188C6E05C003F0060E046ED8900332CA
:100E3800042E1AEF07F0010E0316033A0346034681
:100E48008C500318BF0B03188C6E05C003F0050EF9
:100E5800046ED8900332042E2DEF07F0010E03160E
:100E6800033A03468C500318DF0B03188C6E05C039
:100E780003F0033A0F0E0316010E0316033A8C50C3
:100E88000318EF0B03188C6E7CEC0CF005C003F014
:100E9800D8900332D8900332D8900332010E03164B
:100EA800033203328C5003187F0B03188C6E05C075
:100EB80003F0D8900332D8900332010E0316033A98
:100EC800034603468C500318BF0B03188C6E05C0ED
:100ED80003F0D8900332010E0316033A03468C50F0
:100EE8000318DF0B03188C6E05C003F0010E031600
:100EF800033A8C500318EF0B03188C6E7CEC0CF043
:100F080012000C6A06BE8DEF07F08BEF07F097EF23
:100F180007F0061E051E041E036C000E042205229F
:100F28000622010E0C6E0ABE9EEF07F09CEF07F03A
:100F3800A6EF07F00A1E091E081E076C000E0822FD
:100F480009220A220750081009100A10D8B4AFEF76
:100F580007F0B1EF07F0E1EF07F0010E0B6EBBEF02
:100F680007F0D8900736083609360A360B2A0AAE33
:100F7800C0EF07F0C2EF07F0B5EF07F00750035CCA
:100F880008500458095005580A500658D8A0CFEF01
:100F980007F0D1EF07F0D9EF07F00750035E0850CC
:100FA800045A0950055A0A50065AD8900A3209328A
:100FB800083207320B2EC2EF07F00C50D8B4E7EF17
:100FC80007F0E9EF07F0F1EF07F0061E051E041E13
:100FD800036C000E04220522062203C003F004C09D
:100FE80004F005C005F006C006F01200CE0E046E2F
:100FF800FF0E056E03EC0BF022EF08F082BA07EF44
:1010080008F009EF08F020EF08F0680E0B6EE40E08
:10101800E82EFED70B2EFCD700D082BA16EF08F0C8
:1010280018EF08F020EF08F032EC0CF0E1EC0BF0D0
:101038004F6850682AEF08F040EC0CF04C50D8B4D8
:1010480028EF08F02AEF08F002EF08F04CEC0CF05B
:10105800070E066E020ED3EC0AF0970E066EFF0E10
:10106800076EC3EC09F0070E066E010ED3EC0AF00A
:10107800D40E066EFF0E076EC3EC09F0070E066E5F
:10108800020ED3EC0AF0800E036E000E056E560EAB
:10109800046E72EC0BF00009D8A455EF08F057EF76
:1010A80008F05FEF08F0EC0E066EFF0E076EC3EC5B
:1010B80009F064EF08F0800E066E076AC3EC09F0C9
:1010C8004E6A4C6A12000550D8B46DEF08F06FEF05
:1010D80008F077EF08F00550D8A475EF08F077EF1F
:1010E80008F07CEF08F003508AEC0CF0BBEF08F036
:1010F8000550D96EDA6A090ED926DE50DE10D8B44A
:1011080088EF08F08AEF08F0A3EF08F00550D96ED1
:10111800DA6A090ED9260550E16EE26A020EE12666
:10112800DE50E65CE650800A0A6EDE50800A0A58F5
:10113800D8B0A1EF08F0A3EF08F0BBEF08F0055016
:10114800D96EDA6A020ED926DF50066E0550D96EBE
:10115800DA6ADF500624D96EDA6A03C0DFFF055069
:10116800D96EDA6A020ED926DE2A000EDD221200B6
:10117800BC0E046EFF0E056E03EC0BF0E4EF08F0F6
:1011880082BAC9EF08F0CBEF08F0E2EF08F0680E7A
:101198000B6EE40EE82EFED70B2EFCD700D082BAD9
:1011A800D8EF08F0DAEF08F0E2EF08F032EC0CF0D4
:1011B800E1EC0BF04F685068ECEF08F040EC0CF0F5
:1011C8004C50D8B4EAEF08F0ECEF08F0C4EF08F0A0
:1011D8004CEC0CF0010E066E020ED3EC0AF0DF0E9A
:1011E800066EFF0E076EC3EC09F0800E066E076AE6
:1011F800C3EC09F04E6A4C6A1200DA0E046EFF0E58
:10120800056E03EC0BF029EF09F082BA0EEF09F036
:1012180010EF09F027EF09F0680E0B6EE40EE82EC8
:10122800FED70B2EFCD700D082BA1DEF09F01FEFB6
:1012380009F027EF09F032EC0CF0E1EC0BF04F6805
:10124800506831EF09F040EC0CF04C50D8B42FEF57
:1012580009F031EF09F009EF09F04CEC0CF0010E40
:10126800066E010ED3EC0AF0E80E066EFF0E076E4E
:10127800C3EC09F0800E066E076AC3EC09F04E6AEB
:101288004C6A1200036E2F0E03644DEF09F04FEF06
:1012980009F05BEF09F03A0E036055EF09F057EFDC
:1012A80009F05BEF09F00350D00F84EF09F0400E0E
:1012B800036461EF09F063EF09F06FEF09F0470E7F
:1012C800036069EF09F06BEF09F06FEF09F0035065
:1012D800C90F84EF09F0600E036475EF09F077EF2A
:1012E80009F083EF09F0670E03607DEF09F07FEFE7
:1012F80009F083EF09F00350A90F84EF09F0000EFD
:10130800120095948C9495968C9695988C98959AAD
:101318008C9A959C8C9C959E8C9E020E086E380E1D
:10132800076EAD0EE82EFED7072EFCD7082EFAD78B
:1013380000008C9E8C9C8C8A8C887CEC0CF0200E97
:10134800076E2A0EE82EFED7072EFCD77CEC0CF091
:10135800C80EE82EFED77CEC0CF08C9E8C9C8C8AF8
:101368008C987CEC0CF0280E07EC07F0525007EC38
:1013780007F0515007EC07F032EC0CF012000A6A43
:10138800E0EF09F00A500624086E000E0720096EE7
:1013980008C0F6FF09C0F7FF000EF86E0F0EF764DD
:1013A80003D00800F55005D0F6CFE9FFF7CFEAFFE4
:1013B800EF5089EC06F00A2A0A500624086E000E3F
:1013C8000720096E08C0F6FF09C0F7FF000EF86E87
:1013D8000F0EF76403D00800F55005D0F6CFE9FFEB
:1013E800F7CFEAFFEF500009D8A4FDEF09F0FFEFAF
:1013F80009F0C6EF09F01200000E086E000E076E25
:1014080005500610D8B40BEF0AF00DEF0AF035EFCF
:101418000AF0010E096E15EF0AF0D8900536063667
:10142800092A06AE1AEF0AF01CEF0AF011EF0AF0CB
:10143800D890073608360550035C06500458D8A0E3
:1014480028EF0AF02AEF0AF02FEF0AF00550035EA2
:101458000650045A0780D89006320532092E1CEF30
:101468000AF007C003F008C004F01200000E0B6E6B
:10147800000E0C6E000E0D6E000E0E6E03A047EFF0
:101488000AF049EF0AF051EF0AF007500B2608500E
:101498000C2209500D220A500E22D8900736083621
:1014A80009360A36D8900632053204320332035020
:1014B800041005100610D8A464EF0AF066EF0AF0CD
:1014C80042EF0AF00BC003F00CC004F00DC005F0A9
:1014D8000EC006F01200700ED36E85EC09F032ECE7
:1014E8000CF074EC0CF082EC0CF0F8EC0BF0290E1C
:1014F800366E960E356E7F0EE82EFED7352EFCD74B
:10150800362EFAD70000B60E046EFF0E056E03ECF9
:101518000BF0020E366E040E356EBA0EE82EFED7AC
:10152800352EFCD7362EFAD700D07CEC02F06BECC7
:1015380000F099EF0AF069EF00F005500610D8B4F2
:10154800A8EF0AF0AAEF0AF0CEEF0AF0010E076E34
:10155800B2EF0AF0D89005360636072A06AEB7EF7E
:101568000AF0B9EF0AF0AEEF0AF00550035C065036
:101578000458D8A0C2EF0AF0C4EF0AF0C8EF0AF086
:101588000550035E0650045AD89006320532072EDD
:10159800B9EF0AF003C003F004C004F01200076EAC
:1015A8000704D8A4DAEF0AF0DCEF0AF0DEEF0AF05D
:1015B8007F0E0626020E0718D8A4E5EF0AF0E7EF1B
:1015C8000AF0E9EF0AF0BF0E0626030E0718D8A4A2
:1015D800F0EF0AF0F2EF0AF0F4EF0AF0930E0626A5
:1015E800040E0718D8A4FBEF0AF0FDEF0AF0FFEF8E
:1015F8000AF0D30E0626065007EC07F01200000E7C
:10160800096E000E086E19EF0BF008500424066EE0
:1016180009500520076E06C0F6FF07C0F7FF08004F
:10162800F55058EC0CF0084A092A08500424066EB4
:1016380009500520076E06C0F6FF07C0F7FF08002F
:10164800F5500009D8A42BEF0BF02DEF0BF009EFA4
:101658000BF01200100EF66E190EF76E000EF86EF3
:1016680000EE4FF010EE04F00900F5CFEEFFE55064
:10167800E150FAE100EE60F0600EEE6AE806FDE186
:1016880000EE37F0180EEE6AE806FDE1539053922B
:10169800000EF86E00016FEF0AF018C01BF019C0B9
:1016A8001CF05FEF0BF017C00BF01B0E0C6E1AC08E
:1016B8000DF058EC03F01BC0F6FF1CC0F7FF080044
:1016C800F5500009D8A46BEF0BF06DEF0BF057EF56
:1016D8000BF0000E186E000E176E12000350D96E34
:1016E800DA6A0450DE18D8A47CEF0BF07EEF0BF01A
:1016F80081EF0BF003508EEF0BF0032A0304D96E31
:10170800DA6ADF50D8A48BEF0BF08DEF0BF072EF95
:101718000BF0000E1200200E226E1DC023F0000EEA
:10172800266E000E256E000E2D6E000E2C6E230EFA
:10173800176E1EC018F01FC019F0220E1A6E51EC59
:101748000BF01D502524D96EDA6ADF6A1200040EE8
:10175800066E010ED3EC0AF0900E066EFF0E076EB1
:10176800C3EC09F0050E066E020ED3EC0AF08F0EDC
:10177800066EFF0E076EC3EC09F001EC09F0BCEC35
:1017880008F01200C282C2B2CCEF0BF0CEEF0BF021
:10179800C7EF0BF0340E056EF20EE82EFED7052EBD
:1017A800FCD7C350C4CF05F0066A05C006F0056A29
:1017B8000510036E0650046E1200010E066E010E2F
:1017C800D3EC0AF0320E066EFF0E076EC3EC09F07A
:1017D800010E066E020ED3EC0AF0420E066EFF0EE4
:1017E800076EC3EC09F012000F013A6B949C948EBB
:1017F800AC8AAC9CAC98AC84B886010EB06EA00ED6
:10180800AF6EB898B89AAB8EAB88AB9C9D8AF28CB9
:10181800F28E1200D5EC04F0FAEC07F079EC05F042
:10182800020E326E040E316EBA0EE82EFED7312E3D
:10183800FCD7322EFAD700D01200066E0650D8B464
:1018480028EF0CF02AEF0CF02DEF0CF052802EEF61
:101858000CF05290525007EC07F01200010E07EC02
:1018680007F00C0E066EA20EE82EFED7062EFCD749
:10187800515007EC07F01200100E066E010ED3EC63
:101888000AF0FB0E066EFF0E076EC3EC09F012009D
:10189800100E066E010ED3EC0AF09B0E066EFF0EBC
:1018A800076EC3EC09F01200036EACA25EEF0CF0F9
:1018B80060EF0CF059EF0CF003C0ADFF1200BD86CD
:1018C800BD94BD82BD80C30EBF6E500EBE6E1200A9
:1018D800CD8ACD88CD96CD84CD9ECD9CCD8012006D
:1018E80093880F013999948A3A9B92803881120023
:1018F8008C86500EE82EFED78C961200010EC26E12
:0E190800C16AAA0EC06E1200FFFF060C12008C
:10FEFE00004F42444949204E6F7420466F756E6420
:10FF0E0020003E3E3E204F42444949504943203C4A
:10FF1E003C3C00592F4E203C3C3C3C3C3C3C3C3C49
:10FF2E003C3C3C004D454E55203C4F4244494950C7
:10FF3E0049433E004C524D205244432043444320FB
:10FF4E00445349004E6F7468696E6720436C656157
:10FF5E00726564003E3E3E3E2056312E30203C3CC3
:10FF6E003C3C00436C65617220436F6465287329C5
:10FF7E003F004F424449492044657465637465648B
:10FF8E000020202020202020202020202020004380
:10FF9E006F64657320436C656172656400546F20F5
:10FFAE004D656E752E2E2E00415445300D003031AC
:10FFBE0030380D00303130430D00303130460D00F9
:10FFCE00415452560D005642617474004154490D0D
:10FFDE00005341453A0030340D004F533A004E2F36
:10FFEE00410052504D0041495400257500400043D8
:02FFFE00000001
:020000040030CA
:0E000000FF380E3CFFBF85FF0FC00FE00F4022
:00000001FF
