:04000000FEEF7FF0A0
:1010000000415445300D004154490D0041545A0DE2
:101010000000296E8C84276A29AE01D0272A010E90
:101020002716273227328C5027187F0B27188C6EF3
:1010300029C027F0060E286ED8902732282E1CEFE4
:1010400008F0010E2716273A274627468C50271806
:10105000BF0B27188C6E29C027F0050E286ED8907C
:101060002732282E2FEF08F0010E2716273A2746A1
:101070008C502718DF0B27188C6E29C027F0273AD1
:101080000F0E2716010E2716273A8C502718EF0B44
:1010900027188C6E91EC0AF029C027F0D8902732DF
:1010A000D8902732D8902732010E271627322732C0
:1010B0008C5027187F0B27188C6E29C027F0D890EA
:1010C0002732D8902732010E2716273A274627467F
:1010D0008C502718BF0B27188C6E29C027F0D8908A
:1010E0002732010E2716273A27468C502718DF0B88
:1010F00027188C6E29C027F0010E2716273A8C502E
:101100002718EF0B27188C6E91EC0AF01200296E4D
:101110008C94276A29AE01D0272A010E2716273280
:1011200027328C5027187F0B27188C6E29C027F088
:10113000060E286ED8902732282E9AEF08F0010E5E
:101140002716273A274627468C502718BF0B271803
:101150008C6E29C027F0050E286ED8902732282ED5
:10116000ADEF08F0010E2716273A27468C502718B6
:10117000DF0B27188C6E29C027F0273A0F0E271691
:10118000010E2716273A8C502718EF0B27188C6E64
:1011900091EC0AF029C027F0D8902732D890273256
:1011A000D8902732010E2716273227328C50271865
:1011B0007F0B27188C6E29C027F0D8902732D89043
:1011C0002732010E2716273A274627468C50271824
:1011D000BF0B27188C6E29C027F0D8902732010E3C
:1011E0002716273A27468C502718DF0B27188C6EB6
:1011F00029C027F0010E2716273A8C502718EF0B2D
:1012000027188C6E91EC0AF012004CEF09F066EC96
:101210000AF0056E1F0E056410EF09F012EF09F0D9
:1012200021EF09F07F0E056018EF09F01AEF09F0C1
:1012300021EF09F00650070FD96EDA6A05C0DFFF0B
:10124000062A3E0E0518D8B428EF09F02AEF09F057
:101250003BEF09F00A0E0518D8B431EF09F033EF6F
:1012600009F03BEF09F01E0E066439EF09F03BEF81
:1012700009F04CEF09F00650070FD96EDA6ADF6A01
:10128000066A78EC0AF0010E2A6E010ECEEC09F027
:10129000070E2A6E38EC0AF09EBA51EF09F053EFB0
:1012A00009F007EF09F0120095948C9495968C96AE
:1012B00095988C98959A8C9A959C8C9C959E8C9ED2
:1012C000020E2C6E380E2B6EAD0EE82EFED72B2E96
:1012D000FCD72C2EFAD700008C9E8C9C8C8A8C8894
:1012E00091EC0AF0200E2B6E2A0EE82EFED72B2E44
:1012F000FCD791EC0AF0C80EE82EFED791EC0AF06C
:101300008C9E8C9C8C8A8C9891EC0AF0280E87EC31
:1013100008F0305087EC08F02F5087EC08F078EC9C
:101320000AF01200700ED36E54EC09F078EC0AF05B
:1013300050EC0AF0290E2E6E960E2D6E7F0EE82EC2
:10134000FED72D2EFCD72E2EFAD700000C0E286EBD
:10135000FEEC09F00B0E2E6E260E2D6E5E0EE82EA4
:10136000FED72D2EFCD72E2EFAD7010E286EFEECBE
:1013700009F00B0E2E6E260E2D6E5E0EE82EFED799
:101380002D2EFCD72E2EFAD7070E286EFEEC09F074
:1013900005EC09F0C8EF09F0FEEF7FF02B6E2B048F
:1013A000D8A4D5EF09F0D7EF09F0D9EF09F07F0EF7
:1013B0002A26020E2B18D8A4E0EF09F0E2EF09F07C
:1013C000E4EF09F0BF0E2A26030E2B18D8A4EBEF8A
:1013D00009F0EDEF09F0EFEF09F0930E2A26040E65
:1013E0002B18D8A4F6EF09F0F8EF09F0FAEF09F09E
:1013F000D30E2A262A5087EC08F01200000E2B6E1E
:10140000000E2A6E0FEF0AF028502A24296E29C0F8
:10141000F6FF0800F55086EC0AF02A4A2B2A2850DD
:101420002A24296E29C0F6FF0800F5500009D8A427
:101430001CEF0AF01EEF0AF004EF0AF012002E0E65
:10144000F66E150EF76E000EF86E0900F5CF2FF050
:101450000900F5CF30F000EE01F0260EEE6AE80646
:10146000FDE1000EF86E100EF76E000192EF09F02C
:101470002B6A43EF0AF02A502B24D96EDA6ADF5028
:1014800009EC08F02B2A2A502B24D96EDA6ADF5097
:10149000D8A44DEF0AF04FEF0AF03BEF0AF012002C
:1014A0000F013A6B949C948EAC8AAC9CAC98AC8443
:1014B000B886010EB06EA00EAF6EB898B89AAB8E1B
:1014C000AB88AB9C9D9AF29CF29E12009EAA6BEF99
:1014D0000AF06DEF0AF066EF0AF0ABA272EF0AF0C5
:1014E00074EF0AF076EF0AF0AB98AB88AE501200BA
:1014F000010E87EC08F00C0E2A6EA20EE82EFED725
:101500002A2EFCD72F5087EC08F01200276EACA2D1
:101510008CEF0AF08EEF0AF087EF0AF027C0ADFFDC
:1015200012008C86500EE82EFED78C961200060C08
:04FFFC001FEF0AF0F9
:020000040030CA
:0E000000FF380E3CFFBF85FF0FC00FE00F4022
:00000001FF
