:040000006EEF00F0AF
:100008005C82D9CF01F0DACF02F09DAA0EEF00F0A2
:1000180010EF00F068EF00F09EAA15EF00F017EF60
:1000280000F068EF00F0AECFD1F0ABA21EEF00F009
:1000380020EF00F022EF00F0AB98AB881F0E000114
:10004800D16529EF00F02BEF00F045EF00F07F0EAF
:10005800D16131EF00F033EF00F045EF00F03E0ED4
:10006800D119D8B43AEF00F03CEF00F045EF00F0BA
:10007800000ED225D96EDA6A020EDA22D1C0DFFF6D
:10008800D22B3E0ED119D8B44CEF00F04EEF00F051
:100098005FEF00F00A0ED119D8B455EF00F057EF12
:1000A80000F05FEF00F0D229D8A45DEF00F05FEF19
:1000B80000F068EF00F0000ED225D96EDA6A020E61
:1000C800DA22DF6A010ED06F02C0DAFF01C0D9FF61
:1000D8005C92110072EF19F03F6A20EE40F0070EB3
:1000E800DE6AE806FDE21BC048F01CC049F01FBEEE
:1000F80089EF00F01F5007E1250E1E5CD8B087EF8E
:1001080000F089EF00F092EF00F01E041F10D8A451
:1001180090EF00F092EF00F099EF00F0000E000170
:10012800BE6F160EBD6FFAEF02F048504910D8B4F2
:10013800A0EF00F0A2EF00F0FAEF02F048C0D9FFFC
:1001480049C0DAFFDF50D8A4ACEF00F0AEEF00F002
:10015800B0EF00F0FAEF02F048C0D9FF49C0DAFF6B
:10016800DF504A6EC0EF00F0484A492A48C0D9FF1C
:1001780049C0DAFFDF504A6E200E4A18D8B4C7EFDC
:1001880000F0C9EF00F0B8EF00F04AC023F0F70E16
:100198002326040E2364D3EF00F0D5EF00F0B8EF68
:1001A80000F02D0E4A18D8A4DCEF00F0DEEF00F0C6
:1001B800E9EF00F03F80484A492A48C0D9FF49C0C2
:1001C800DAFFDF504A6EF4EF00F02B0E4A18D8A47D
:1001D800F0EF00F0F2EF00F0F4EF00F0DFEF00F0E6
:1001E800300E4A18D8A4FBEF00F0FDEF00F096EFB0
:1001F80001F0484A492A48C0D9FF49C0DAFFDF5010
:100208004A6E1E501F10D8B40CEF01F00EEF01F02B
:1002180018EF01F0100E1E181F10D8A416EF01F0E9
:1002280018EF01F088EF01F0780E4A18D8B41FEFE4
:1002380001F021EF01F02AEF01F0580E4A18D8A476
:1002480028EF01F02AEF01F088EF01F0000E1F6E91
:10025800100E1E6E484A492A48C0D9FF49C0DAFF25
:10026800DF504A6E4AC023F0200E23129F0E232629
:100278001A0E236042EF01F044EF01F068EF01F03D
:100288004AC023F09F0E2326190E23644EEF01F077
:1002980050EF01F055EF01F04AC033F0346A5CEFDB
:1002A80001F04AC023F05F0E23162350336E346AE0
:1002B80033C023F0C90E2326100E236066EF01F029
:1002C80068EF01F082EF01F04AC023F0200E2312FC
:1002D8009F0E2326190E236474EF01F076EF01F0C8
:1002E80096EF01F04AC023F0D00E2326090E2364AE
:1002F80080EF01F082EF01F096EF01F03F844806AD
:10030800D8A04906FAEF02F03F841E501F10D8A467
:1003180090EF01F092EF01F096EF01F0000E1F6EE2
:10032800080E1E6E1E501F10D8A49DEF01F09FEFFF
:1003380001F0A3EF01F0000E1F6E0A0E1E6E205092
:10034800D8B4A9EF01F0ABEF01F0D6EF01F03FB060
:10035800B0EF01F0B2EF01F0C4EF01F0FF0E376E1D
:10036800FF0E386EFF0E396EFF0E3A6EFF0E3B6EB3
:10037800FF0E3C6EFF0E3D6E7F0E3E6EDEEF01F00F
:10038800000E376E000E386E000E396E000E3A6E93
:10039800000E3B6E000E3C6E000E3D6E800E3E6EF3
:1003A800DEEF01F03768386839683A683B683C68BE
:1003B8003D683E6840C02BF041C02CF042C02DF093
:1003C80043C02EF044C02FF045C030F046C031F095
:1003D80047C032F04AC023F0200E23129F0E232676
:1003E8001A0E2360FAEF01F0FCEF01F019EF02F0AA
:1003F8004AC023F09F0E2326190E236406EF02F04D
:1004080008EF02F00DEF02F04AC035F0366A14EF3B
:1004180002F04AC023F05F0E23162350356E366A69
:100428003550C90F4A6E27EF02F04AC023F0D00EAC
:1004380023260A0E236023EF02F025EF02F0E0EFF7
:1004480002F0300E4A5E4A50236E246A1E50235C26
:100458002450800A256E1F50800A2558D8A037EFEF
:1004680002F039EF02F03BEF02F0E0EF02F03FB2AA
:1004780040EF02F042EF02F0D5EF02F01EC003F0A9
:100488001FC004F0000E04BEFF0E056E066E076E58
:10049800086E096E0A6E40C00BF041C00CF042C0F5
:1004A8000DF043C00EF044C00FF045C010F046C038
:1004B80011F047C012F003EC16F003C023F004C09B
:1004C80024F005C025F006C026F007C027F008C0B4
:1004D80028F009C029F00AC02AF04A502324406EA7
:1004E800000E2420416E000E2520426E000E2620AC
:1004F800436E000E2720446E000E2820456E000E25
:100508002920466E000E2A20476E2B50405C2C5046
:1005180041582D5042582E5043582F50445830506F
:1005280045583150465832504758D8A09EEF02F0EF
:10053800A0EF02F0BFEF02F02050D8B4A6EF02F00F
:10054800A8EF02F0D5EF02F04050375C4150385820
:100558004250395843503A5844503B5845503C58FB
:1005680046503D5847503E58D8B0BDEF02F0BFEF57
:1005780002F0D5EF02F037C040F038C041F039C082
:1005880042F03AC043F03BC044F03CC045F03DC0A7
:1005980046F03EC047F0000E0001BE6F220EBD6F50
:1005A8003F82484A492A48C0D9FF49C0DAFFDF508C
:1005B8004A6E3F84DEEF01F03F50030BE806D8A4F3
:1005C800E8EF02F0EAEF02F0FAEF02F0471E461EEB
:1005D800451E441E431E421E411E406C000E412211
:1005E8004222432244224522462247221D50D8B4A3
:1005F80000EF03F002EF03F014EF03F03FB407EF4E
:1006080003F009EF03F00DEF03F01BC048F01CC026
:1006180049F01D50D96EDA6A48C0DEFF49C0DDFFD7
:1006280040C01BF041C01CF042C01DF043C01EF08A
:1006380044C01FF045C020F046C021F047C022F05A
:100648001200000E0001656F000E646F4BC00EF0C3
:10065800A8EC18F00001BB51BC11D8A436EF03F088
:1006680038EF03F03EEF03F0000E616F1F0E606F6E
:1006780042EF03F0BBC060F0BCC061F0000E676FD2
:10068800000E666F52EF04F04BC005F003EC10F05B
:1006980005C068F006C069F00001682906E169290B
:1006A800D8A459EF03F05BEF03F073EF03F0BB51ED
:1006B800BC11D8A462EF03F064EF03F06DEF03F010
:1006C80066516711D8A46BEF03F06DEF03F073EF79
:1006D80003F068C04BF069C04CF0D7EF04F02D0E62
:1006E80068196911D8B47BEF03F07DEF03F087EF49
:1006F80003F02B0E68196911D8A485EF03F087EF72
:1007080003F09EEF03F067BF92EF03F0675108E133
:100718006605D8A092EF03F094EF03F046EF04F0DB
:1007280068C003F069C004F04BC005F052EC16F045
:100738006DEF04F0300E68196911D8A4A6EF03F024
:10074800A8EF03F0F6EF03F03C0E6625D96E010E14
:100758006721DA6E68C0DFFF664B672BB74BB82B93
:100768004BC005F003EC10F005C068F006C069F056
:10077800580E000168196911D8B4C5EF03F0C7EF26
:1007880003F0D1EF03F0780E68196911D8A4CFEF00
:1007980003F0D1EF03F0E2EF03F064516511D8B430
:1007A800D8EF03F0DAEF03F0DCEF03F094EF03F097
:1007B80066C064F067C065F046EF04F0682908E198
:1007C8006929D8B4EAEF03F0ECEF03F052EF04F034
:1007D80068C003F069C004F04BC005F052EC16F095
:1007E80052EF04F068C04DF0D00E4D26090E4D644E
:1007F80000EF04F002EF04F046EF04F068C04DF09B
:10080800200E4D129F0E4D26050E4D640EEF04F07E
:1008180010EF04F046EF04F0682908E16929D8B41C
:1008280018EF04F01AEF04F022EF04F068C003F0A8
:1008380069C004F04BC005F052EC16F00001645199
:100848006511D8B42AEF04F02CEF04F06DEF04F032
:10085800FF0E66254D6EFF0E67214E6E64514D18D2
:1008680007E165514E18D8A43CEF04F03EEF04F0C0
:100878006DEF04F06607D8A06707B707D8A0B807D8
:100888006DEF04F03C0E6625D96E010E6721DA6E15
:1008980068C0DFFF664B672BB74BB82B0001605170
:1008A800665D6751800A4D6E6151800A4D58D8B017
:1008B80060EF04F062EF04F06DEF04F0675109E1B6
:1008C8001F0E665DD8A06BEF04F06DEF04F048EFE3
:1008D80003F03C0E00016625D96E010E6721DA6E21
:1008E800DF6A3C0E1B6E010E1C6E620E1D6E000E42
:1008F8001F6E100E1E6E000E206E70EC00F01BC0F6
:100908004DF01CC04EF01DC04FF01EC050F01FC06F
:1009180051F020C052F021C053F022C054F04C5086
:10092800D96EDA6A4DC0DEFF4EC0DEFF4FC0DEFF73
:1009380050C0DEFF51C0DEFF52C0DEFF53C0DEFFF5
:1009480054C0DEFF0001BD51BE11D8A4AEEF04F0C3
:10095800B0EF04F0D3EF04F066516711D8B4B7EFE5
:1009680004F0B9EF04F0D3EF04F03C0E621909E18A
:10097800010E6319D8B4C3EF04F0C5EF04F0D3EF48
:1009880004F0CE51D8B4CBEF04F0CEEF04F0010E52
:10099800CFEF04F0000E4B6E4C6AD7EF04F0FF0E59
:1009A8004C6EFE0E4B6E1200000E0001A36F000E7F
:1009B800A26F000EA56F000EA46F010E066E010E49
:1009C80042EC19F0170E066EFF0E076EFCEC17F0DE
:1009D800010E066E020E42EC19F07D0E066EFF0E39
:1009E800076EFCEC17F0DC0E046EFF0E056EA1EC32
:1009F80019F001EF05F019EC1BF00001D051D8B443
:100A080008EF05F00AEF05F0FFEF04F025EC1BF006
:100A180030EF05F0A44BA52B000EA425D96E020ECD
:100A2800A521DA6E3E0EDE18D8B41DEF05F01FEFD3
:100A380005F06DEF06F0010EA425D96E020EA52172
:100A4800DA6E3E0EDE18D8A42CEF05F02EEF05F076
:100A580030EF05F06DEF06F0000E0001A425D96E09
:100A6800020EA521DA6E340EDE18D8A43EEF05F08A
:100A780040EF05F00EEF05F0010EA425D96E020E29
:100A8800A521DA6E330EDE18D8A44DEF05F04FEF2E
:100A980005F00EEF05F0020EA427000EA52305EFC2
:100AA80006F0000EA425D96E020EA521DA6E200EDE
:100AB800DE18D8B462EF05F064EF05F082EF05F0B8
:100AC800000EA425D96E020EA521DA6E0D0EDE18D1
:100AD800D8B471EF05F073EF05F082EF05F0000E62
:100AE800A425D96E020EA521DA6E0A0EDE18D8A446
:100AF80080EF05F082EF05F086EF05F0A44BA52BFB
:100B080005EF06F0030EA425D96E020EA521DA6EB4
:100B18003E0EDE18D8A493EF05F095EF05F097EF99
:100B280005F022EF06F0000E986F000E996F000E88
:100B38009A6F000EA425D96E020EA521DA6EDF5039
:100B4800986F010EA425D96E020EA521DA6EDF502A
:100B5800996F3E0E9A6F000E9B6F000E9C6F000EF1
:100B68009D6F020EA425D96E020EA521DA6EDF5004
:100B78009B6F030EA425D96E020EA521DA6EDF50F5
:100B88009C6F3E0E9D6F000E9F6F000E9E6F000EB5
:100B9800A16F000EA06F980E856FF70E866FFF0E7F
:100BA800876F9E0E886F896BB1EC1AF09B0E00015F
:100BB800856FF70E866FFF0E876FA00E886F896BA3
:100BC800B1EC1AF09EC04EF04F6AA0C050F0516AC6
:100BD800060E0001A203F3CF96F0F4CF97F0A3031B
:100BE800F3509727000E9625526E010E9721536EEB
:100BF8005EEC13F00001A24BA32B040EA427000EF9
:100C0800A523000EA425D96E020EA521DA6E3E0E8C
:100C1800DE18D8B412EF06F014EF06F022EF06F053
:100C2800A3BF20EF06F0A35109E10A0EA25DD8A0E8
:100C380020EF06F022EF06F055EF05F0A251A311C0
:100C4800D8A429EF06F02BEF06F038EF06F00AECEF
:100C58001BF0010E066E010E42EC19F06F0E066EC7
:100C6800FF0E076EFCEC17F00001A3BF44EF06F07F
:100C7800A35108E1A205D8A044EF06F046EF06F01C
:100C88006AEF06F00AEC1BF0010E066E010E42EC4C
:100C980019F0530E066EFF0E076EFCEC17F0010EEE
:100CA800066E020E42EC19F0060E0001A203F3CF05
:100CB80096F0F4CF97F0A303F3509727000E9625EC
:100CC800066E010E9721076EFCEC17F00001D26B3F
:100CD800D06B120000016B51D96EDA6ADECFF6FFD5
:100CE800DDCFF7FF0800F550250AD8A47EEF06F0FF
:100CF80080EF06F046EF07F06B51D96EDA6ADE2A0C
:100D0800000EDD22000EBC6F000EBB6FBB51BC1184
:100D1800D8A491EF06F094EF06F0010E95EF06F0D7
:100D2800000ECE6F6B51D96EDA6ADECFF6FFDDCFDB
:100D3800F7FF0800F550780AD8B4A5EF06F0A7EF3A
:100D480006F0B8EF06F06B51D96EDA6ADECFF6FF1F
:100D5800DDCFF7FF0800F550580AD8A4B6EF06F023
:100D6800B8EF06F0EEEF06F06B51D96EDA6ADE2ABC
:100D7800000EDD226AC04BF0710E4C6E25EC03F0BC
:100D88004BC06FF04CC070F0000170BFD4EF06F09C
:100D9800705108E16F05D8A0D4EF06F0D6EF06F041
:100DA800E8EF06F06CC0D9FF6DC0DAFF020EDF264F
:100DB800DF5CD96EDA6ADECF6EF06E51D96EDA6A10
:100DC80071C0DEFF72C0DDFF6FC06AF070C06BF0EB
:100DD800FBEF07F06B51D96EDA6ADECFF6FFDDCF95
:100DE800F7FF0800F550250AD8A4FDEF06F0FFEF3D
:100DF80006F03EEF07F06AC00EF0A8EC18F06AC0E3
:100E080005F003EC10F005C079F006C07AF0250E65
:100E1800000179197A11D8A414EF07F016EF07F03A
:100E280025EF07F06B51D96EDA6ADE2A000EDD2253
:100E3800B74BB82B000E00016B6F000E6A6FFBEF0B
:100E480007F0792908E17A29D8B42DEF07F02FEFB8
:100E580007F037EF07F079C003F07AC004F06AC0F2
:100E680005F052EC16F0FF0E00016B6FFE0E6A6F74
:100E7800FBEF07F06B51D96EDA6ADE2A000EDD222D
:100E88001EEF07F06AC005F003EC10F005C079F01A
:100E980006C07AF000016B51D96EDA6ADECFF6FF30
:100EA800DDCFF7FF0800F550200AD8B45EEF07F051
:100EB80060EF07F074EF07F06B51D96EDA6ADECF96
:100EC800F6FFDDCFF7FF0800F5CF55F0F70E5526F2
:100ED800050E556072EF07F074EF07F0D6EF07F0D4
:100EE8006B51D96EDA6ADE2A000EDD226B51D96E9B
:100EF800DA6ADECFF6FFDDCFF7FF0800F550200AEB
:100F0800D8B489EF07F08BEF07F074EF07F06B5157
:100F1800D96EDA6ADECFF6FFDDCFF7FF0800F5CF2E
:100F280055F0F70E5526040E55649DEF07F09FEF18
:100F380007F074EF07F0ABEF07F0B74BB82B6AC0B8
:100F480005F003EC10F005C079F006C07AF0200E29
:100F5800000179197A11D8B4B4EF07F0B6EF07F0A9
:100F6800A1EF07F079C055F0F70E5526040E556429
:100F7800C0EF07F0C2EF07F0A1EF07F0792908E109
:100F88007A29D8B4CAEF07F0CCEF07F01EEF07F0C4
:100F980079C003F07AC004F06AC005F052EC16F08C
:100FA8001EEF07F06B51D96EDA6ADECFF6FFDDCFA0
:100FB800F7FF0800F550556E566A7951551807E144
:100FC8007A515618D8A4EBEF07F0EDEF07F0EFEFE2
:100FD80007F016EF07F0792906E17A29D8A4F7EF88
:100FE80007F0F9EF07F02FEF07F06A696B69120055
:100FF800B00E046EFF0E056EA1EC19F025EF08F097
:1010080082BA09EF08F00BEF08F023EF08F0680E3A
:101018004E6EE40EE82EFED74E2EFCD700D082BAD4
:1010280018EF08F01AEF08F023EF08F00AEC1BF0AD
:10103800CAEC1AF00001F369F46968EF09F019ECD9
:101048001BF00001D051D8B42CEF08F02EEF08F0B7
:1010580004EF08F025EC1BF00001806B836B97EF21
:1010680008F0000E8325D96EDA6A020EDA222F0EF6
:10107800DF6441EF08F043EF08F051EF08F0000E8D
:101088008325D96EDA6A020EDA22390EDF644FEF51
:1010980008F051EF08F089EF08F0000E8325D96EAB
:1010A800DA6A020EDA22400EDF645DEF08F05FEFC5
:1010B80008F06DEF08F0000E8325D96EDA6A020E8B
:1010C800DA22460EDF646BEF08F06DEF08F089EF67
:1010D80008F0000E8325D96EDA6A020EDA22600E55
:1010E800DF6479EF08F07BEF08F096EF08F0000E68
:1010F8008325D96EDA6A020EDA22670EDF6087EF7F
:1011080008F089EF08F096EF08F0000E8325D96EF5
:10111800DA6A020EDA228051600FE16EE26ADFCFEE
:10112800E7FF802B832BD251835DD8B09EEF08F068
:10113800A0EF08F0A8EF08F01E0E8065A6EF08F0F3
:10114800A8EF08F035EF08F08051600FD96EDA6A21
:10115800DF6A600E0A6E0B6AD20E0C6EFF0E0D6E01
:1011680090EC14F00AC081F00BC082F000018151AC
:101178008211D8B4C2EF08F0C4EF08F033EF09F0D9
:1011880081C003F082C004F0CCEC19F0045009E1EE
:10119800080E035CD8A0D3EF08F0D5EF08F033EFC2
:1011A80009F0000120EE04F08151D9268251DA229B
:1011B800DF50BDEC17F04E6E4F6A4E3A4F3AF00EC4
:1011C8004F164E500F0B4F12F00E4E16000120EE28
:1011D80005F08151D9268251DA22DF50BDEC17F093
:1011E800506E50504E100001CB6F4F50CC6F20EE18
:1011F80006F08151D9268251DA22DF50BDEC17F072
:101208004E6E4F6A4E3A4F3AF00E4F164E500F0B35
:101218004F12F00E4E16000120EE07F08151D9262C
:101228008251DA22DF50BDEC17F0506E50504E104C
:101238000001C96F4F50CA6FCB514F6E4E6AC951EA
:101248004E12CA514F12D8904F324E32D8904F3268
:101258004E324EC0C7F04FC0C8F038EF09F0000E4C
:101268000001C86F000EC76FE30E386E396AF40EBE
:101278003A6EFF0E3B6EC7C03CF0C8C03DF03BEC79
:101288001AF0010E066E020E42EC19F04D0E066EB3
:10129800FF0E076EFCEC17F0010E066E010E42EC15
:1012A80019F0EC0E066EFF0E076EFCEC17F0010E3F
:1012B800066E020E42EC19F0E30E066E076AFCECAD
:1012C80017F00001D26BD06B1200B60E046EFF0E41
:1012D800056EA1EC19F092EF09F082BA76EF09F0E9
:1012E80078EF09F090EF09F0680E4E6EE40EE82EE4
:1012F800FED74E2EFCD700D082BA85EF09F087EFD3
:1013080009F090EF09F00AEC1BF0CAEC1AF00001A2
:10131800F369F469B0EF0AF019EC1BF00001D05141
:10132800D8B499EF09F09BEF09F071EF09F025ECBB
:101338001BF00001806B836B04EF0AF0000E83251D
:10134800D96EDA6A020EDA222F0EDF64AEEF09F0E8
:10135800B0EF09F0BEEF09F0000E8325D96EDA6A06
:10136800020EDA22390EDF64BCEF09F0BEEF09F095
:10137800F6EF09F0000E8325D96EDA6A020EDA223A
:10138800400EDF64CAEF09F0CCEF09F0DAEF09F09C
:10139800000E8325D96EDA6A020EDA22460EDF6461
:1013A800D8EF09F0DAEF09F0F6EF09F0000E83251F
:1013B800D96EDA6A020EDA22600EDF64E6EF09F00F
:1013C800E8EF09F003EF0AF0000E8325D96EDA6A18
:1013D800020EDA22670EDF60F4EF09F0F6EF09F08B
:1013E80003EF0AF0000E8325D96EDA6A020EDA22BC
:1013F8008051600FE16EE26ADFCFE7FF802B832B1D
:10140800D251835DD8B00BEF0AF00DEF0AF015EF5B
:101418000AF01E0E806513EF0AF015EF0AF0A2EF2E
:1014280009F08051600FD96EDA6ADF6A600E0A6EC1
:101438000B6AD70E0C6EFF0E0D6E90EC14F00AC0FE
:1014480081F00BC082F0000181518211D8B42FEFD6
:101458000AF031EF0AF070EF0AF081C003F082C0A1
:1014680004F0CCEC19F0045009E1060E035CD8A096
:1014780040EF0AF042EF0AF070EF0AF0000120EEA8
:1014880004F08151D9268251DA22DF50BDEC17F0E1
:101498004E6E4F6A4E3A4F3AF00E4F164E500F0BA3
:1014A8004F12F00E4E16000120EE05F08151D9269C
:1014B8008251DA22DF50BDEC17F0506E50504E10BA
:1014C8000001C56F4F50C66FD80EC525C36FFF0EFC
:1014D800C621C46F75EF0AF0000E0001C46F000E3C
:1014E800C36FD30E386E396AF40E3A6EFF0E3B6E38
:1014F800C3C03CF0C4C03DF03BEC1AF00D0E066EC4
:10150800020E42EC19F04F0E066EFF0E076EFCEC51
:1015180017F00D0E066E010E42EC19F0F00E066E75
:10152800FF0E076EFCEC17F00D0E066E020E42EC75
:1015380019F0D30E066E076AFCEC17F00F0E066E54
:10154800020E42EC19F0D50E066EFF0E076EFCEC8B
:1015580017F00001D26BD06B12000AEC1BF0CAEC3A
:101568001AF0CAEC1AF096EC1AF003C05AF004C04C
:101578005BF05B04D8B0C3EF0AF0C5EF0AF0CFEF19
:101588000AF0000E0001F46F000EF36F010E066EF4
:10159800020E42EC19F05B04D8A0D5EF0AF0D7EFA1
:1015A8000AF0EAEF0AF0020E5B5CD8B0DEEF0AF050
:1015B800E0EF0AF0EAEF0AF0000E0001F46F010E06
:1015C800F36F050E066E020E42EC19F0020E5B5C1C
:1015D800D8A0F1EF0AF0F3EF0AF006EF0BF0030ED4
:1015E8005B5CD8B0FAEF0AF0FCEF0AF006EF0BF0FC
:1015F800000E0001F46F020EF36F090E066E020E64
:1016080042EC19F0030E5B5CD8A00DEF0BF00FEF66
:101618000BF022EF0BF0040E5B5CD8B016EF0BF06A
:1016280018EF0BF022EF0BF0000E0001F46F030E21
:10163800F36F0D0E066E020E42EC19F0010EF7EC78
:101648001AF081B82AEF0BF02CEF0BF0CAEF0BF071
:10165800680E0001A66FE40EE82EFED7A62FFCD771
:10166800000081B83AEF0BF03CEF0BF0CAEF0BF03B
:10167800000EF7EC1AF00AEC1BF0ABEF0BF055EC90
:101688001BF082BA4AEF0BF04CEF0BF043EF0BF074
:10169800680E0001A66FE40EE82EFED7A62FFCD731
:1016A800000082BA5AEF0BF05CEF0BF043EF0BF03F
:1016B8000AEC1BF0CAEC1AF00001F369F469CAEFEE
:1016C8000BF0D8EC04F082BA6CEF0BF06EEF0BF075
:1016D80065EF0BF0680E0001A66FE40EE82EFED74A
:1016E800A62FFCD7000082BA7CEF0BF07EEF0BF040
:1016F80065EF0BF05CEF0BF0050E0001A76F0F0E06
:10170800A66FF10EE82EFED7A62FFCD7A72FFAD783
:10171800DEEC0CF060EF0BF07BEC1AF082BA97EF7E
:101728000BF099EF0BF090EF0BF0680E0001A66F2D
:10173800E40EE82EFED7A62FFCD7000082BAA7EF4A
:101748000BF0A9EF0BF090EF0BF05CEF0BF0F3C090
:10175800A6F0F4C0A7F00001A751000AD8B4B7EF6B
:101768000BF0CAEF0BF0A651000AD8B443EF0BF008
:10177800010AD8B465EF0BF0030AD8B480EF0BF078
:10178800010AD8B490EF0BF0CAEF0BF0020E00017B
:10179800A76F040EA66FBA0EE82EFED7A62FFCD7A9
:1017A800A72FFAD70000B5EF0AF012002650D96E1D
:1017B800DA6ADECFF6FFDDCFF7FF0800F550250A1D
:1017C800D8A4E9EF0BF0EBEF0BF0CCEF0CF02650C0
:1017D800D96EDA6ADE2A000EDD22000E0001C06F23
:1017E800000EBF6FBFC0CFF0C169C2692B6A1AEF84
:1017F8000CF00001CF832650D96EDA6ADE2A000E7B
:10180800DD221AEF0CF0010E2B6E1AEF0CF02650A9
:10181800D96EDA6ADECFF6FFDDCFF7FF0800F550A4
:10182800300AD8B4FDEF0BF007EF0CF02B50D8B40A
:1018380020EF0CF022EF0CF00BEF0CF026C003F0B9
:1018480027C004F0ADEC15F003C0BFF004C0C0F031
:101858000001C0BF34EF0CF032EF0CF039EF0CF0A0
:10186800CF81BF6DC01FD8B0C02B2650D96EDA6AA1
:10187800DECFF6FFDDCFF7FF0800F550630AD8A4E6
:1018880048EF0CF04AEF0CF062EF0CF02650D96EDE
:10189800DA6ADE2A000EDD222750D96EDA6ADF50B6
:1018A800DF2ADF2AD96EDA6ADF502A6E25C00BF0EC
:1018B8002AC00CF0F0EC14F0DDEF0CF02650D96ED5
:1018C800DA6ADECF30F0DDCF31F030C0F6FF31C05C
:1018D800F7FF0800F550580AD8B475EF0CF077EF09
:1018E8000CF085EF0CF030C0F6FF31C0F7FF0800B0
:1018F800F550750AD8A483EF0CF085EF0CF0C4EF0F
:101908000CF02750D96EDA6A020EDF26DF5CD96E3A
:10191800DA6ADECF2CF0DECF2DF0010E3024286EEF
:10192800000E3120296E2650D96EDA6A28C0DEFFF3
:1019380029C0DDFFB4EF0CF025C019F02CC01AF057
:101948002DC01BF0EAEC12F0DDEF0CF025C019F009
:101958002CC01AF02DC01BF084EC10F0DDEF0CF059
:1019680030C0F6FF31C0F7FF0800F550580AD8B468
:10197800AAEF0CF02D0AD8B4A0EF0CF0C4EF0CF0CD
:101988002650D96EDA6ADE2A000EDD22DDEF0CF071
:101998002650D96EDA6ADECFF6FFDDCFF7FF0800F2
:1019A800F550036E046A25C005F050EC15F0C4EF3D
:1019B8000CF01200000E0E6E000E0D6E0AEC1BF0FD
:1019C800010E066E010E42EC19F0360E066EFF0E81
:1019D800076EFCEC17F0010E066E020E42EC19F0D1
:1019E800B30E066EFE0E076EFCEC17F0010EF7EC58
:1019F8001AF096EC1AF003C05AF004C05BF0020E1D
:101A08005B5CD8B00AEF0DF00CEF0DF015EF0DF0A0
:101A1800000E0E6E000E0D6E010E066E020E42ECEA
:101A280019F0020E5B5CD8A01CEF0DF01EEF0DF054
:101A380030EF0DF0040E5B5CD8B025EF0DF027EF0A
:101A48000DF030EF0DF0000E0E6E010E0D6E030E50
:101A5800066E020E42EC19F082BA35EF0DF037EF40
:101A68000DF04FEF0DF0680E0B6EE40EE82EFED76A
:101A78000B2EFCD700D082BA44EF0DF046EF0DF0E4
:101A88004FEF0DF00AEC1BF0CAEC1AF00001F369F5
:101A9800F469D5EF0DF081B854EF0DF056EF0DF065
:101AA800FDEF0CF0680E0B6EE40EE82EFED70B2E41
:101AB800FCD700D081B863EF0DF065EF0DF0FDEFB6
:101AC8000CF0BFEF0DF0E00E046EFF0E056EA1ECFA
:101AD80019F071EF0DF019EC1BF00001D051D8B4DA
:101AE80078EF0DF07AEF0DF06FEF0DF025EC1BF0AD
:101AF8000AEC1BF0010E066E010E42EC19F0610EA5
:101B0800066EFF0E076EFCEC17F0010E066E020E55
:101B180042EC19F0880E066EFF0E076EFCEC17F00B
:101B28000001F369F469290E0C6E960E0B6E7F0E98
:101B3800E82EFED70B2EFCD70C2EFAD70000D5EFD7
:101B48000DF00AEC1BF0010E066E010E42EC19F0C6
:101B5800070E066EFF0E076EFCEC17F0010E066E00
:101B6800020E42EC19F0880E066EFF0E076EFCECB2
:101B780017F094EF0DF00DC00BF00EC00CF00C50E8
:101B8800000AD8B4CAEF0DF0D5EF0DF00B50000ADB
:101B9800D8B467EF0DF0010AD8B4A5EF0DF0D5EF72
:101BA8000DF01200000E1F6E000E1E6E000E216E4C
:101BB800000E206E0AEC1BF0010E066E010E42ECC0
:101BC80019F0A20E066EFE0E076EFCEC17F0010E61
:101BD800066E020E42EC19F0270E066EFF0E076E17
:101BE800FCEC17F0A40E046EFF0E056EA1EC19F0C4
:101BF8003CEC1BF045EC1BF0000E216E000E206E35
:101C0800000E1F6E000E1E6E9EA40DEF0EF00FEF5D
:101C18000EF045EF0EF09E94CD80204A212A100E3A
:101C2800066E020E42EC19F020C003F021C004F049
:101C3800000E066E0A0E056E39EC18F003C011F09E
:101C480004C012F0136A146A010E156EC4EC0EF08B
:101C580020C003F021C004F0000E066E0A0E056EC7
:101C680010EC19F003500410D8A43DEF0EF03FEF2C
:101C78000EF045EF0EF0C80E046EFF0E056EA1ECD7
:101C880019F00001D051D8B44CEF0EF04EEF0EF021
:101C980054EF0EF0000E1F6E010E1E6ED26BD06B4D
:101CA8001E501F10D8B45BEF0EF05DEF0EF06AEF18
:101CB8000EF0215009E1280E205CD8A066EF0EF046
:101CC80068EF0EF008EF0EF08DEF0EF0000E216EAB
:101CD800000E206E010E066E020E42EC19F0910EF7
:101CE800066EFE0E076EFCEC17F0C80E046EFF0EB3
:101CF800056EA1EC19F0020E1D6E040E1C6EBA0ED4
:101D0800E82EFED71C2EFCD71D2EFAD700D008EFE0
:101D18000EF00AEC1BF0010E066E010E42EC19F0F3
:101D2800E60E066EFE0E076EFCEC17F0010E066E50
:101D3800020E42EC19F0C40E066EFE0E076EFCECA5
:101D480017F0520E1D6E2B0E1C6E000EE82EFED7DD
:101D58001C2EFCD71D2EFAD700D09E0E046EFF0E47
:101D6800056EA1EC19F0020E1D6E040E1C6EBA0E63
:101D7800E82EFED71C2EFCD71D2EFAD700D0120055
:101D8800176A14BECCEF0EF0CAEF0EF0E6EF0EF0B5
:101D980011C003F012C004F013C005F014C006F01F
:101DA800FF0E076EFF0E086EFF0E096EFF0E0A6E1D
:101DB80073EC18F003C011F004C012F005C013F062
:101DC80006C014F011C018F012C019F013C01AF0B0
:101DD80014C01BF0172A1BBEFFEF0EF01B501A1081
:101DE800191007E10A0E185CD8B0FDEF0EF0FFEFEE
:101DF8000EF001EF0FF01DEF0FF018C003F019C03F
:101E080004F01AC005F01BC006F00A0E076E000E9B
:101E1800086E000E096E000E0A6E7EEC0FF003C00D
:101E280018F004C019F005C01AF006C01BF0EEEF58
:101E38000EF01550175CD8A024EF0FF026EF0FF026
:101E480028EF0FF02EEF0FF0200E05EC11F015061D
:101E58001DEF0FF011C018F012C019F013C01AF0DE
:101E680014C01BF0010E166E55EF0FF018C003F0EA
:101E780019C004F01AC005F01BC006F00A0E076E60
:101E8800000E086E000E096E000E0A6E7EEC0FF052
:101E980003C018F004C019F005C01AF006C01BF002
:101EA800162A1750165CD8A05CEF0FF05EEF0FF003
:101EB8003AEF0FF018C003F019C004F01AC005F08B
:101EC8001BC006F00A0E076E000E086E000E096EA3
:101ED800000E0A6E01EC12F00350300F05EC11F001
:101EE80017061750D8A47BEF0FF07DEF0FF02EEFF9
:101EF8000FF012000C6A0ABE86EF0FF084EF0FF0A5
:101F080090EF0FF00A1E091E081E076C000E08222B
:101F180009220A22010E0C6E06BE97EF0FF095EF0C
:101F28000FF0A1EF0FF0061E051E041E036C000E35
:101F3800042205220622010E0C1A000E0D6E000E58
:101F48000E6E000E0F6E000E106E0750081009106E
:101F58000A10D8B4B2EF0FF0B4EF0FF0EAEF0FF0B9
:101F6800010E0B6EBEEF0FF0D89007360836093613
:101F78000A360B2A0AAEC3EF0FF0C5EF0FF0B8EF21
:101F88000FF0D8900D360E360F3610360750035C1A
:101F980008500458095005580A500658D8A0D7EFD9
:101FA8000FF0D9EF0FF0E2EF0FF00750035E085083
:101FB800045A0950055A0A50065A0D80D8900A3218
:101FC8000932083207320B2EC5EF0FF00C50D8B487
:101FD800F0EF0FF0F2EF0FF0FAEF0FF0101E0F1EF8
:101FE8000E1E0D6C000E0E220F2210220DC003F0E3
:101FF8000EC004F00FC005F010C006F01200055026
:10200800D8A409EF10F00BEF10F028EF10F0000142
:10201800CD51D8A412EF10F014EF10F01CEF10F00F
:1020280068EC1BF003C00CF004C00DF07FEF10F05B
:10203800CD07CD51AE0FD96EDA6ADF50076E075063
:102048000C6E0D6A7FEF10F00550D96EDA6A070E34
:10205800D926DE50DE10D8B434EF10F036EF10F089
:102068004FEF10F00550D96EDA6A070ED926DE0652
:10207800000EDD5ADECF07F0DDCF08F0055007244B
:10208800D96EDA6A040ED926DF50096E09500C6E33
:102098000D6A7FEF10F00550D96EDA6A020ED92664
:1020A800DECF07F0DDCF08F00550D96EDA6ADECF53
:1020B80009F0DDCF0AF007500924D96E08500A202C
:1020C800DA6EDF500B6E0B500C6E0D6A0C500D1053
:1020D800D8A471EF10F073EF10F077EF10F00C68E0
:1020E8000D687FEF10F00550D96EDA6A020ED92616
:1020F800DE2A000EDD220CC005F00DC006F012002D
:10210800010E1F6EBFC020F0C0C021F0000E246E6B
:102118001F0E236E01017B6BC2EF10F02306D8A0BF
:1021280024061A500F0B226E0A0E22609EEF10F042
:10213800A0EF10F0A4EF10F0300E2226A6EF10F05A
:10214800370E22265C0E2324D96E010E2420DA6E67
:1021580022C0DFFF1F6A2006D8A021061AC01CF083
:102168001BC01DF0040E1E6ED8901D321C321E2E90
:10217800B8EF10F01CC01AF01DC01BF024BECEEF43
:1021880010F0245009E1020E235CD8A0CEEF10F025
:10219800D0EF10F0F6EF10F01A501B10D8A4D7EFBC
:1021A80010F0D9EF10F092EF10F01F50D8A4DFEF25
:1021B80010F0E1EF10F092EF10F021BEECEF10F00C
:1021C800215008E12004D8A0ECEF10F0EEEF10F059
:1021D800F6EF10F00001CFB3F4EF10F0F6EF10F0C7
:1021E80092EF10F019C011F05C0E2324126E010E4C
:1021F8002420136E20C014F021C015F0A0EC16F0B6
:102208001200056E8C84036A05AE01D0032A010E04
:102218000316033203328C5003187F0B03188C6E9D
:1022280005C003F0060E046ED8900332042E18EF92
:1022380011F0010E0316033A034603468C500318A7
:10224800BF0B03188C6E05C003F0050E046ED89002
:102258000332042E2BEF11F0010E0316033A034646
:102268008C500318DF0B03188C6E05C003F0033A7B
:102278000F0E0316010E0316033A8C500318EF0BCA
:1022880003188C6E5CEC1BF005C003F0D890033289
:10229800D8900332D8900332010E0316033203326A
:1022A8008C5003187F0B03188C6E05C003F0D89070
:1022B8000332D8900332010E0316033A034603464D
:1022C8008C500318BF0B03188C6E05C003F0D89010
:1022D8000332010E0316033A03468C500318DF0B32
:1022E80003188C6E05C003F0010E0316033A8C50D8
:1022F8000318EF0B03188C6E5CEC1BF01200056ED4
:102308008C94036A05AE01D0032A010E031603322A
:1023180003328C5003187F0B03188C6E05C003F032
:10232800060E046ED8900332042E96EF11F0010EBB
:102338000316033A034603468C500318BF0B0318D1
:102348008C6E05C003F0050E046ED8900332042E7F
:10235800A9EF11F0010E0316033A03468C50031837
:10236800DF0B03188C6E05C003F0033A0F0E03163B
:10237800010E0316033A8C500318EF0B03188C6EEA
:102388005CEC1BF005C003F0D8900332D890033200
:10239800D8900332010E0316033203328C5003180F
:1023A8007F0B03188C6E05C003F0D8900332D890C9
:1023B8000332010E0316033A034603468C500318F2
:1023C800BF0B03188C6E05C003F0D8900332010EC2
:1023D8000316033A03468C500318DF0B03188C6E60
:1023E80005C003F0010E0316033A8C500318EF0BD7
:1023F80003188C6E5CEC1BF012000C6A06BE09EF29
:1024080012F007EF12F013EF12F0061E051E041E5D
:10241800036C000E042205220622010E0C6E0ABE71
:102428001AEF12F018EF12F022EF12F00A1E091E2E
:10243800081E076C000E082209220A2207500810FD
:1024480009100A10D8B42BEF12F02DEF12F05DEF3F
:1024580012F0010E0B6E37EF12F0D89007360836DF
:1024680009360A360B2A0AAE3CEF12F03EEF12F09C
:1024780031EF12F00750035C085004580950055812
:102488000A500658D8A04BEF12F04DEF12F055EF56
:1024980012F00750035E0850045A0950055A0A50B2
:1024A800065AD8900A320932083207320B2E3EEF0C
:1024B80012F00C50D8B463EF12F065EF12F06DEF24
:1024C80012F0061E051E041E036C000E04220522CF
:1024D800062203C003F004C004F005C005F006C0DE
:1024E80006F01200BC0E046EFF0E056EA1EC19F08A
:1024F8009FEF12F082BA83EF12F085EF12F09DEF92
:1025080012F0680E0B6EE40EE82EFED70B2EFCD7E9
:1025180000D082BA92EF12F094EF12F09DEF12F011
:102528000AEC1BF0CAEC1AF00001F369F469A8EF91
:1025380012F019EC1BF00001D051D8B4A6EF12F03C
:10254800A8EF12F07EEF12F025EC1BF0070E066ED6
:10255800020E42EC19F04D0E066EFF0E076EFCECF3
:1025680017F0070E066E010E42EC19F0C20E066E49
:10257800FF0E076EFCEC17F0070E066E020E42EC1B
:1025880019F0000E036E020E046E000E066E560E53
:10259800056EF4EC19F003500410D8A4D6EF12F02D
:1025A800D8EF12F0E0EF12F0E80E066EFF0E076E9D
:1025B800FCEC17F0E6EF12F0000E066E020E076E46
:1025C800FCEC17F00001D26BD06B1200010E1C6EF0
:1025D800BFC01DF0C0C01EF0000E206E1F0E1F6E83
:1025E80001017B6B20EF13F01F06D8A020065C0EBC
:1025F8001F24D96E010E2020DA6E1AC003F01BC00A
:1026080004F0000E066E0A0E056E10EC19F0035069
:10261800300FDF6E1C6A1D06D8A01E061AC003F014
:102628001BC004F0000E066E0A0E056E39EC18F099
:1026380003C01AF004C01BF01F502010D8B427EFB5
:1026480013F029EF13F04FEF13F01A501B10D8A412
:1026580030EF13F032EF13F0F8EF12F01C50D8A45B
:1026680038EF13F03AEF13F0F8EF12F01EBE45EF13
:1026780013F01E5008E11D04D8A045EF13F047EFF2
:1026880013F04FEF13F00001CFB34DEF13F04FEFFE
:1026980013F0F8EF12F019C011F05C0E1F24126E3F
:1026A800010E2020136E1DC014F01EC015F0A0EC02
:1026B80016F0120074EF13F0500E596E9EEF13F0DF
:1026C800430E596E9EEF13F0420E596E9EEF13F0B3
:1026D800550E596E9EEF13F03F0E596E9EEF13F094
:1026E8004EC054F04FC055F0060E566ED890553275
:1026F8005432562E7AEF13F0030E5416000E551668
:102708005550000AD8B48BEF13F070EF13F0545003
:10271800000AD8B460EF13F0010AD8B464EF13F0DC
:10272800030AD8B468EF13F0010AD8B46CEF13F0B9
:1027380070EF13F052C038F053C039F0930E3A6E70
:10274800FF0E3B6E59C03CF03D6A4EC054F04FC07E
:1027580055F0040E566ED89055325432562EAFEFBF
:1027680013F0030E54143E6E3F6A0F0E4E14576E4C
:10277800000E4F14586E57C058F0576A50505710F3
:10278800406E51505810416E3BEC1AF0120007068B
:10279800D8A00806072806E10828D8A4D6EF13F021
:1027A800D8EF13F0E5EF13F0000E046E000E036E81
:1027B8002DEF14F0034A042A054A062A0706D8A072
:1027C800080603C0D9FF04C0DAFFDF50D8B4EFEF22
:1027D80013F0F1EF13F01CEF14F005C0F6FF06C07C
:1027E800F7FF0800F5500009D8B4FDEF13F0FFEF2C
:1027F80013F01CEF14F007500810D8B406EF14F0CB
:1028080008EF14F01CEF14F003C0D9FF04C0DAFF7E
:10281800DF50096E05C0F6FF06C0F7FF0800F55047
:102828000918D8B41AEF14F01CEF14F0DEEF13F007
:1028380003C0D9FF04C0DAFFDF50096E05C0F6FFF8
:1028480006C0F7FF0800F550095C036E046AD8A0BB
:10285800040612007CC083F07DC084F0000E0001E5
:10286800B86F000EB76FB7C0B9F0B8C0BAF0BDC046
:102878007FF0BEC080F060EF14F0000EBE6F000E57
:10288800BD6F7BC06AF0830E6B6F7EC06CF06D6BA2
:102898006EEC06F06AC081F06BC082F0000182BF66
:1028A8005AEF14F058EF14F05CEF14F06EEF14F0D8
:1028B8008151B9278251BA2383C0F6FF84C0F7FF3C
:1028C8000800F5500009D8A46CEF14F06EEF14F06E
:1028D80041EF14F07FC0BDF080C0BEF0812906E151
:1028E8008229D8A47AEF14F07CEF14F08BEF14F05F
:1028F800B951BA11D8A483EF14F085EF14F08BEF17
:1029080014F081C07BF082C07CF08FEF14F0B9C066
:102918007BF0BAC07CF012000C500D10D8B497EFC1
:1029280014F099EF14F0EBEF14F00CC003F00DC0A5
:1029380004F0CCEC19F003C00EF004C00FF0D6EF91
:1029480014F00AC003F00BC004F00CC005F00DC071
:1029580006F00EC007F00FC008F0CBEC13F00350E0
:102968000410D8A4BAEF14F0BCEF14F0C2EF14F0BE
:102978000AC00AF00BC00BF0EFEF14F0010E0A24A6
:10298800036E000E0B20046E0CC0F6FF0DC0F7FF9F
:102998000800F550056E066AF4EC19F003C00AF059
:1029A80004C00BF00A500B10D8B4DDEF14F0DFEFC1
:1029B80014F0EBEF14F00AC0D9FF0BC0DAFFDF50B8
:1029C800D8A4E9EF14F0EBEF14F0A5EF14F0000E23
:1029D8000A6E000E0B6E12000001BF51C011D8A480
:1029E800F8EF14F0FAEF14F000EF15F0BFC010F094
:1029F800C0C011F006EF15F0FF0EBF25106EFF0ED8
:102A0800C021116ECFA10BEF15F00DEF15F014EFEB
:102A180015F00CC003F0046A0BC005F050EC15F07B
:102A280011BE19EF15F01BEF15F01DEF15F021EF92
:102A380015F0000E116E000E106E000E0F6E000ED7
:102A48000E6E31EF15F0000E046E200E036E0BC0F3
:102A580005F050EC15F00E4A0F2A10500E5C0F507E
:102A6800800A0D6E1150800A0D58D8A03EEF15F05F
:102A780040EF15F027EF15F00001CFB146EF15F044
:102A880048EF15F04FEF15F00CC003F0046A0BC0C7
:102A980005F050EC15F012000550D8B456EF15F0BB
:102AA80058EF15F060EF15F00550D8A45EEF15F05B
:102AB80060EF15F065EF15F003506DEC1BF0ACEF0F
:102AC80015F00550D96EDA6A090ED926DE50DE10E7
:102AD800D8B471EF15F073EF15F08CEF15F00550C1
:102AE800D96EDA6A090ED9260550E16EE26A020E3D
:102AF800E126DE50E65CE650800A0A6EDE50800A67
:102B08000A58D8B08AEF15F08CEF15F0ACEF15F035
:102B18000550D96EDA6A020ED926DECF06F0DDCF6F
:102B280007F00550D96EDA6ADECF08F0DDCF09F07C
:102B380006500824D96E07500920DA6E03C0DFFF5B
:102B48000550D96EDA6A020ED926DE2A000EDD2279
:102B58001200000E096E000E086E0350D96EDA6A74
:102B6800DECFF6FFDDCFF7FF0800F5502A0AD8A41C
:102B7800C0EF15F0C2EF15F0EBEF15F00350D96E6A
:102B8800DA6ADE2A000EDD220450D96EDA6A020EF5
:102B9800DF26DF5CD96EDA6ADECF08F0DECF09F017
:102BA800FEEF15F00A0E0802F3CF05F0F4CF06F099
:102BB8000902F350062607500524086E000E062069
:102BC800096E0350D96EDA6ADE2A000EDD22035040
:102BD800D96EDA6ADECFF6FFDDCFF7FF0800F550D1
:102BE800D00F076E090E0764FCEF15F0FEEF15F025
:102BF800D6EF15F008C003F009C004F0120020EE6B
:102C080013F0070EDE6AE806FDE203A00EEF16F0E9
:102C180010EF16F020EF16F00B5013260C5014226C
:102C28000D5015220E5016220F5017221050182240
:102C38001150192212501A22D8900B360C360D3624
:102C48000E360F36103611361236D8900A3209323F
:102C580008320732063205320432033203500410B8
:102C6800051006100710081009100A10D8A43FEF25
:102C780016F041EF16F009EF16F013C003F014C078
:102C880004F015C005F016C006F017C007F018C00C
:102C980008F019C009F01AC00AF01200032806E16A
:102CA8000428D8A45AEF16F05CEF16F05EEF16F081
:102CB8009FEF16F00550D8A464EF16F066EF16F0F3
:102CC80079EF16F0030E0001CD19D8B46EEF16F0A7
:102CD80070EF16F09FEF16F0CD51AE0FD96EDA6A8D
:102CE80003C0DFFFCD2B9FEF16F00550D96EDA6ACF
:102CF800070ED926030EDE18DE10D8B486EF16F0BC
:102D080088EF16F09FEF16F00550D96EDA6A070EB5
:102D1800D926DF50066E05500624D96EDA6A040EED
:102D2800D92603C0DFFF0550D96EDA6A070ED92607
:102D3800DE2A000EDD2212000001CFA1A6EF16F058
:102D4800A8EF16F0B0EF16F012C00BF013C00CF09D
:102D580011C00DF05BEC1AF015BEB7EF16F0B5EF29
:102D680016F0BBEF16F0000E156E000E146E000E76
:102D7800186E000E176ECBEF16F0000E046E200EC4
:102D8800036E11C005F050EC15F0174A182A1450BC
:102D9800175C1850800A166E1550800A1658D8A06D
:102DA800D8EF16F0DAEF16F0C1EF16F00001CFB148
:102DB800E0EF16F0E2EF16F0EAEF16F012C00BF0B3
:102DC80013C00CF011C00DF05BEC1AF01200AA0E43
:102DD800046EFF0E056EA1EC19F014EF17F082BA1D
:102DE800F8EF16F0FAEF16F012EF17F0680E0B6E08
:102DF800E40EE82EFED70B2EFCD700D082BA07EFE0
:102E080017F009EF17F012EF17F00AEC1BF0CAECF5
:102E18001AF00001F369F4691DEF17F019EC1BF0C3
:102E28000001D051D8B41BEF17F01DEF17F0F3EFE6
:102E380016F025EC1BF0010E066E020E42EC19F09E
:102E4800CD0E066EFF0E076EFCEC17F0000E066E38
:102E5800020E076EFCEC17F00001D26BD06B12006B
:102E6800C80E046EFF0E056EA1EC19F05DEF17F0A9
:102E780082BA41EF17F043EF17F05BEF17F0680ED7
:102E88000B6EE40EE82EFED70B2EFCD700D082BACC
:102E980050EF17F052EF17F05BEF17F00AEC1BF04A
:102EA800CAEC1AF00001F369F46966EF17F019EC3F
:102EB8001BF00001D051D8B464EF17F066EF17F09B
:102EC8003CEF17F025EC1BF0010E066E010E42ECEC
:102ED80019F0E40E066EFF0E076EFCEC17F0000EFC
:102EE800066E020E076EFCEC17F00001D26BD06B79
:102EF800120095948C9495968C9695988C98959AA2
:102F08008C9A959C8C9C959E8C9E020E086E380E11
:102F1800076EAD0EE82EFED7072EFCD7082EFAD77F
:102F280000008C9E8C9C8C8A8C885CEC1BF0200E9C
:102F3800076E2A0EE82EFED7072EFCD75CEC1BF096
:102F4800C80EE82EFED75CEC1BF08C9E8C9C8C8AFD
:102F58008C985CEC1BF0280E83EC11F00001F65104
:102F680083EC11F00001F55183EC11F00AEC1BF031
:102F78001200036E2F0E0364C4EF17F0C6EF17F0AC
:102F8800D2EF17F03A0E0360CCEF17F0CEEF17F040
:102F9800D2EF17F00350D00FFBEF17F0400E036489
:102FA800D8EF17F0DAEF17F0E6EF17F0470E0360E7
:102FB800E0EF17F0E2EF17F0E6EF17F00350C90F54
:102FC800FBEF17F0600E0364ECEF17F0EEEF17F06D
:102FD800FAEF17F0670E0360F4EF17F0F6EF17F04B
:102FE800FAEF17F00350A90FFBEF17F0000E1200CD
:102FF8000A6A19EF18F00A500624086E000E072016
:10300800096E08C0F6FF09C0F7FF000EF86E0F0E34
:10301800F76403D00800F55005D0F6CFE9FFF7CFE5
:10302800EAFFEF5005EC11F00A2A0A500624086E50
:10303800000E0720096E08C0F6FF09C0F7FF000E52
:10304800F86E0F0EF76403D00800F55005D0F6CFE0
:10305800E9FFF7CFEAFFEF500009D8A436EF18F0E0
:1030680038EF18F0FFEF17F01200000E086E000E90
:10307800076E05500610D8B444EF18F046EF18F064
:103088006EEF18F0010E096E4EEF18F0D890053665
:103098000636092A06AE53EF18F055EF18F04AEF36
:1030A80018F0D890073608360550035C06500458C7
:1030B800D8A061EF18F063EF18F068EF18F005502A
:1030C800035E0650045A0780D89006320532092E4E
:1030D80055EF18F007C003F008C004F01200000E06
:1030E8000B6E000E0C6E000E0D6E000E0E6E03A021
:1030F80080EF18F082EF18F08AEF18F007500B26CF
:1031080008500C2209500D220A500E22D89007367A
:10311800083609360A36D8900632053204320332A8
:103128000350041005100610D8A49DEF18F09FEF67
:1031380018F07BEF18F00BC003F00CC004F00DC0C2
:1031480005F00EC006F01200CAEF18F0200E101895
:103158001110D8B4B2EF18F0B4EF18F0CAEF18F0A5
:1031680010C00FF0F70E0F26040E0F64BEEF18F014
:10317800C0EF18F0CAEF18F010C003F011C004F047
:103188000EC005F052EC16F0DCEF18F00EC005F09A
:1031980003EC10F005C010F006C011F0102806E18D
:1031A8001128D8A4DAEF18F0DCEF18F0AAEF18F01D
:1031B8001200700ED36E7DEC17F00AEC1BF04DEC8C
:1031C8001BF062EC1BF0E1EC1AF0290E0001A96F6C
:1031D800960EA86F7F0EE82EFED7A82FFCD7A92F32
:1031E800FAD79E0E046EFF0E056EA1EC19F0020EC2
:1031F8000001A96F040EA86FBA0EE82EFED7A82FFB
:10320800FCD7A92FFAD70000D6EC0DF0B1EC0AF0E4
:1032180008EF19F06EEF00F005500610D8B417EF5C
:1032280019F019EF19F03DEF19F0010E076E21EFB3
:1032380019F0D89005360636072A06AE26EF19F09B
:1032480028EF19F01DEF19F00550035C06500458DB
:10325800D8A031EF19F033EF19F037EF19F0055016
:10326800035E0650045AD89006320532072E28EF1E
:1032780019F003C003F004C004F01200076E07043D
:10328800D8A449EF19F04BEF19F04DEF19F07F0E64
:103298000626020E0718D8A454EF19F056EF19F0B5
:1032A80058EF19F0BF0E0626030E0718D8A45FEFD3
:1032B80019F061EF19F063EF19F0930E0626040E6A
:1032C8000718D8A46AEF19F06CEF19F06EEF19F02F
:1032D800D30E0626065083EC11F01200D60EF66EB9
:1032E800360EF76E000EF86E00EEF3F010EE04F0F6
:1032F8000900F5CFEEFFE550E150FAE102EE00F0EB
:1033080011EE00F0EE6AE550E150FCE1E250FAE11E
:1033180001EE00F07C0EEE6AE806FDE100EEAAF090
:10332800490EEE6AE806FDE15B6A5A6A5C905C92B7
:10333800000EF86E0001DDEF18F0000E096E000EA9
:10334800086EB7EF19F008500424066E09500520DE
:10335800076E06C0F6FF07C0F7FF0800F55031EC0E
:103368001BF0084A092A08500424066E0950052053
:10337800076E06C0F6FF07C0F7FF0800F550000902
:10338800D8A4C9EF19F0CBEF19F0A7EF19F0120084
:1033980003C005F004C006F0D4EF19F0034A042A6C
:1033A80003C0F6FF04C0F7FF000EF86E0F0EF764B7
:1033B80003D00800F55005D0F6CFE9FFF7CFEAFFB4
:1033C800EF500009D8A4EBEF19F0EDEF19F0D2EFA8
:1033D80019F00550035C036E06500458046E120081
:1033E80003C0D9FF04C0DAFF0550DE18D8A4FFEFE8
:1033F80019F001EF1AF007EF1AF003C003F004C048
:1034080004F019EF1AF003C0D9FF04C0DAFF034A29
:10341800042ADF50D8A413EF1AF015EF1AF0F4EFCE
:1034280019F0000E036E000E046E120033C036F061
:1034380034C037F028EF1AF032C025F0360E266E69
:1034480035C027F0DAEC0BF036C0F6FF37C0F7FFCF
:103458000800F5500009D8A434EF1AF036EF1AF036
:1034680020EF1AF0000E336E000E326E12003C0E82
:10347800426E38C043F039C044F0000E466E000E6C
:10348800456E000E4D6E000E4C6E430E326E3AC005
:1034980033F03BC034F0420E356E1AEC1AF045504A
:1034A8003824D96E46503920DA6EDF6A1200000ED1
:1034B800106E000E0F6E6AEF1AF00EC003F0046A69
:1034C8000DC005F050EC15F00F4A102A0F500B24D0
:1034D800D96E10500C20DA6EDF500E6E0E50D8A444
:1034E80078EF1AF07AEF1AF061EF1AF01200040E72
:1034F800066E010E42EC19F0460E066EFF0E076EC0
:10350800FCEC17F0050E066E020E42EC19F0450EA3
:10351800066EFF0E076EFCEC17F034EC17F0EBECC0
:1035280016F01200C282C2B29CEF1AF09EEF1AF097
:1035380097EF1AF0340E056EF20EE82EFED7052E20
:10354800FCD7C350C4CF05F0066A05C006F0056A6B
:103558000510036E0650046E1200880E00018A6F73
:1035680085C08BF08C6B000E8E6F000E8D6F000E79
:10357800936F000E926F8B0E7B6F86C07CF087C0B6
:103588007DF08A0E7E6F2EEC14F01200010E066E8E
:10359800010E42EC19F0D50E066EFE0E076EFCEC1D
:1035A80017F0010E066E020E42EC19F0F70E066EC9
:1035B800FE0E076EFCEC17F012000F013A6B949C9C
:1035C800948EAC8AAC9CAC98AC84B886010EB06E74
:1035D800A00EAF6EB898B89AAB8EAB88AB9C9D8A9C
:1035E800F28CF28E1200066E0650D8B4FEEF1AF076
:1035F80000EF1BF004EF1BF00001F68106EF1BF053
:103608000001F691F65183EC11F01200010E83ECE3
:1036180011F00C0E066EA20EE82EFED7062EFCD771
:103628000001F55183EC11F01200100E066E010E28
:1036380042EC19F0FC0E066EFF0E076EFCEC17F05C
:103648001200100E066E010E42EC19F0FA0E066E0C
:10365800FF0E076EFCEC17F01200036EACA237EFFA
:103668001BF039EF1BF032EF1BF003C0ADFF120067
:10367800BD86BD94BD82BD80C30EBF6E500EBE6EAA
:103688001200CD8ACD88CD96CD84CD9ECD9CCD809F
:10369800120093880F013999948A3A9B9280388155
:1036A8001200FCEC07F076EC12F069EC09F012005D
:1036B8008C86500EE82EFED78C961200010EC26E34
:1036C800C16AAA0EC06E1200036804681200FFFFE8
:0436D800060C1200CA
:10FE9000004F42444949204E6F7420466F756E648E
:10FEA00020003E3E3E204F42444949504943203CB9
:10FEB0003C3C00592F4E203C3C3C3C3C3C3C3C3CB8
:10FEC0003C3C3C003D3D3D3D3D3D3D3D3D3D3D3DA2
:10FED0003D3D3D3D004D454E5520203C4F4244495F
:10FEE000495049433E003C4F4244494920446574CF
:10FEF00065637465643E004C524D20445443204376
:10FF0000444320445349004E6F7468696E67204330
:10FF10006C656172656400445443277320526571B7
:10FF2000756573746564003E3E3E3E2056312E304A
:10FF3000203C3C3C3C00436C65617220436F64652F
:10FF40002873293F0020202020202020202020204E
:10FF500020200044544328732920466F756E643A6C
:10FF600000436F64657320436C6561726564004E85
:10FF70006F204454437320466F756E64004C6F616C
:10FF800064696E672E2E2E00546F204D656E752E9F
:10FF90002E2E00256325303158253032580041542B
:10FFA00045300D0041544C300D00303130380D00DB
:10FFB000303130430D00303130460D00415452563F
:10FFC0000D005642617474004154490D005341457F
:10FFD0003A003431304300343130460030330D00C4
:10FFE00030340D004F533A004E2F410052504D0017
:0FFFF000414954002575002578005E007E000011
:020000040030CA
:0E000000FF380E3CFFBF85FF0FC00FE00F4022
:00000001FF
