:0400000069EF00F0B4
:100008005C82D9CF01F0DACF02F09DAA0EEF00F0A2
:1000180010EF00F063EF00F09EAA15EF00F017EF65
:1000280000F063EF00F0AECF48F0ABA21EEF00F097
:1000380020EF00F022EF00F0AB98AB881F0E486469
:1000480028EF00F02AEF00F042EF00F07F0E486042
:1000580030EF00F032EF00F042EF00F03E0E4818AB
:10006800D8B439EF00F03BEF00F042EF00F0495010
:10007800800FD96EDA6A48C0DFFF492A3E0E481859
:10008800D8B449EF00F04BEF00F05CEF00F00A0E37
:100098004818D8B452EF00F054EF00F05CEF00F0CD
:1000A8001E0E49645AEF00F05CEF00F063EF00F0B9
:1000B8004950800FD96EDA6ADF6A010E476E02C0B6
:0E00C800DAFF01C0D9FF5C92110083EF0EF049
:10100000004D454E553C3C4F424449495049433EB2
:101010003E004C524D20524443204344432044530D
:101020004900415445300D00303130380D00303129
:1010300030430D00303130460D00415452560D0002
:101040002020202020005341453A2000454C4D3AB5
:1010500020005642617474004154490D004E2F41E6
:0F1060000052504D0041495400257500430000D7
:101070002E682F6855EC0FF0F9EC0EF0DEEC0EF058
:1010800003C030F004C031F03104D8B04AEF08F0AA
:101090004CEF08F055EF08F0000E2F6E000E2E6E8C
:1010A000010E066E020EBEEC0DF03104D8A05BEF0F
:1010B00008F05DEF08F06FEF08F0020E315CD8B079
:1010C00064EF08F066EF08F06FEF08F0000E2F6E87
:1010D000010E2E6E050E066E020EBEEC0DF0020E17
:1010E000315CD8A076EF08F078EF08F08AEF08F0CE
:1010F000030E315CD8B07FEF08F081EF08F08AEF83
:1011000008F0000E2F6E020E2E6E090E066E020EF5
:10111000BEEC0DF0030E315CD8A091EF08F093EF18
:1011200008F0A5EF08F0040E315CD8B09AEF08F093
:101130009CEF08F0A5EF08F0000E2F6E030E2E6E48
:101140000D0E066E020EBEEC0DF0010E44EC0FF01B
:1011500081B8ADEF08F0AFEF08F04DEF09F0680E81
:101160002C6EE40EE82EFED72C2EFCD700D081B8D2
:10117000BCEF08F0BEEF08F04DEF09F0000E44ECB4
:101180000FF055EC0FF02FEF09F076EC0FF082BA6C
:10119000CCEF08F0CEEF08F0C5EF08F0680E2C6E2B
:1011A000E40EE82EFED72C2EFCD700D082BADBEF5F
:1011B00008F0DDEF08F0C5EF08F055EC0FF0F9ECA2
:1011C0000EF02E682F684DEF09F082BAEAEF08F0B2
:1011D000ECEF08F0E5EF08F0680E2C6EE40EE82E58
:1011E000FED72C2EFCD700D082BAF9EF08F0FBEF27
:1011F00008F0E5EF08F0DDEF08F082BA02EF09F041
:1012000004EF09F0FDEF08F0680E2C6EE40EE82EF6
:10121000FED72C2EFCD700D082BA11EF09F013EFC5
:1012200009F0FDEF08F0DDEF08F089EC0FF082BA6D
:101230001CEF09F01EEF09F015EF09F0680E2C6E97
:10124000E40EE82EFED72C2EFCD700D082BA2BEF6E
:1012500009F02DEF09F015EF09F0DDEF08F02EC0D1
:101260002CF02FC02DF02D50000AD8B43AEF09F021
:101270004DEF09F02C50000AD8B4C5EF08F0010A70
:10128000D8B4E5EF08F0030AD8B4FDEF08F0010A7E
:10129000D8B415EF09F04DEF09F0020E2D6E040ED3
:1012A0002C6EBA0EE82EFED72C2EFCD72D2EFAD798
:1012B00000D03EEF08F012000C50D96EDA6ADFCF92
:1012C000F6FF100EF76E0800F550250AD8A46BEF54
:1012D00009F06DEF09F0FFEF09F00C50D96EDA6AF2
:1012E000DF2A000E396E000E386E38C046F03A68BC
:1012F0003B680C50D96EDA6ADF50136E13C0F6FFEC
:10130000100EF76E0800F550750AD8A48AEF09F0A0
:101310008CEF09F0F9EF09F00D50D96EDA6A020E80
:10132000DF26DF5CD96EDA6ADECF0FF0DECF10F099
:101330000C50D96EDA6A1328DF6EEDEF09F0200E3B
:10134000146E14061450600FD96EDA6A0FC003F0E1
:1013500010C004F0000E066E0A0E056E8CEC0DF047
:101360000350300FDF6E0FC003F010C004F0000E0A
:10137000066E0A0E056E52EC0DF003C00FF004C0AD
:1013800010F00F501010D8B4C8EF09F0CAEF09F0F0
:10139000E2EF09F01450D8A4D0EF09F0D2EF09F031
:1013A000A1EF09F0E2EF09F01450600FD96EDA6A8C
:1013B000DF500E6E0E50036E046A0BC005F0F6ECA3
:1013C0000BF0142A200E1418D8A4E9EF09F0EBEF63
:1013D00009F0D4EF09F010EF0AF013C0F6FF100E79
:1013E000F76E0800F550750AD8B49FEF09F0F9EFD1
:1013F00009F00C50D96EDA6ADF2A10EF0AF00C50AF
:10140000D96EDA6ADFCFF6FF100EF76E0800F550DE
:10141000036E046A0BC005F0F6EC0BF0F9EF09F06F
:1014200012002E0E046E1CEC0EF04750D8B41BEFC9
:101430000AF01DEF0AF015EF0AF00001845198EC54
:101440000CF0296E2A6A293A2A3AF00E2A162950F7
:101450000F0B2A12F00E29160001855198EC0CF0A2
:101460002B6E2B502910446E2A50456E0001865178
:1014700098EC0CF0296E2A6A293A2A3AF00E2A16BC
:1014800029500F0B2A12F00E29160001875198ECF3
:101490000CF02B6E2B502910426E2A50436E445094
:1014A0002A6E296A4250292643502A22D8902A328D
:1014B0002932D8902A32293229C040F02AC041F07E
:1014C0004A0E196E690E1A6E40C01BF041C01CF026
:1014D00014EC0FF0010E066E020EBEEC0DF0400E85
:1014E000066E0650D8A4100E076E15EC0DF0010E16
:1014F000066E010EBEEC0DF0610E066E0650D8A40D
:10150000100E076E15EC0DF0010E066E020EBEEC0D
:101510000DF04A0E066E076A15EC0DF0496A476A2F
:101520001200056E8C84036A05AE01D0032A010EF9
:101530000316033203328C5003187F0B03188C6E92
:1015400005C003F0060E046ED8900332042EA4EFFB
:101550000AF0010E0316033A034603468C500318A3
:10156000BF0B03188C6E05C003F0050E046ED890F7
:101570000332042EB7EF0AF0010E0316033A0346B6
:101580008C500318DF0B03188C6E05C003F0033A70
:101590000F0E0316010E0316033A8C500318EF0BBF
:1015A00003188C6E7DEC0FF005C003F0D890033269
:1015B000D8900332D8900332010E0316033203325F
:1015C0008C5003187F0B03188C6E05C003F0D89065
:1015D0000332D8900332010E0316033A0346034642
:1015E0008C500318BF0B03188C6E05C003F0D89005
:1015F0000332010E0316033A03468C500318DF0B27
:1016000003188C6E05C003F0010E0316033A8C50CC
:101610000318EF0B03188C6E7DEC0FF01200056EB3
:101620008C94036A05AE01D0032A010E031603321F
:1016300003328C5003187F0B03188C6E05C003F027
:10164000060E046ED8900332042E22EF0BF0010E2A
:101650000316033A034603468C500318BF0B0318C6
:101660008C6E05C003F0050E046ED8900332042E74
:1016700035EF0BF0010E0316033A03468C500318A6
:10168000DF0B03188C6E05C003F0033A0F0E031630
:10169000010E0316033A8C500318EF0B03188C6EDF
:1016A0007DEC0FF005C003F0D8900332D8900332E0
:1016B000D8900332010E0316033203328C50031804
:1016C0007F0B03188C6E05C003F0D8900332D890BE
:1016D0000332010E0316033A034603468C500318E7
:1016E000BF0B03188C6E05C003F0D8900332010EB7
:1016F0000316033A03468C500318DF0B03188C6E55
:1017000005C003F0010E0316033A8C500318EF0BCB
:1017100003188C6E7DEC0FF01200340E046E1CEC7E
:101720000EF04750D8B497EF0BF099EF0BF091EF14
:101730000BF00E0E066E020EBEEC0DF0420E066EA3
:101740000650D8A4100E076E15EC0DF00001845160
:1017500098EC0CF0296E2A6A293A2A3AF00E2A16D9
:1017600029500F0B2A12F00E29160001855198EC12
:101770000CF02B6E2B5029103E6E2A503F6ED80E67
:101780003E243C6EFF0E3F203D6EA00E196E690E8A
:101790001A6E3CC01BF03DC01CF014EC0FF00E0E96
:1017A000066E010EBEEC0DF0650E066E0650D8A456
:1017B000100E076E15EC0DF00E0E066E020EBEEC4E
:1017C0000DF0A00E066E076A15EC0DF0100E066EF9
:1017D000020EBEEC0DF06C0E066E0650D8A4100E74
:1017E000076E15EC0DF0496A476A12000550D8B42F
:1017F000FCEF0BF0FEEF0BF006EF0CF00550D8A459
:1018000004EF0CF006EF0CF00BEF0CF003508FEC34
:101810000FF04AEF0CF00550D96EDA6A090ED9269E
:10182000DE50DE10D8B417EF0CF019EF0CF032EFE9
:101830000CF00550D96EDA6A090ED9260550E16E12
:10184000E26A020EE126DE50E65CE650800A0A6E8D
:10185000DE50800A0A58D8B030EF0CF032EF0CF0AE
:101860004AEF0CF00550D96EDA6A020ED926DF5025
:10187000066E0550D96EDA6ADF500624D96EDA6A30
:1018800003C0DFFF0550D96EDA6A020ED926DE2AC0
:10189000000EDD2212003A0E046E1CEC0EF04750D2
:1018A000D8B455EF0CF057EF0CF04FEF0CF0070EDB
:1018B000066E020EBEEC0DF0400E066E0650D8A469
:1018C000100E076E15EC0DF0070E066E010EBEEC45
:1018D0000DF0520E066E0650D8A4100E076E15ECD1
:1018E0000DF0070E066E020EBEEC0DF0800E036EBC
:1018F000000E056E560E046EC1EC0EF00009D8A461
:1019000084EF0CF086EF0CF090EF0CF05D0E066E9D
:101910000650D8A4100E076E15EC0DF095EF0CF0E4
:10192000800E066E076A15EC0DF0496A476A1200D0
:10193000036E2F0E03649FEF0CF0A1EF0CF0ADEFE0
:101940000CF03A0E0360A7EF0CF0A9EF0CF0ADEF2E
:101950000CF00350D00FD6EF0CF0400E0364B3EF41
:101960000CF0B5EF0CF0C1EF0CF0470E0360BBEFCD
:101970000CF0BDEF0CF0C1EF0CF00350C90FD6EF27
:101980000CF0600E0364C7EF0CF0C9EF0CF0D5EF5C
:101990000CF0670E0360CFEF0CF0D1EF0CF0D5EF39
:1019A0000CF00350A90FD6EF0CF0000E1200959426
:1019B0008C9495968C9695988C98959A8C9A959CE3
:1019C0008C9C959E8C9E020E086E380E076EAD0E96
:1019D000E82EFED7072EFCD7082EFAD700008C9EE3
:1019E0008C9C8C8A8C887DEC0FF0200E076E2A0E62
:1019F000E82EFED7072EFCD77DEC0FF0C80EE82EA0
:101A0000FED77DEC0FF08C9E8C9C8C8A8C987DECA4
:101A10000FF0280E0FEC0BF05B500FEC0BF05A5050
:101A20000FEC0BF055EC0FF012000A6A32EF0DF0DC
:101A30000A500624086E000E0720096E08C0F6FF43
:101A400009C0F7FF000EF86E0F0EF76403D0080010
:101A5000F55005D0F6CFE9FFF7CFEAFFEF5091EC54
:101A60000AF00A2A0A500624086E000E0720096EA2
:101A700008C0F6FF09C0F7FF000EF86E0F0EF764FE
:101A800003D00800F55005D0F6CFE9FFF7CFEAFF05
:101A9000EF500009D8A44FEF0DF051EF0DF018EF03
:101AA0000DF01200000E086E000E076E05500610B5
:101AB000D8B45DEF0DF05FEF0DF087EF0DF0010E84
:101AC000096E67EF0DF0D89005360636092A06AE86
:101AD0006CEF0DF06EEF0DF063EF0DF0D890073660
:101AE00008360550035C06500458D8A07AEF0DF074
:101AF0007CEF0DF081EF0DF00550035E0650045AA7
:101B00000780D89006320532092E6EEF0DF007C01F
:101B100003F008C004F0120005500610D8B493EF8B
:101B20000DF095EF0DF0B9EF0DF0010E076E9DEF82
:101B30000DF0D89005360636072A06AEA2EF0DF056
:101B4000A4EF0DF099EF0DF00550035C065004581A
:101B5000D8A0ADEF0DF0AFEF0DF0B3EF0DF00550E5
:101B6000035E0650045AD89006320532072EA4EFC1
:101B70000DF003C003F004C004F01200076E070468
:101B8000D8A4C5EF0DF0C7EF0DF0C9EF0DF07F0E33
:101B90000626020E0718D8A4D0EF0DF0D2EF0DF0F4
:101BA000D4EF0DF0BF0E0626030E0718D8A4DBEF06
:101BB0000DF0DDEF0DF0DFEF0DF0930E0626040EB5
:101BC0000718D8A4E6EF0DF0E8EF0DF0EAEF0DF0FE
:101BD000D30E062606500FEC0BF01200700ED36EDB
:101BE000D7EC0CF055EC0FF06EEC0FF083EC0FF02F
:101BF0002EEC0FF0290E336E960E326E7F0EE82E0D
:101C0000FED7322EFCD7332EFAD70000220E046EF8
:101C10001CEC0EF0020E336E040E326EBA0EE82E7D
:101C2000FED7322EFCD7332EFAD700D038EC08F08E
:101C300016EF0EF069EF00F0000E076E000E066E54
:101C40002FEF0EF004500624056E05C0F6FF100EAF
:101C5000F76E0800F55063EC0FF0064A072A0450AF
:101C60000624056E05C0F6FF100EF76E0800F5504D
:101C70000009D8A43EEF0EF040EF0EF022EF0EF078
:101C80001200280E046E1CEC0EF04750D8B44BEF37
:101C90000EF04DEF0EF045EF0EF0010E066E020E47
:101CA000BEEC0DF0460E066E0650D8A4100E076E60
:101CB00015EC0DF0800E066E076A15EC0DF0496A02
:101CC000476A1200580E046E1CEC0EF04750D8B450
:101CD0006CEF0EF06EEF0EF066EF0EF0010E066E7A
:101CE000010EBEEC0DF04C0E066E0650D8A4100E80
:101CF000076E15EC0DF0800E066E076A15EC0DF000
:101D0000496A476A12001C0EF66E1F0EF76E000E2F
:101D1000F86E0900F5CF5AF00900F5CF5BF000EE40
:101D200060F0500EEE6AE806FDE100EE34F0260E9B
:101D3000EE6AE806FDE15C905C92000EF86E000130
:101D4000EEEF0DF016C018F0AEEF0EF015C00BF070
:101D5000180E0C6E17C00DF05CEC09F018C0F6FF01
:101D6000100EF76E0800F5500009D8A4BAEF0EF077
:101D7000BCEF0EF0A6EF0EF0000E166E000E156E04
:101D800012000350D96EDA6A0450DE18D8A4CBEFE3
:101D90000EF0CDEF0EF0D0EF0EF00350DDEF0EF0B1
:101DA000032A0304D96EDA6ADF50D8A4DAEF0EF002
:101DB000DCEF0EF0C1EF0EF0000E1200C282C2B2D4
:101DC000E4EF0EF0E6EF0EF0DFEF0EF0340E056EEE
:101DD000F20EE82EFED7052EFCD7C350C4CF05F077
:101DE000066A05C006F0056A0510036E0650046E0B
:101DF0001200010E066E010EBEEC0DF0010E066E15
:101E00000650D8A4100E076E15EC0DF0010E066EEC
:101E1000020EBEEC0DF0120E066E0650D8A4100E87
:101E2000076E15EC0DF012001B0E1D6E19C01EF092
:101E3000000E216E000E206E000E286E000E276E22
:101E40001E0E156E1AC016F01D0E176EA2EC0EF0C7
:101E500019502024D96EDA6ADF6A12000F013A6B3A
:101E6000949C948EAC8AAC9CAC98AC84B886010EE1
:101E7000B06EA00EAF6EB898B89AAB8EAB88AB9C24
:101E80009D8AF28CF28E1200066E0650D8B44BEF8B
:101E90000FF04DEF0FF050EF0FF05B8051EF0FF0B0
:101EA0005B905B500FEC0BF01200010E0FEC0BF08F
:101EB0000C0E066EA20EE82EFED7062EFCD75A5048
:101EC0000FEC0BF01200036EACA269EF0FF06BEF9A
:101ED0000FF064EF0FF003C0ADFF120093880F0105
:101EE0003999948A3A9B92803881120011EC0AF059
:101EF0004BEC0CF08DEC0BF012008C86500EE82EA3
:101F0000FED78C961200010EC26EC16AAA0EC06E78
:101F1000120062EC0EF041EC0EF01200060C120002
:020000040030CA
:0E000000FF380E3CFFBF85FF0FC00FE00F4022
:00000001FF
