:0400000069EF00F0B4
:100008005C82D9CF01F0DACF02F09DAA0EEF00F0A2
:1000180010EF00F063EF00F09EAA15EF00F017EF65
:1000280000F063EF00F0AECF46F0ABA21EEF00F099
:1000380020EF00F022EF00F0AB98AB881F0E46646B
:1000480028EF00F02AEF00F042EF00F07F0E466044
:1000580030EF00F032EF00F042EF00F03E0E4618AD
:10006800D8B439EF00F03BEF00F042EF00F0475012
:10007800800FD96EDA6A46C0DFFF472A3E0E46185F
:10008800D8B449EF00F04BEF00F05CEF00F00A0E37
:100098004618D8B452EF00F054EF00F05CEF00F0CF
:1000A8001E0E47645AEF00F05CEF00F063EF00F0BB
:1000B8004750800FD96EDA6ADF6A010E456E02C0BA
:0E00C800DAFF01C0D9FF5C921100EFEF11F0DA
:101000000020204E6F74204465746563746564200D
:1010100020003E3E3E204F42444949504943203C37
:101020003C3C003E3E3E3E3E2056312E30203C3C75
:101030003C3C3C00592F4E203C3C3C3C3C3C3C3C26
:101040003C3C3C3C004D454E55203C4F42444949B8
:101050005049433E004C524D2052444320434443A8
:1010600020445349004E6F7468696E6720436C6575
:101070006172656400436C65617220436F6465282A
:1010800073293F00436F64657320436C656172652B
:101090006400546F204D656E752E2E2E0041544510
:1010A000300D00303130380D00303130430D00301C
:1010B0003130460D00415452560D00202020202092
:1010C000005642617474004154490D005341453A41
:1010D00000454C4D3A0030340D004E2F4100525027
:1010E0004D00414954002575004300001AEC13F0EF
:1010F000ABEC12F0ABEC12F090EC12F003C042F04B
:1011000004C043F04304D8B088EF08F08AEF08F039
:1011100093EF08F0000E596E000E586E010E066E29
:10112000020E9AEC11F04304D8A099EF08F09BEF5F
:1011300008F0ADEF08F0020E435CD8B0A2EF08F063
:10114000A4EF08F0ADEF08F0000E596E010E586ED6
:10115000050E066E020E9AEC11F0020E435CD8A04A
:10116000B4EF08F0B6EF08F0C8EF08F0030E435CE8
:10117000D8B0BDEF08F0BFEF08F0C8EF08F0000EE0
:10118000596E020E586E090E066E020E9AEC11F0A0
:10119000030E435CD8A0CFEF08F0D1EF08F0E3EFE7
:1011A00008F0040E435CD8B0D8EF08F0DAEF08F08E
:1011B000E3EF08F0000E596E030E586E0D0E066E2A
:1011C000020E9AEC11F0010E09EC13F081B8EBEF6E
:1011D00008F0EDEF08F083EF09F0680E2E6EE40ED4
:1011E000E82EFED72E2EFCD700D081B8FAEF08F0FB
:1011F000FCEF08F083EF09F0000E09EC13F01AEC95
:1012000013F065EF09F0F6EC12F082BA0AEF09F07C
:101210000CEF09F003EF09F0680E2E6EE40EE82ED5
:10122000FED72E2EFCD700D082BA19EF09F01BEFA3
:1012300009F003EF09F01AEC13F0ABEC12F0586868
:10124000596883EF09F082BA28EF09F02AEF09F014
:1012500023EF09F0680E2E6EE40EE82EFED72E2E38
:10126000FCD700D082BA37EF09F039EF09F023EF4D
:1012700009F01BEF09F0050E2F6E0F0E2E6EF10E0A
:10128000E82EFED72E2EFCD72F2EFAD7000092EC98
:1012900009F083EF09F058EC13F082BA52EF09F02D
:1012A00054EF09F04BEF09F0680E2E6EE40EE82EB5
:1012B000FED72E2EFCD700D082BA61EF09F063EF83
:1012C00009F04BEF09F01BEF09F058C02EF059C0A0
:1012D0002FF02F50000AD8B470EF09F083EF09F017
:1012E0002E50000AD8B403EF09F0010AD8B423EF56
:1012F00009F0030AD8B43BEF09F0010AD8B44BEF68
:1013000009F083EF09F0020E2F6E040E2E6EBA0E56
:10131000E82EFED72E2EFCD72F2EFAD700D07AEF4C
:1013200008F01200000E0E6E000E0D6E1AEC13F097
:10133000010E066E010E9AEC11F0750E066E065047
:10134000D8A4100E076E8BEC10F0010E066E020E84
:101350009AEC11F0340E066E0650D8A4100E076EEB
:101360008BEC10F0010E09EC13F090EC12F003C0BE
:1013700042F004C043F0020E435CD8B0C2EF09F063
:10138000C4EF09F0CDEF09F0000E0E6E000E0D6EE9
:10139000010E066E020E9AEC11F0020E435CD8A00C
:1013A000D4EF09F0D6EF09F0E8EF09F0040E435C42
:1013B000D8B0DDEF09F0DFEF09F0E8EF09F0000E3B
:1013C0000E6E010E0D6E030E066E020E9AEC11F0FB
:1013D00082BAEDEF09F0EFEF09F006EF0AF0680EC0
:1013E0000B6EE40EE82EFED70B2EFCD700D082BA8F
:1013F000FCEF09F0FEEF09F006EF0AF01AEC13F02B
:10140000ABEC12F0586859688AEF0AF081B80BEF1C
:101410000AF00DEF0AF0B5EF09F0680E0B6EE40E5E
:10142000E82EFED70B2EFCD700D081B81AEF0AF0B9
:101430001CEF0AF0B5EF09F074EF0AF0D60E046E57
:10144000CAEC11F04550D8B428EF0AF02AEF0AF0A0
:1014500022EF0AF01AEC13F0010E066E010E9AEC60
:1014600011F0840E066E0650D8A4100E076E8BEC99
:1014700010F0010E066E020E9AEC11F0920E066E3E
:101480000650D8A4100E076E8BEC10F058685968FF
:10149000290E0C6E960E0B6E7F0EE82EFED70B2ECD
:1014A000FCD70C2EFAD700008AEF0AF01AEC13F0E2
:1014B000010E066E010E9AEC11F0650E066E0650D6
:1014C000D8A4100E076E8BEC10F0010E066E020E03
:1014D0009AEC11F0920E066E0650D8A4100E076E0C
:1014E0008BEC10F046EF0AF00DC00BF00EC00CF0C4
:1014F0000C50000AD8B47FEF0AF08AEF0AF00B50C4
:10150000000AD8B41EEF0AF0010AD8B456EF0AF068
:101510008AEF0AF01200176A14BE93EF0AF091EFF7
:101520000AF0ADEF0AF011C003F012C004F013C0CE
:1015300005F014C006F0FF0E076EFF0E086EFF0EDA
:10154000096EFF0E0A6E02EC11F003C011F004C028
:1015500012F005C013F006C014F011C018F012C04C
:1015600019F013C01AF014C01BF0172A1BBEC6EFE7
:101570000AF01B501A10191007E10A0E185CD8B0B7
:10158000C4EF0AF0C6EF0AF0C8EF0AF0E4EF0AF081
:1015900018C003F019C004F01AC005F01BC006F013
:1015A0000A0E076E000E086E000E096E000E0A6E1F
:1015B0008DEC0CF003C018F004C019F005C01AF04F
:1015C00006C01BF0B5EF0AF01550175CD8A0EBEF82
:1015D0000AF0EDEF0AF0EFEF0AF0F5EF0AF0200E57
:1015E00092EC0DF01506E4EF0AF011C018F012C0ED
:1015F00019F013C01AF014C01BF0010E166E1CEF88
:101600000BF018C003F019C004F01AC005F01BC09D
:1016100006F00A0E076E000E086E000E096E000E30
:101620000A6E8DEC0CF003C018F004C019F005C070
:101630001AF006C01BF0162A1750165CD8A023EF2C
:101640000BF025EF0BF001EF0BF018C003F019C001
:1016500004F01AC005F01BC006F00A0E076E000E5B
:10166000086E000E096E000E0A6E8EEC0EF003502E
:10167000300F92EC0DF017061750D8A442EF0BF084
:1016800044EF0BF0F5EF0AF012000C50D96EDA6A55
:10169000DFCFF6FF100EF76E0800F550250AD8A42C
:1016A00054EF0BF056EF0BF0E8EF0BF00C50D96E47
:1016B000DA6ADF2A000E356E000E346E34C044F054
:1016C000366837680C50D96EDA6ADF50136E13C073
:1016D000F6FF100EF76E0800F550750AD8A473EFE8
:1016E0000BF075EF0BF0E2EF0BF00D50D96EDA6AEC
:1016F000020EDF26DF5CD96EDA6ADECF0FF0DECFB6
:1017000010F00C50D96EDA6A1328DF6ED6EF0BF0AA
:10171000200E146E14061450600FD96EDA6A0FC0D2
:1017200003F010C004F0000E066E0A0E056E37ECD2
:1017300011F00350300FDF6E0FC003F010C004F043
:10174000000E066E0A0E056EC8EC10F003C00FF016
:1017500004C010F00F501010D8B4B1EF0BF0B3EF7D
:101760000BF0CBEF0BF01450D8A4B9EF0BF0BBEF9C
:101770000BF08AEF0BF0CBEF0BF01450600FD96E2B
:10178000DA6ADF500E6E0E50036E046A0BC005F06D
:101790006CEC0FF0142A200E1418D8A4D2EF0BF022
:1017A000D4EF0BF0BDEF0BF0F9EF0BF013C0F6FF29
:1017B000100EF76E0800F550750AD8B488EF0BF0DC
:1017C000E2EF0BF00C50D96EDA6ADF2AF9EF0BF07A
:1017D0000C50D96EDA6ADFCFF6FF100EF76E0800F4
:1017E000F550036E046A0BC005F06CEC0FF0E2EFED
:1017F0000BF01200000E1F6E000E1E6E000E216E0A
:10180000000E206E010E066E010E9AEC11F0120E03
:10181000066E0650D8A4100E076E8BEC10F0010E69
:10182000066E020E9AEC11F0230E066E0650D8A436
:10183000100E076E8BEC10F033EC13F03CEC13F051
:1018400046EF0CF09EA427EF0CF029EF0CF046EFCA
:101850000CF09E94204A212ACD80100E066E020EB6
:101860009AEC11F020C003F021C004F0000E066EC7
:101870000A0E056EC8EC10F003C011F004C012F09F
:10188000136A146A010E156E8BEC0AF0215009E1FF
:10189000640E205CD8A04FEF0CF051EF0CF022EF5B
:1018A0000CF0C70E046ECAEC11F074EF0CF0010ED0
:1018B000066E020E9AEC11F0010E066E0650D8A4C8
:1018C000100E076E8BEC10F0020E1D6E040E1C6ED7
:1018D000BA0EE82EFED71C2EFCD71D2EFAD700D04C
:1018E000C70E046ECAEC11F04550D8B47AEF0CF074
:1018F0007CEF0CF057EF0CF0020E1D6E040E1C6E08
:10190000BA0EE82EFED71C2EFCD71D2EFAD700D01B
:101910009D0E046ECAEC11F012000C6A0ABE95EF1F
:101920000CF093EF0CF09FEF0CF00A1E091E081E3E
:10193000076C000E082209220A22010E0C6E06BE58
:10194000A6EF0CF0A4EF0CF0B0EF0CF0061E051E95
:10195000041E036C000E042205220622010E0C1A3E
:10196000000E0D6E000E0E6E000E0F6E000E106E4D
:101970000750081009100A10D8B4C1EF0CF0C3EFDB
:101980000CF0F9EF0CF0010E0B6ECDEF0CF0D890CF
:101990000736083609360A360B2A0AAED2EF0CF0A3
:1019A000D4EF0CF0C7EF0CF0D8900D360E360F3692
:1019B00010360750035C08500458095005580A5067
:1019C0000658D8A0E6EF0CF0E8EF0CF0F1EF0CF0C1
:1019D0000750035E0850045A0950055A0A50065A27
:1019E0000D80D8900A320932083207320B2ED4EF1C
:1019F0000CF00C50D8B4FFEF0CF001EF0DF009EF34
:101A00000DF0101E0F1E0E1E0D6C000E0E220F226A
:101A100010220DC003F00EC004F00FC005F010C07E
:101A200006F01200A90E046ECAEC11F04550D8B4AD
:101A30001CEF0DF01EEF0DF016EF0DF000018451BC
:101A40000EEC10F0296E2A6A293A2A3AF00E2A166C
:101A500029500F0B2A12F00E2916000185510EECA9
:101A600010F02B6E2B502910406E2A50416E000151
:101A700086510EEC10F0296E2A6A293A2A3AF00EA5
:101A80002A1629500F0B2A12F00E29160001875131
:101A90000EEC10F02B6E2B5029103E6E2A503F6E2C
:101AA00040502A6E296A3E5029263F502A22D8905B
:101AB0002A322932D8902A32293229C03CF02AC051
:101AC0003DF0480E196EE60E1A6E3CC01BF03DC08C
:101AD0001CF0C6EC12F0010E066E020E9AEC11F02C
:101AE000BB0E066E0650D8A4100E076E8BEC10F0DD
:101AF000010E066E010E9AEC11F0DE0E066E065017
:101B0000D8A4100E076E8BEC10F0010E066E020EBC
:101B10009AEC11F0480E066E076A8BEC10F0476ADB
:101B2000456A1200056E8C84036A05AE01D0032A53
:101B3000010E0316033203328C5003187F0B031877
:101B40008C6E05C003F0060E046ED8900332042E8E
:101B5000A5EF0DF0010E0316033A034603468C5021
:101B60000318BF0B03188C6E05C003F0050E046E3E
:101B7000D8900332042EB8EF0DF0010E0316033A8D
:101B800003468C500318DF0B03188C6E05C003F05E
:101B9000033A0F0E0316010E0316033A8C50031876
:101BA000EF0B03188C6E4CEC13F005C003F0D890CB
:101BB0000332D8900332D8900332010E0316033259
:101BC00003328C5003187F0B03188C6E05C003F092
:101BD000D8900332D8900332010E0316033A03461D
:101BE00003468C500318BF0B03188C6E05C003F01E
:101BF000D8900332010E0316033A03468C500318A3
:101C0000DF0B03188C6E05C003F0010E0316033AB8
:101C10008C500318EF0B03188C6E4CEC13F0120071
:101C2000056E8C94036A05AE01D0032A010E0316DB
:101C3000033203328C5003187F0B03188C6E05C0DF
:101C400003F0060E046ED8900332042E23EF0EF03C
:101C5000010E0316033A034603468C500318BF0BCC
:101C600003188C6E05C003F0050E046ED890033285
:101C7000042E36EF0EF0010E0316033A03468C5085
:101C80000318DF0B03188C6E05C003F0033A0F0E28
:101C90000316010E0316033A8C500318EF0B0318BA
:101CA0008C6E4CEC13F005C003F0D8900332D89042
:101CB0000332D8900332010E0316033203328C50E4
:101CC00003187F0B03188C6E05C003F0D890033205
:101CD000D8900332010E0316033A034603468C5094
:101CE0000318BF0B03188C6E05C003F0D8900332A5
:101CF000010E0316033A03468C500318DF0B03183A
:101D00008C6E05C003F0010E0316033A8C500318C5
:101D1000EF0B03188C6E4CEC13F012000C6A06BE2D
:101D200096EF0EF094EF0EF0A0EF0EF0061E051EDB
:101D3000041E036C000E042205220622010E0C6E06
:101D40000ABEA7EF0EF0A5EF0EF0AFEF0EF00A1EE1
:101D5000091E081E076C000E082209220A220750DD
:101D6000081009100A10D8B4B8EF0EF0BAEF0EF050
:101D7000EAEF0EF0010E0B6EC4EF0EF0D8900736AE
:101D8000083609360A360B2A0AAEC9EF0EF0CBEF39
:101D90000EF0BEEF0EF00750035C085004580950D7
:101DA00005580A500658D8A0D8EF0EF0DAEF0EF01A
:101DB000E2EF0EF00750035E0850045A0950055A2E
:101DC0000A50065AD8900A320932083207320B2ECE
:101DD000CBEF0EF00C50D8B4F0EF0EF0F2EF0EF0A7
:101DE000FAEF0EF0061E051E041E036C000E042200
:101DF0000522062203C003F004C004F005C005F06C
:101E000006C006F01200AF0E046ECAEC11F0455089
:101E1000D8B40DEF0FF00FEF0FF007EF0FF00E0E2D
:101E2000066E020E9AEC11F0BD0E066E0650D8A496
:101E3000100E076E8BEC10F0000184510EEC10F0C8
:101E4000296E2A6A293A2A3AF00E2A1629500F0BCF
:101E50002A12F00E2916000185510EEC10F02B6E9F
:101E60002B5029103A6E2A503B6ED80E3A24386E09
:101E7000FF0E3B20396EA00E196EE60E1A6E38C0AA
:101E80001BF039C01CF0C6EC12F00E0E066E010EEF
:101E90009AEC11F0E20E066E0650D8A4100E076EF2
:101EA0008BEC10F00E0E066E020E9AEC11F0A00EE6
:101EB000066E076A8BEC10F0100E066E020E9AEC9E
:101EC00011F0E90E066E0650D8A4100E076E8BECCA
:101ED00010F0476A456A12000550D8B472EF0FF04F
:101EE00074EF0FF07CEF0FF00550D8A47AEF0FF0ED
:101EF0007CEF0FF081EF0FF003505FEC13F0C0EFB9
:101F00000FF00550D96EDA6A090ED926DE50DE10C0
:101F1000D8B48DEF0FF08FEF0FF0A8EF0FF0055052
:101F2000D96EDA6A090ED9260550E16EE26A020E10
:101F3000E126DE50E65CE650800A0A6EDE50800A3A
:101F40000A58D8B0A6EF0FF0A8EF0FF0C0EF0FF0CF
:101F50000550D96EDA6A020ED926DF50066E05509A
:101F6000D96EDA6ADF500624D96EDA6A03C0DFFF61
:101F70000550D96EDA6A020ED926DE2A000EDD225D
:101F80001200B50E046ECAEC11F04550D8B4CBEF78
:101F90000FF0CDEF0FF0C5EF0FF0070E066E020E3B
:101FA0009AEC11F0BB0E066E0650D8A4100E076E08
:101FB0008BEC10F0070E066E010E9AEC11F0C10EBC
:101FC000066E0650D8A4100E076E8BEC10F0070EAC
:101FD000066E020E9AEC11F0800E036E000E056E76
:101FE000560E046E73EC12F00009D8A4FAEF0FF04D
:101FF000FCEF0FF006EF10F0DA0E066E0650D8A4D4
:10200000100E076E8BEC10F00BEF10F0800E066ECA
:10201000076A8BEC10F0476A456A1200036E2F0EB8
:10202000036415EF10F017EF10F023EF10F03A0EE5
:1020300003601DEF10F01FEF10F023EF10F00350BE
:10204000D00F4CEF10F0400E036429EF10F02BEF8F
:1020500010F037EF10F0470E036031EF10F033EF60
:1020600010F037EF10F00350C90F4CEF10F0600E76
:1020700003643DEF10F03FEF10F04BEF10F0670EF0
:10208000036045EF10F047EF10F04BEF10F00350F6
:10209000A90F4CEF10F0000E120095948C949596B9
:1020A0008C9695988C98959A8C9A959C8C9C959EDC
:1020B0008C9E020E086E380E076EAD0EE82EFED70F
:1020C000072EFCD7082EFAD700008C9E8C9C8C8A99
:1020D0008C884CEC13F0200E076E2A0EE82EFED7EB
:1020E000072EFCD74CEC13F0C80EE82EFED74CECB4
:1020F00013F08C9E8C9C8C8A8C984CEC13F0280EE0
:1021000010EC0EF05B5010EC0EF05A5010EC0EF08C
:102110001AEC13F012000A6AA8EF10F00A50062415
:10212000086E000E0720096E08C0F6FF09C0F7FF11
:10213000000EF86E0F0EF76403D00800F55005D0BE
:10214000F6CFE9FFF7CFEAFFEF5092EC0DF00A2A45
:102150000A500624086E000E0720096E08C0F6FF1C
:1021600009C0F7FF000EF86E0F0EF76403D00800E9
:10217000F55005D0F6CFE9FFF7CFEAFFEF500009A1
:10218000D8A4C5EF10F0C7EF10F08EEF10F01200DA
:10219000000E086E000E076E05500610D8B4D3EF7F
:1021A00010F0D5EF10F0FDEF10F0010E096EDDEF2D
:1021B00010F0D89005360636092A06AEE2EF10F088
:1021C000E4EF10F0D9EF10F0D8900736083605503C
:1021D000035C06500458D8A0F0EF10F0F2EF10F0B6
:1021E000F7EF10F00550035E0650045A0780D890B0
:1021F00006320532092EE4EF10F007C003F008C0E4
:1022000004F01200000E0B6E000E0C6E000E0D6E30
:10221000000E0E6E03A00FEF11F011EF11F019EF89
:1022200011F007500B2608500C2209500D220A50BD
:102230000E22D8900736083609360A36D89006326C
:102240000532043203320350041005100610D8A4DE
:102250002CEF11F02EEF11F00AEF11F00BC003F08C
:102260000CC004F00DC005F00EC006F012000550C1
:102270000610D8B43EEF11F040EF11F064EF11F00A
:10228000010E076E48EF11F0D89005360636072A82
:1022900006AE4DEF11F04FEF11F044EF11F0055085
:1022A000035C06500458D8A058EF11F05AEF11F013
:1022B0005EEF11F00550035E0650045AD8900632C6
:1022C0000532072E4FEF11F003C003F004C004F0F5
:1022D0001200700ED36E4DEC10F01AEC13F044ECBB
:1022E00013F052EC13F0E0EC12F0290E0001B16F84
:1022F000960EB06F7F0EE82EFED7B02FFCD7B12F11
:10230000FAD79D0E046ECAEC11F0020E0001B16FF7
:10231000040EB06FBA0EE82EFED7B02FFCD7B12F47
:10232000FAD70000FAEC0BF076EC08F092EF11F01F
:1023300069EF00F0076E0704D8A4A1EF11F0A3EF36
:1023400011F0A5EF11F07F0E0626020E0718D8A493
:10235000ACEF11F0AEEF11F0B0EF11F0BF0E0626AA
:10236000030E0718D8A4B7EF11F0B9EF11F0BBEFC7
:1023700011F0930E0626040E0718D8A4C2EF11F030
:10238000C4EF11F0C6EF11F0D30E0626065010EC84
:102390000EF01200000E076E000E066EDDEF11F05B
:1023A00004500624056E05C0F6FF100EF76E0800F7
:1023B000F55028EC13F0064A072A04500624056E4F
:1023C00005C0F6FF100EF76E0800F5500009D8A4FE
:1023D000ECEF11F0EEEF11F0D0EF11F01200BA0EA9
:1023E000F66E260EF76E000EF86E00EE58F010EE48
:1023F00004F00900F5CFEEFFE550E150FAE100EE00
:1024000060F0500EEE6AE806FDE100EE30F0280EB6
:10241000EE6AE806FDE15C905C92000EF86E000149
:1024200069EF11F0A30E046ECAEC11F04550D8B458
:102430001CEF12F01EEF12F016EF12F0010E066EF6
:10244000020E9AEC11F0CC0E066E0650D8A4100EB7
:10245000076E8BEC10F0800E066E076A8BEC10F0A6
:10246000476A456A1200C70E046ECAEC11F0455067
:10247000D8B43DEF12F03FEF12F037EF12F0010E3B
:10248000066E010E9AEC11F0D10E066E0650D8A41D
:10249000100E076E8BEC10F0800E066E076A8BEC48
:1024A00010F0476A456A120016C018F060EF12F08B
:1024B00015C00BF0180E0C6E17C00DF045EC0BF0AC
:1024C00018C0F6FF100EF76E0800F5500009D8A4EA
:1024D0006CEF12F06EEF12F058EF12F0000E166E65
:1024E000000E156E12000350D96EDA6A0450DE1821
:1024F000D8A47DEF12F07FEF12F082EF12F00350BC
:102500008FEF12F0032A0304D96EDA6ADF50D8A4E1
:102510008CEF12F08EEF12F073EF12F0000E12003B
:10252000C282C2B296EF12F098EF12F091EF12F061
:10253000340E056EF20EE82EFED7052EFCD7C350E2
:10254000C4CF05F0066A05C006F0056A0510036EE3
:102550000650046E1200010E066E010E9AEC11F088
:10256000450E066E0650D8A4100E076E8BEC10F0C8
:10257000010E066E020E9AEC11F0550E066E065014
:10258000D8A4100E076E8BEC10F012001B0E1D6EFF
:1025900019C01EF0000E216E000E206E000E286E77
:1025A000000E276E1E0E156E1AC016F01D0E176E49
:1025B00054EC12F019502024D96EDA6ADF6A120046
:1025C0000F013A6B949C948EAC8AAC9CAC98AC8412
:1025D000B886010EB06EA00EAF6EB898B89AAB8EEA
:1025E000AB88AB9C9D8AF28CF28E120012EC0DF03F
:1025F000C1EC0FF003EC0FF0020E2D6E040E2C6EEA
:10260000BA0EE82EFED72C2EFCD72D2EFAD700D0EE
:102610001200066E0650D8B410EF13F012EF13F04C
:1026200015EF13F05B8016EF13F05B905B5010EC2E
:102630000EF01200010E10EC0EF00C0E066EA20E43
:10264000E82EFED7062EFCD75A5010EC0EF01200E2
:10265000036EACA22EEF13F030EF13F029EF13F05E
:1026600003C0ADFF1200BD86BD94BD82BD80C30E08
:10267000BF6E500EBE6E1200CD8ACD88CD96CD8431
:10268000CD9ECD9CCD80120093880F013999948AFC
:102690003A9B9280388112008C86500EE82EFED72D
:1026A0008C961200010EC26EC16AAA0EC06E120094
:1026B00033EC12F012EC12F01200FFFF060C1200C5
:020000040030CA
:0E000000FF380E3CFFBF85FF0FC00FE00F4022
:00000001FF
